{"contracts/ImprovedMLM_BSC.sol":{"ImprovedMLM_BSC":{"abi":[{"inputs":[{"internalType":"address payable","name":"_tokenBurner","type":"address"}],"stateMutability":"nonpayable","type":"constructor"},{"inputs":[],"name":"EnforcedPause","type":"error"},{"inputs":[],"name":"ExpectedPause","type":"error"},{"inputs":[{"internalType":"address","name":"owner","type":"address"}],"name":"OwnableInvalidOwner","type":"error"},{"inputs":[{"internalType":"address","name":"account","type":"address"}],"name":"OwnableUnauthorizedAccount","type":"error"},{"inputs":[],"name":"ReentrancyGuardReentrantCall","type":"error"},{"anonymous":false,"inputs":[{"indexed":true,"internalType":"uint256","name":"userId","type":"uint256"},{"indexed":true,"internalType":"uint8","name":"level","type":"uint8"},{"indexed":false,"internalType":"uint256","name":"value","type":"uint256"}],"name":"BuyLevel","type":"event"},{"anonymous":false,"inputs":[{"indexed":true,"internalType":"uint256","name":"userId","type":"uint256"},{"indexed":true,"internalType":"uint8","name":"level","type":"uint8"},{"indexed":false,"internalType":"uint16","name":"newMaxPayouts","type":"uint16"}],"name":"IncreaseLevelMaxPayouts","type":"event"},{"anonymous":false,"inputs":[{"indexed":true,"internalType":"uint256","name":"userId","type":"uint256"},{"indexed":true,"internalType":"uint8","name":"level","type":"uint8"}],"name":"LevelDeactivation","type":"event"},{"anonymous":false,"inputs":[{"indexed":true,"internalType":"uint256","name":"userId","type":"uint256"},{"indexed":true,"internalType":"uint8","name":"level","type":"uint8"},{"indexed":false,"internalType":"uint256","name":"rewardValue","type":"uint256"},{"indexed":true,"internalType":"uint256","name":"fromUserId","type":"uint256"}],"name":"LevelPayout","type":"event"},{"anonymous":false,"inputs":[{"indexed":true,"internalType":"uint256","name":"referrerId","type":"uint256"},{"indexed":true,"internalType":"uint256","name":"referralId","type":"uint256"},{"indexed":true,"internalType":"uint8","name":"level","type":"uint8"},{"indexed":false,"internalType":"uint256","name":"rewardValue","type":"uint256"}],"name":"MissedReferralPayout","type":"event"},{"anonymous":false,"inputs":[{"indexed":true,"internalType":"address","name":"previousOwner","type":"address"},{"indexed":true,"internalType":"address","name":"newOwner","type":"address"}],"name":"OwnershipTransferred","type":"event"},{"anonymous":false,"inputs":[{"indexed":false,"internalType":"address","name":"account","type":"address"}],"name":"Paused","type":"event"},{"anonymous":false,"inputs":[{"indexed":true,"internalType":"uint256","name":"referrerId","type":"uint256"},{"indexed":true,"internalType":"uint256","name":"referralId","type":"uint256"},{"indexed":true,"internalType":"uint8","name":"level","type":"uint8"},{"indexed":false,"internalType":"uint256","name":"rewardValue","type":"uint256"}],"name":"ReferralPayout","type":"event"},{"anonymous":false,"inputs":[{"indexed":true,"internalType":"address","name":"oldBurner","type":"address"},{"indexed":true,"internalType":"address","name":"newBurner","type":"address"}],"name":"TokenBurnerUpdated","type":"event"},{"anonymous":false,"inputs":[{"indexed":false,"internalType":"address","name":"account","type":"address"}],"name":"Unpaused","type":"event"},{"anonymous":false,"inputs":[{"indexed":true,"internalType":"uint256","name":"userId","type":"uint256"},{"indexed":true,"internalType":"uint256","name":"referrerId","type":"uint256"},{"indexed":true,"internalType":"address","name":"userAddress","type":"address"}],"name":"UserRegistration","type":"event"},{"inputs":[],"name":"MAX_LEVELS","outputs":[{"internalType":"uint8","name":"","type":"uint8"}],"stateMutability":"view","type":"function"},{"inputs":[],"name":"MAX_REFERRAL_LINES","outputs":[{"internalType":"uint8","name":"","type":"uint8"}],"stateMutability":"view","type":"function"},{"inputs":[],"name":"REGISTRATION_PRICE","outputs":[{"internalType":"uint256","name":"","type":"uint256"}],"stateMutability":"view","type":"function"},{"inputs":[],"name":"REWARD_PAYOUTS","outputs":[{"internalType":"uint8","name":"","type":"uint8"}],"stateMutability":"view","type":"function"},{"inputs":[],"name":"REWARD_PERCENT","outputs":[{"internalType":"uint8","name":"","type":"uint8"}],"stateMutability":"view","type":"function"},{"inputs":[{"internalType":"uint8","name":"level","type":"uint8"}],"name":"buyLevel","outputs":[],"stateMutability":"payable","type":"function"},{"inputs":[],"name":"emergencyWithdraw","outputs":[],"stateMutability":"nonpayable","type":"function"},{"inputs":[],"name":"getAllLevelPrices","outputs":[{"internalType":"uint256[17]","name":"","type":"uint256[17]"}],"stateMutability":"view","type":"function"},{"inputs":[],"name":"getContractBalance","outputs":[{"internalType":"uint256","name":"","type":"uint256"}],"stateMutability":"view","type":"function"},{"inputs":[],"name":"getGlobalStats","outputs":[{"internalType":"uint256","name":"members","type":"uint256"},{"internalType":"uint256","name":"transactions","type":"uint256"},{"internalType":"uint256","name":"turnover","type":"uint256"}],"stateMutability":"view","type":"function"},{"inputs":[{"internalType":"address","name":"userAddress","type":"address"},{"internalType":"uint8","name":"level","type":"uint8"}],"name":"getPlaceInQueue","outputs":[{"internalType":"uint256","name":"place","type":"uint256"},{"internalType":"uint256","name":"totalInQueue","type":"uint256"}],"stateMutability":"view","type":"function"},{"inputs":[{"internalType":"address","name":"userAddress","type":"address"}],"name":"getUser","outputs":[{"internalType":"uint256","name":"id","type":"uint256"},{"internalType":"uint256","name":"registrationTimestamp","type":"uint256"},{"internalType":"uint256","name":"referrerId","type":"uint256"},{"internalType":"address","name":"referrer","type":"address"},{"internalType":"uint256","name":"referrals","type":"uint256"},{"internalType":"uint256","name":"referralPayoutSum","type":"uint256"},{"internalType":"uint256","name":"levelsRewardSum","type":"uint256"},{"internalType":"uint256","name":"missedReferralPayoutSum","type":"uint256"}],"stateMutability":"view","type":"function"},{"inputs":[{"internalType":"address","name":"userAddress","type":"address"}],"name":"getUserLevels","outputs":[{"internalType":"bool[]","name":"active","type":"bool[]"},{"internalType":"uint16[]","name":"payouts","type":"uint16[]"},{"internalType":"uint16[]","name":"maxPayouts","type":"uint16[]"},{"internalType":"uint16[]","name":"activationTimes","type":"uint16[]"},{"internalType":"uint256[]","name":"rewardSum","type":"uint256[]"},{"internalType":"uint256[]","name":"referralPayoutSum","type":"uint256[]"}],"stateMutability":"view","type":"function"},{"inputs":[],"name":"globalStat","outputs":[{"internalType":"uint256","name":"members","type":"uint256"},{"internalType":"uint256","name":"transactions","type":"uint256"},{"internalType":"uint256","name":"turnover","type":"uint256"}],"stateMutability":"view","type":"function"},{"inputs":[{"internalType":"uint8","name":"","type":"uint8"}],"name":"headIndex","outputs":[{"internalType":"uint256","name":"","type":"uint256"}],"stateMutability":"view","type":"function"},{"inputs":[{"internalType":"address","name":"userAddress","type":"address"}],"name":"isUserRegistered","outputs":[{"internalType":"bool","name":"","type":"bool"}],"stateMutability":"view","type":"function"},{"inputs":[{"internalType":"uint256","name":"","type":"uint256"}],"name":"levelPrices","outputs":[{"internalType":"uint256","name":"","type":"uint256"}],"stateMutability":"view","type":"function"},{"inputs":[{"internalType":"uint8","name":"","type":"uint8"},{"internalType":"uint256","name":"","type":"uint256"}],"name":"levelQueue","outputs":[{"internalType":"address","name":"","type":"address"}],"stateMutability":"view","type":"function"},{"inputs":[{"internalType":"uint8","name":"","type":"uint8"}],"name":"minUsersForLevel","outputs":[{"internalType":"uint256","name":"","type":"uint256"}],"stateMutability":"view","type":"function"},{"inputs":[],"name":"owner","outputs":[{"internalType":"address","name":"","type":"address"}],"stateMutability":"view","type":"function"},{"inputs":[],"name":"pause","outputs":[],"stateMutability":"nonpayable","type":"function"},{"inputs":[],"name":"paused","outputs":[{"internalType":"bool","name":"","type":"bool"}],"stateMutability":"view","type":"function"},{"inputs":[{"internalType":"uint256","name":"","type":"uint256"}],"name":"referralRewardPercents","outputs":[{"internalType":"uint8","name":"","type":"uint8"}],"stateMutability":"view","type":"function"},{"inputs":[],"name":"register","outputs":[],"stateMutability":"payable","type":"function"},{"inputs":[{"internalType":"address","name":"referrer","type":"address"}],"name":"registerWithReferrer","outputs":[],"stateMutability":"payable","type":"function"},{"inputs":[],"name":"renounceOwnership","outputs":[],"stateMutability":"nonpayable","type":"function"},{"inputs":[{"internalType":"address payable","name":"_tokenBurner","type":"address"}],"name":"setTokenBurner","outputs":[],"stateMutability":"nonpayable","type":"function"},{"inputs":[],"name":"tokenBurner","outputs":[{"internalType":"address payable","name":"","type":"address"}],"stateMutability":"view","type":"function"},{"inputs":[{"internalType":"address","name":"newOwner","type":"address"}],"name":"transferOwnership","outputs":[],"stateMutability":"nonpayable","type":"function"},{"inputs":[],"name":"unpause","outputs":[],"stateMutability":"nonpayable","type":"function"},{"inputs":[{"internalType":"address","name":"","type":"address"}],"name":"users","outputs":[{"internalType":"uint256","name":"id","type":"uint256"},{"internalType":"uint256","name":"registrationTimestamp","type":"uint256"},{"internalType":"address","name":"referrer","type":"address"},{"internalType":"uint256","name":"referrals","type":"uint256"},{"internalType":"uint256","name":"referralPayoutSum","type":"uint256"},{"internalType":"uint256","name":"levelsRewardSum","type":"uint256"},{"internalType":"uint256","name":"missedReferralPayoutSum","type":"uint256"}],"stateMutability":"view","type":"function"},{"inputs":[{"internalType":"uint256","name":"","type":"uint256"}],"name":"usersAddressById","outputs":[{"internalType":"address","name":"","type":"address"}],"stateMutability":"view","type":"function"},{"stateMutability":"payable","type":"receive"}],"evm":{"bytecode":{"linkReferences":{},"object":"61010060405260006080908152600d60a052600860c052600560e0526200002b90600290600462000547565b5060408051610220810182526000815266b1a2bc2ec50000602082015266f8b0a10e4700009181019190915267016345785d8a000060608201526701f161421c8e000060808201526702c68af0bb14000060a08201526703e2c284391c000060c082015267058d15e17628000060e08201526707a1fe1602770000610100820152670b1a2bc2ec500000610120820152670f43fc2c04ee00006101408201526716345785d8a00000610160820152671e87f85809dc0000610180820152672c68af0bb14000006101a0820152673d0ff0b013b800006101c0820152675a34a38fc00a00006101e0820152676f05b59d3b20000061020082015262000134906004906011620005e1565b5060026016553480156200014757600080fd5b5060405162002a4338038062002a438339810160408190526200016a9162000634565b600160005533806200019757604051631e4fbdf760e01b8152600060048201526024015b60405180910390fd5b620001a28162000298565b506001600160a01b038116620001fb5760405162461bcd60e51b815260206004820152601c60248201527f496e76616c696420746f6b656e206275726e657220616464726573730000000060448201526064016200018e565b600380546001600160a01b0319166001600160a01b03831617905560045b601060ff821611620002505760ff811660009081526015602052604090206001905580620002478162000666565b91505062000219565b506200025b620002ea565b6040516001600160a01b038216906000907ff1f34e0fc899850dc916e4128492f6cb73a06c53bae553fb09883f5dadf061d8908290a35062000694565b600180546001600160a01b038381166001600160a01b0319831681179093556040519116919082907f8be0079c531659141344cd1fd0a4f28419497f9722a3daafe3b4186f6b6457e090600090a35050565b600160176000620003036001546001600160a01b031690565b6001600160a01b03168152602081019190915260400160009081209190915542906017906200033a6001546001600160a01b031690565b6001600160a01b031681526020810191909152604001600090812060010191909155601781620003726001546001600160a01b031690565b6001600160a01b039081168252602082019290925260400160002060020180546001600160a01b03191692909116919091179055620003b96001546001600160a01b031690565b6001600081905260186020527ff3794665d3af9b6fb6f858b70185898134f96768ef31c325d52e04f0ac195a4d80546001600160a01b0319166001600160a01b039390931692909217909155601b819055601c8190555b601060ff8216116200054457600160176000620004356001546001600160a01b031690565b6001600160a01b031681526020808201929092526040908101600090812060ff861682526007019092528120805492151566010000000000000260ff60301b199093169290921790915561dd5a90601790620004996001546001600160a01b031690565b6001600160a01b031681526020808201929092526040908101600090812060ff861682526007018352818120805461ffff95909516620100000263ffff0000199095169490941790935560199091529020620004fd6001546001600160a01b031690565b81546001810183556000928352602090922090910180546001600160a01b0319166001600160a01b03909216919091179055806200053b8162000666565b91505062000410565b50565b600183019183908215620005cf5791602002820160005b838211156200059e57835183826101000a81548160ff021916908360ff16021790555092602001926001016020816000010492830192600103026200055e565b8015620005cd5782816101000a81549060ff02191690556001016020816000010492830192600103026200059e565b505b50620005dd9291506200061d565b5090565b8260118101928215620005cf579160200282015b82811115620005cf57825182906001600160401b0316905591602001919060010190620005f5565b5b80821115620005dd57600081556001016200061e565b6000602082840312156200064757600080fd5b81516001600160a01b03811681146200065f57600080fd5b9392505050565b600060ff821660ff81036200068b57634e487b7160e01b600052601160045260246000fd5b60010192915050565b61239f80620006a46000396000f3fe6080604052600436106101e75760003560e01c80636f77926b11610102578063a87430ba11610095578063cfce504411610064578063cfce5044146107d2578063db2e21bc14610807578063dea64dc51461081c578063f2fde38b1461085257600080fd5b8063a87430ba146106bb578063b056649714610760578063b0af768b14610792578063bd4616f4146107b257600080fd5b80638d17a4d0116100d15780638d17a4d0146106625780638da5cb5b146106755780638f1fcd7a14610693578063968763a0146106a857600080fd5b80636f77926b146105745780636f9fb98a14610625578063715018a6146106385780638456cb591461064d57600080fd5b806337e3c7891161017a5780635c975abb116101495780635c975abb146104eb57806360891fe41461050a5780636702c7bf146105445780636b4169c31461055957600080fd5b806337e3c789146104745780633f4ba83a1461049657806348135df0146104ab5780634debc14f146104cb57600080fd5b80631aa3a008116101b65780631aa3a0081461040457806323994d9c1461040c5780632663e0b5146104215780632996f9721461043c57600080fd5b806303b56a031461032857806306fbedbe14610368578063091b430a1461038f578063163f7522146103bc57600080fd5b36610323576101f4610872565b333b1561021c5760405162461bcd60e51b815260040161021390611fd5565b60405180910390fd5b3360009081526017602052604090205461029a576658d15e17628000340361025a576102586102536001546001600160a01b031690565b61089f565b005b60405162461bcd60e51b8152602060048201526015602482015274149959da5cdd1c985d1a5bdb881c995c5d5a5c9959605a1b6044820152606401610213565b60015b601060ff8216116102e1573460048260ff16601181106102bf576102bf612004565b0154036102cf5761025881610a30565b806102d981612030565b91505061029d565b5060405162461bcd60e51b8152602060048201526016602482015275125b9d985b1a59081c185e5b595b9d08185b5bdd5b9d60521b6044820152606401610213565b600080fd5b34801561033457600080fd5b50610355610343366004612065565b60156020526000908152604090205481565b6040519081526020015b60405180910390f35b34801561037457600080fd5b5061037d604a81565b60405160ff909116815260200161035f565b34801561039b57600080fd5b506103556103aa366004612065565b601a6020526000908152604090205481565b3480156103c857600080fd5b506103f46103d736600461209c565b6001600160a01b0316600090815260176020526040902054151590565b604051901515815260200161035f565b610258610cbb565b34801561041857600080fd5b5061037d600381565b34801561042d57600080fd5b506103556658d15e1762800081565b34801561044857600080fd5b5060035461045c906001600160a01b031681565b6040516001600160a01b03909116815260200161035f565b34801561048057600080fd5b50610489610cd8565b60405161035f91906120b9565b3480156104a257600080fd5b50610258610d14565b3480156104b757600080fd5b506103556104c63660046120eb565b610d24565b3480156104d757600080fd5b5061045c6104e6366004612104565b610d3b565b3480156104f757600080fd5b50600154600160a01b900460ff166103f4565b34801561051657600080fd5b50601b54601c54601d5461052992919083565b6040805193845260208401929092529082015260600161035f565b34801561055057600080fd5b5061037d601081565b34801561056557600080fd5b50601b54601c54601d54610529565b34801561058057600080fd5b506105e261058f36600461209c565b6001600160a01b0390811660009081526017602052604080822080546001820154600283015490951680855292909320546003820154600483015460058401546006909401549597929591939092909190565b604080519889526020890197909752958701949094526001600160a01b039092166060860152608085015260a084015260c083015260e08201526101000161035f565b34801561063157600080fd5b5047610355565b34801561064457600080fd5b50610258610d73565b34801561065957600080fd5b50610258610d85565b610258610670366004612065565b610a30565b34801561068157600080fd5b506001546001600160a01b031661045c565b34801561069f57600080fd5b5061037d600281565b6102586106b636600461209c565b610d95565b3480156106c757600080fd5b5061071d6106d636600461209c565b6017602052600090815260409020805460018201546002830154600384015460048501546005860154600690960154949593946001600160a01b0390931693919290919087565b6040805197885260208801969096526001600160a01b03909416948601949094526060850191909152608084015260a083019190915260c082015260e00161035f565b34801561076c57600080fd5b5061078061077b36600461209c565b610ee2565b60405161035f9695949392919061219d565b34801561079e57600080fd5b506102586107ad36600461209c565b611252565b3480156107be57600080fd5b5061037d6107cd3660046120eb565b6112f4565b3480156107de57600080fd5b506107f26107ed36600461224a565b61131e565b6040805192835260208301919091520161035f565b34801561081357600080fd5b50610258611493565b34801561082857600080fd5b5061045c6108373660046120eb565b6018602052600090815260409020546001600160a01b031681565b34801561085e57600080fd5b5061025861086d36600461209c565b6114d4565b600154600160a01b900460ff161561089d5760405163d93c066560e01b815260040160405180910390fd5b565b60168054600091826108b08361227f565b9091555033600081815260176020908152604080832085815542600182015560020180546001600160a01b0389166001600160a01b031991821617909155858452601890925290912080549091169091179055905061090e8261150f565b6003546040516000916001600160a01b03169034908381818185875af1925050503d806000811461095b576040519150601f19603f3d011682016040523d82523d6000602084013e610960565b606091505b50509050806109bd5760405162461bcd60e51b815260206004820152602360248201527f424e42207472616e7366657220746f20746f6b656e206275726e6572206661696044820152621b195960ea1b6064820152608401610213565b601b80549060006109cd8361227f565b9091555050601c80549060006109e28361227f565b90915550506001600160a01b038316600090815260176020526040808220549051339285917fd16b9e23ebcbb63125b93bae9f6ab7816d405e981078401e617b7c0af255806c9190a4505050565b610a38611595565b33600090815260176020526040902054610a8a5760405162461bcd60e51b8152602060048201526013602482015272155cd95c881b9bdd081c9959da5cdd195c9959606a1b6044820152606401610213565b8060008160ff16118015610aa25750601060ff821611155b610ade5760405162461bcd60e51b815260206004820152600d60248201526c125b9d985b1a59081b195d995b609a1b6044820152606401610213565b610ae6610872565b333b15610b055760405162461bcd60e51b815260040161021390611fd5565b3460048360ff1660118110610b1c57610b1c612004565b015414610b6b5760405162461bcd60e51b815260206004820152601c60248201527f496e76616c696420424e4220616d6f756e7420666f72206c6576656c000000006044820152606401610213565b60ff8216600090815260156020526040902054601b541015610bc55760405162461bcd60e51b81526020600482015260136024820152724c6576656c206e6f7420617661696c61626c6560681b6044820152606401610213565b60015b8260ff168160ff161015610c615733600090815260176020908152604080832060ff8086168552600790910190925290912054600160301b900416610c4f5760405162461bcd60e51b815260206004820152601e60248201527f50726576696f7573206c6576656c73206d7573742062652061637469766500006044820152606401610213565b80610c5981612030565b915050610bc8565b50601c8054906000610c728361227f565b919050555034601b6002016000828254610c8c9190612298565b90915550610c9b9050826115bf565b610ca482611792565b610cad8261191f565b50610cb86001600055565b50565b610cc3610872565b61089d6106b66001546001600160a01b031690565b610ce0611fb6565b604080516102208101918290529060049060119082845b815481526020019060010190808311610cf7575050505050905090565b610d1c611994565b61089d6119c1565b60048160118110610d3457600080fd5b0154905081565b60196020528160005260406000208181548110610d5757600080fd5b6000918252602090912001546001600160a01b03169150829050565b610d7b611994565b61089d6000611a16565b610d8d611994565b61089d611a68565b610d9d610872565b333b15610dbc5760405162461bcd60e51b815260040161021390611fd5565b6658d15e176280003414610e225760405162461bcd60e51b815260206004820152602760248201527f53656e642065786163746c7920302e30323520424e4220666f722072656769736044820152663a3930ba34b7b760c91b6064820152608401610213565b6001600160a01b038116600090815260176020526040902054610e875760405162461bcd60e51b815260206004820152601760248201527f5265666572726572206e6f7420726567697374657265640000000000000000006044820152606401610213565b3360009081526017602052604090205415610ed95760405162461bcd60e51b8152602060048201526012602482015271105b1c9958591e481c9959da5cdd195c995960721b6044820152606401610213565b610cb88161089f565b60608080808080610ef5601060016122ab565b60ff1667ffffffffffffffff811115610f1057610f106122c4565b604051908082528060200260200182016040528015610f39578160200160208202803683370190505b509550610f48601060016122ab565b60ff1667ffffffffffffffff811115610f6357610f636122c4565b604051908082528060200260200182016040528015610f8c578160200160208202803683370190505b509450610f9b601060016122ab565b60ff1667ffffffffffffffff811115610fb657610fb66122c4565b604051908082528060200260200182016040528015610fdf578160200160208202803683370190505b509350610fee601060016122ab565b60ff1667ffffffffffffffff811115611009576110096122c4565b604051908082528060200260200182016040528015611032578160200160208202803683370190505b509250611041601060016122ab565b60ff1667ffffffffffffffff81111561105c5761105c6122c4565b604051908082528060200260200182016040528015611085578160200160208202803683370190505b509150611094601060016122ab565b60ff1667ffffffffffffffff8111156110af576110af6122c4565b6040519080825280602002602001820160405280156110d8578160200160208202803683370190505b50905060015b601060ff821611611248576001600160a01b038816600090815260176020908152604080832060ff8086168086526007909201909352922080548a519193600160301b909104909216918a91811061113857611138612004565b6020026020010190151590811515815250508060000160049054906101000a900461ffff16878360ff168151811061117257611172612004565b61ffff9283166020918202929092010152815487516201000090910490911690879060ff85169081106111a7576111a7612004565b61ffff928316602091820292909201015281548651911690869060ff85169081106111d4576111d4612004565b602002602001019061ffff16908161ffff16815250508060010154848360ff168151811061120457611204612004565b6020026020010181815250508060020154838360ff168151811061122a5761122a612004565b6020908102919091010152508061124081612030565b9150506110de565b5091939550919395565b61125a611994565b6001600160a01b0381166112a25760405162461bcd60e51b815260206004820152600f60248201526e496e76616c6964206164647265737360881b6044820152606401610213565b600380546001600160a01b038381166001600160a01b0319831681179093556040519116919082907ff1f34e0fc899850dc916e4128492f6cb73a06c53bae553fb09883f5dadf061d890600090a35050565b6002816004811061130457600080fd5b60209182820401919006915054906101000a900460ff1681565b6000808260008160ff161180156113395750601060ff821611155b6113755760405162461bcd60e51b815260206004820152600d60248201526c125b9d985b1a59081b195d995b609a1b6044820152606401610213565b6001600160a01b038516600090815260176020908152604080832060ff8089168552600790910190925290912054600160301b9004166113bb576000809250925061148b565b60ff84166000908152601a60209081526040808320546019909252909120546113e491906122da565b60ff85166000908152601a60205260409020549092505b60ff8516600090815260196020526040902054811015611485578361141f8161227f565b60ff8716600090815260196020526040902080549196506001600160a01b0389169250908390811061145357611453612004565b6000918252602090912001546001600160a01b031603611473575061148b565b8061147d8161227f565b9150506113fb565b50600092505b509250929050565b61149b611994565b6001546040516001600160a01b03909116904780156108fc02916000818181858888f19350505050158015610cb8573d6000803e3d6000fd5b6114dc611994565b6001600160a01b03811661150657604051631e4fbdf760e01b815260006004820152602401610213565b610cb881611a16565b6001815b600360ff83161180159061152f57506001600160a01b03811615155b15611590576001600160a01b038116600090815260176020526040812060030180549161155b8361227f565b90915550506001600160a01b03908116600090815260176020526040902060020154168161158881612030565b925050611513565b505050565b6002600054036115b857604051633ee5aeb560e01b815260040160405180910390fd5b6002600055565b33600090815260176020908152604080832060ff8086168552600790910190925290912054600160301b90041661168e5733600081815260176020818152604080842060ff8716808652600782018452828620805466ff0000ffffffff191666010000000200011790556019845282862080546001810182559087528487200180546001600160a01b03191688179055959094529181529154905134815290917fb3ee66175caa7eb8cc743a754465090c36c078d31e7b31a0057133127e6087f591015b60405180910390a350565b33600090815260176020908152604080832060ff851684526007019091528120805461ffff16916116be836122ed565b82546101009290920a61ffff81810219909316918316021790915533600090815260176020908152604080832060ff871684526007019091529020805460029350909183916117159183916201000090041661230e565b82546101009290920a61ffff818102199093169183160217909155336000908152601760209081526040808320805460ff8816808652600790920184529382902054915162010000909204909416815292935090917ff164f79ccc8f5723ef68f84771de9a921c6ba456d540317ea133df467e3f8e6a9101611683565b600060646117a1604a34612330565b6117ab9190612347565b60ff83166000908152601960209081526040808320601a9092528220548154939450919290919081106117e0576117e0612004565b6000918252602090912001546001600160a01b0316905033811461187b576118088183611aab565b611813818484611b46565b61181d8184611bbc565b336000908152601760209081526040808320546001600160a01b03851684529281902054905185815260ff8716927fb970429b721aab5042efe513b75b71cd07615fdff866744e3d07dfe5998ffc66910160405180910390a46118b2565b6118966118906001546001600160a01b031690565b83611aab565b6118b26118ab6001546001600160a01b031690565b8484611b46565b60ff83166000908152601960209081526040808320601a90925290912054815481106118e0576118e0612004565b6000918252602080832090910180546001600160a01b031916905560ff85168252601a9052604081208054916119158361227f565b9190505550505050565b600061192c606434612347565b905060015b600360ff82161161159057600060028260ff166004811061195457611954612004565b60208104919091015461197391601f166101000a900460ff1684612330565b905061198133838684611d0e565b508061198c81612030565b915050611931565b6001546001600160a01b0316331461089d5760405163118cdaa760e01b8152336004820152602401610213565b6119c9611f04565b6001805460ff60a01b191690557f5db9ee0a495bf2e6ff9c91a7834c1ba4fdd244a5e8aa4e537bd38aeae4b073aa335b6040516001600160a01b03909116815260200160405180910390a1565b600180546001600160a01b038381166001600160a01b0319831681179093556040519116919082907f8be0079c531659141344cd1fd0a4f28419497f9722a3daafe3b4186f6b6457e090600090a35050565b611a70610872565b6001805460ff60a01b1916600160a01b1790557f62e78cea01bee320cd4e420270b5ea74000d11b0c9f74754ebdbfc544b05a2586119f93390565b6000826001600160a01b03168260405160006040518083038185875af1925050503d8060008114611af8576040519150601f19603f3d011682016040523d82523d6000602084013e611afd565b606091505b5050905080611590576001546040516001600160a01b039091169083156108fc029084906000818181858888f19350505050158015611b40573d6000803e3d6000fd5b50505050565b6001600160a01b038316600090815260176020908152604080832060ff8616845260070190915281206001018054839290611b82908490612298565b90915550506001600160a01b03831660009081526017602052604081206005018054839290611bb2908490612298565b9091555050505050565b6001600160a01b038216600090815260176020908152604080832060ff8516845260070190915290208054640100000000900461ffff16906004611bff836122ed565b82546101009290920a61ffff8181021990931691831602179091556001600160a01b038416600090815260176020908152604080832060ff87168452600701909152902054620100008104821664010000000090910490911610159050611ca15760ff811660009081526019602090815260408220805460018101825590835291200180546001600160a01b0384166001600160a01b03199091161790555050565b6001600160a01b038216600081815260176020818152604080842060ff8716808652600782018452828620805466ff00000000000019169055958552929091529054905190917fae9c7cc1b10b0aa2e208296b682cc0000383f83093814233542a7c2eaf7e27d591a35050565b6000611d1a8585611f2e565b90505b6001600160a01b038116600090815260176020908152604080832060ff8088168552600790910190925290912054600160301b900416158015611d6e57506001546001600160a01b03828116911614155b15611e24576001600160a01b03811660009081526017602052604081206006018054849290611d9e908490612298565b90915550506001600160a01b0385811660009081526017602090815260408083205493851683529182902054915185815260ff87169392917fe9d5dfc09351e7b04248ed26514ea34cf12373d57d5206d9d46cd2ad5e487055910160405180910390a46001600160a01b0390811660009081526017602052604090206002015416611d1d565b611e2e8183611aab565b6001600160a01b038116600090815260176020908152604080832060ff8716845260070190915281206002018054849290611e6a908490612298565b90915550506001600160a01b03811660009081526017602052604081206004018054849290611e9a908490612298565b90915550506001600160a01b0385811660009081526017602090815260408083205493851683529182902054915185815260ff87169392917f6d8172da503639a6daa587046b28564afbee4369eca5d54e7551a07a591db533910160405180910390a45050505050565b600154600160a01b900460ff1661089d57604051638dfc202b60e01b815260040160405180910390fd5b6001600160a01b0380831660009081526017602052604081206002015490911660015b8360ff168160ff16108015611f7457506001546001600160a01b03838116911614155b15611fac576001600160a01b039182166000908152601760205260409020600201549091169080611fa481612030565b915050611f51565b5090505b92915050565b6040518061022001604052806011906020820280368337509192915050565b60208082526015908201527410dbdb9d1c9858dd1cc81b9bdd08185b1b1bddd959605a1b604082015260600190565b634e487b7160e01b600052603260045260246000fd5b634e487b7160e01b600052601160045260246000fd5b600060ff821660ff81036120465761204661201a565b60010192915050565b803560ff8116811461206057600080fd5b919050565b60006020828403121561207757600080fd5b6120808261204f565b9392505050565b6001600160a01b0381168114610cb857600080fd5b6000602082840312156120ae57600080fd5b813561208081612087565b6102208101818360005b60118110156120e25781518352602092830192909101906001016120c3565b50505092915050565b6000602082840312156120fd57600080fd5b5035919050565b6000806040838503121561211757600080fd5b6121208361204f565b946020939093013593505050565b600081518084526020808501945080840160005b8381101561216257815161ffff1687529582019590820190600101612142565b509495945050505050565b600081518084526020808501945080840160005b8381101561216257815187529582019590820190600101612181565b60c0808252875190820181905260009060209060e0840190828b01845b828110156121d85781511515845292840192908401906001016121ba565b505050838103828501526121ec818a61212e565b9150508281036040840152612201818861212e565b90508281036060840152612215818761212e565b90508281036080840152612229818661216d565b905082810360a084015261223d818561216d565b9998505050505050505050565b6000806040838503121561225d57600080fd5b823561226881612087565b91506122766020840161204f565b90509250929050565b6000600182016122915761229161201a565b5060010190565b80820180821115611fb057611fb061201a565b60ff8181168382160190811115611fb057611fb061201a565b634e487b7160e01b600052604160045260246000fd5b81810381811115611fb057611fb061201a565b600061ffff8083168181036123045761230461201a565b6001019392505050565b61ffff8181168382160190808211156123295761232961201a565b5092915050565b8082028115828204841417611fb057611fb061201a565b60008261236457634e487b7160e01b600052601260045260246000fd5b50049056fea2646970667358221220fd4d36d2278dfca3dbea5d9f6ef0a77efbecb9e547b72ab6792ed2ddc74bb37164736f6c63430008140033","opcodes":"PUSH2 0x100 PUSH1 0x40 MSTORE PUSH1 0x0 PUSH1 0x80 SWAP1 DUP2 MSTORE PUSH1 0xD PUSH1 0xA0 MSTORE PUSH1 0x8 PUSH1 0xC0 MSTORE PUSH1 0x5 PUSH1 0xE0 MSTORE PUSH3 0x2B SWAP1 PUSH1 0x2 SWAP1 PUSH1 0x4 PUSH3 0x547 JUMP JUMPDEST POP PUSH1 0x40 DUP1 MLOAD PUSH2 0x220 DUP2 ADD DUP3 MSTORE PUSH1 0x0 DUP2 MSTORE PUSH7 0xB1A2BC2EC50000 PUSH1 0x20 DUP3 ADD MSTORE PUSH7 0xF8B0A10E470000 SWAP2 DUP2 ADD SWAP2 SWAP1 SWAP2 MSTORE PUSH8 0x16345785D8A0000 PUSH1 0x60 DUP3 ADD MSTORE PUSH8 0x1F161421C8E0000 PUSH1 0x80 DUP3 ADD MSTORE PUSH8 0x2C68AF0BB140000 PUSH1 0xA0 DUP3 ADD MSTORE PUSH8 0x3E2C284391C0000 PUSH1 0xC0 DUP3 ADD MSTORE PUSH8 0x58D15E176280000 PUSH1 0xE0 DUP3 ADD MSTORE PUSH8 0x7A1FE1602770000 PUSH2 0x100 DUP3 ADD MSTORE PUSH8 0xB1A2BC2EC500000 PUSH2 0x120 DUP3 ADD MSTORE PUSH8 0xF43FC2C04EE0000 PUSH2 0x140 DUP3 ADD MSTORE PUSH8 0x16345785D8A00000 PUSH2 0x160 DUP3 ADD MSTORE PUSH8 0x1E87F85809DC0000 PUSH2 0x180 DUP3 ADD MSTORE PUSH8 0x2C68AF0BB1400000 PUSH2 0x1A0 DUP3 ADD MSTORE PUSH8 0x3D0FF0B013B80000 PUSH2 0x1C0 DUP3 ADD MSTORE PUSH8 0x5A34A38FC00A0000 PUSH2 0x1E0 DUP3 ADD MSTORE PUSH8 0x6F05B59D3B200000 PUSH2 0x200 DUP3 ADD MSTORE PUSH3 0x134 SWAP1 PUSH1 0x4 SWAP1 PUSH1 0x11 PUSH3 0x5E1 JUMP JUMPDEST POP PUSH1 0x2 PUSH1 0x16 SSTORE CALLVALUE DUP1 ISZERO PUSH3 0x147 JUMPI PUSH1 0x0 DUP1 REVERT JUMPDEST POP PUSH1 0x40 MLOAD PUSH3 0x2A43 CODESIZE SUB DUP1 PUSH3 0x2A43 DUP4 CODECOPY DUP2 ADD PUSH1 0x40 DUP2 SWAP1 MSTORE PUSH3 0x16A SWAP2 PUSH3 0x634 JUMP JUMPDEST PUSH1 0x1 PUSH1 0x0 SSTORE CALLER DUP1 PUSH3 0x197 JUMPI PUSH1 0x40 MLOAD PUSH4 0x1E4FBDF7 PUSH1 0xE0 SHL DUP2 MSTORE PUSH1 0x0 PUSH1 0x4 DUP3 ADD MSTORE PUSH1 0x24 ADD JUMPDEST PUSH1 0x40 MLOAD DUP1 SWAP2 SUB SWAP1 REVERT JUMPDEST PUSH3 0x1A2 DUP2 PUSH3 0x298 JUMP JUMPDEST POP PUSH1 0x1 PUSH1 0x1 PUSH1 0xA0 SHL SUB DUP2 AND PUSH3 0x1FB JUMPI PUSH1 0x40 MLOAD PUSH3 0x461BCD PUSH1 0xE5 SHL DUP2 MSTORE PUSH1 0x20 PUSH1 0x4 DUP3 ADD MSTORE PUSH1 0x1C PUSH1 0x24 DUP3 ADD MSTORE PUSH32 0x496E76616C696420746F6B656E206275726E6572206164647265737300000000 PUSH1 0x44 DUP3 ADD MSTORE PUSH1 0x64 ADD PUSH3 0x18E JUMP JUMPDEST PUSH1 0x3 DUP1 SLOAD PUSH1 0x1 PUSH1 0x1 PUSH1 0xA0 SHL SUB NOT AND PUSH1 0x1 PUSH1 0x1 PUSH1 0xA0 SHL SUB DUP4 AND OR SWAP1 SSTORE PUSH1 0x4 JUMPDEST PUSH1 0x10 PUSH1 0xFF DUP3 AND GT PUSH3 0x250 JUMPI PUSH1 0xFF DUP2 AND PUSH1 0x0 SWAP1 DUP2 MSTORE PUSH1 0x15 PUSH1 0x20 MSTORE PUSH1 0x40 SWAP1 KECCAK256 PUSH1 0x1 SWAP1 SSTORE DUP1 PUSH3 0x247 DUP2 PUSH3 0x666 JUMP JUMPDEST SWAP2 POP POP PUSH3 0x219 JUMP JUMPDEST POP PUSH3 0x25B PUSH3 0x2EA JUMP JUMPDEST PUSH1 0x40 MLOAD PUSH1 0x1 PUSH1 0x1 PUSH1 0xA0 SHL SUB DUP3 AND SWAP1 PUSH1 0x0 SWAP1 PUSH32 0xF1F34E0FC899850DC916E4128492F6CB73A06C53BAE553FB09883F5DADF061D8 SWAP1 DUP3 SWAP1 LOG3 POP PUSH3 0x694 JUMP JUMPDEST PUSH1 0x1 DUP1 SLOAD PUSH1 0x1 PUSH1 0x1 PUSH1 0xA0 SHL SUB DUP4 DUP2 AND PUSH1 0x1 PUSH1 0x1 PUSH1 0xA0 SHL SUB NOT DUP4 AND DUP2 OR SWAP1 SWAP4 SSTORE PUSH1 0x40 MLOAD SWAP2 AND SWAP2 SWAP1 DUP3 SWAP1 PUSH32 0x8BE0079C531659141344CD1FD0A4F28419497F9722A3DAAFE3B4186F6B6457E0 SWAP1 PUSH1 0x0 SWAP1 LOG3 POP POP JUMP JUMPDEST PUSH1 0x1 PUSH1 0x17 PUSH1 0x0 PUSH3 0x303 PUSH1 0x1 SLOAD PUSH1 0x1 PUSH1 0x1 PUSH1 0xA0 SHL SUB AND SWAP1 JUMP JUMPDEST PUSH1 0x1 PUSH1 0x1 PUSH1 0xA0 SHL SUB AND DUP2 MSTORE PUSH1 0x20 DUP2 ADD SWAP2 SWAP1 SWAP2 MSTORE PUSH1 0x40 ADD PUSH1 0x0 SWAP1 DUP2 KECCAK256 SWAP2 SWAP1 SWAP2 SSTORE TIMESTAMP SWAP1 PUSH1 0x17 SWAP1 PUSH3 0x33A PUSH1 0x1 SLOAD PUSH1 0x1 PUSH1 0x1 PUSH1 0xA0 SHL SUB AND SWAP1 JUMP JUMPDEST PUSH1 0x1 PUSH1 0x1 PUSH1 0xA0 SHL SUB AND DUP2 MSTORE PUSH1 0x20 DUP2 ADD SWAP2 SWAP1 SWAP2 MSTORE PUSH1 0x40 ADD PUSH1 0x0 SWAP1 DUP2 KECCAK256 PUSH1 0x1 ADD SWAP2 SWAP1 SWAP2 SSTORE PUSH1 0x17 DUP2 PUSH3 0x372 PUSH1 0x1 SLOAD PUSH1 0x1 PUSH1 0x1 PUSH1 0xA0 SHL SUB AND SWAP1 JUMP JUMPDEST PUSH1 0x1 PUSH1 0x1 PUSH1 0xA0 SHL SUB SWAP1 DUP2 AND DUP3 MSTORE PUSH1 0x20 DUP3 ADD SWAP3 SWAP1 SWAP3 MSTORE PUSH1 0x40 ADD PUSH1 0x0 KECCAK256 PUSH1 0x2 ADD DUP1 SLOAD PUSH1 0x1 PUSH1 0x1 PUSH1 0xA0 SHL SUB NOT AND SWAP3 SWAP1 SWAP2 AND SWAP2 SWAP1 SWAP2 OR SWAP1 SSTORE PUSH3 0x3B9 PUSH1 0x1 SLOAD PUSH1 0x1 PUSH1 0x1 PUSH1 0xA0 SHL SUB AND SWAP1 JUMP JUMPDEST PUSH1 0x1 PUSH1 0x0 DUP2 SWAP1 MSTORE PUSH1 0x18 PUSH1 0x20 MSTORE PUSH32 0xF3794665D3AF9B6FB6F858B70185898134F96768EF31C325D52E04F0AC195A4D DUP1 SLOAD PUSH1 0x1 PUSH1 0x1 PUSH1 0xA0 SHL SUB NOT AND PUSH1 0x1 PUSH1 0x1 PUSH1 0xA0 SHL SUB SWAP4 SWAP1 SWAP4 AND SWAP3 SWAP1 SWAP3 OR SWAP1 SWAP2 SSTORE PUSH1 0x1B DUP2 SWAP1 SSTORE PUSH1 0x1C DUP2 SWAP1 SSTORE JUMPDEST PUSH1 0x10 PUSH1 0xFF DUP3 AND GT PUSH3 0x544 JUMPI PUSH1 0x1 PUSH1 0x17 PUSH1 0x0 PUSH3 0x435 PUSH1 0x1 SLOAD PUSH1 0x1 PUSH1 0x1 PUSH1 0xA0 SHL SUB AND SWAP1 JUMP JUMPDEST PUSH1 0x1 PUSH1 0x1 PUSH1 0xA0 SHL SUB AND DUP2 MSTORE PUSH1 0x20 DUP1 DUP3 ADD SWAP3 SWAP1 SWAP3 MSTORE PUSH1 0x40 SWAP1 DUP2 ADD PUSH1 0x0 SWAP1 DUP2 KECCAK256 PUSH1 0xFF DUP7 AND DUP3 MSTORE PUSH1 0x7 ADD SWAP1 SWAP3 MSTORE DUP2 KECCAK256 DUP1 SLOAD SWAP3 ISZERO ISZERO PUSH7 0x1000000000000 MUL PUSH1 0xFF PUSH1 0x30 SHL NOT SWAP1 SWAP4 AND SWAP3 SWAP1 SWAP3 OR SWAP1 SWAP2 SSTORE PUSH2 0xDD5A SWAP1 PUSH1 0x17 SWAP1 PUSH3 0x499 PUSH1 0x1 SLOAD PUSH1 0x1 PUSH1 0x1 PUSH1 0xA0 SHL SUB AND SWAP1 JUMP JUMPDEST PUSH1 0x1 PUSH1 0x1 PUSH1 0xA0 SHL SUB AND DUP2 MSTORE PUSH1 0x20 DUP1 DUP3 ADD SWAP3 SWAP1 SWAP3 MSTORE PUSH1 0x40 SWAP1 DUP2 ADD PUSH1 0x0 SWAP1 DUP2 KECCAK256 PUSH1 0xFF DUP7 AND DUP3 MSTORE PUSH1 0x7 ADD DUP4 MSTORE DUP2 DUP2 KECCAK256 DUP1 SLOAD PUSH2 0xFFFF SWAP6 SWAP1 SWAP6 AND PUSH3 0x10000 MUL PUSH4 0xFFFF0000 NOT SWAP1 SWAP6 AND SWAP5 SWAP1 SWAP5 OR SWAP1 SWAP4 SSTORE PUSH1 0x19 SWAP1 SWAP2 MSTORE SWAP1 KECCAK256 PUSH3 0x4FD PUSH1 0x1 SLOAD PUSH1 0x1 PUSH1 0x1 PUSH1 0xA0 SHL SUB AND SWAP1 JUMP JUMPDEST DUP2 SLOAD PUSH1 0x1 DUP2 ADD DUP4 SSTORE PUSH1 0x0 SWAP3 DUP4 MSTORE PUSH1 0x20 SWAP1 SWAP3 KECCAK256 SWAP1 SWAP2 ADD DUP1 SLOAD PUSH1 0x1 PUSH1 0x1 PUSH1 0xA0 SHL SUB NOT AND PUSH1 0x1 PUSH1 0x1 PUSH1 0xA0 SHL SUB SWAP1 SWAP3 AND SWAP2 SWAP1 SWAP2 OR SWAP1 SSTORE DUP1 PUSH3 0x53B DUP2 PUSH3 0x666 JUMP JUMPDEST SWAP2 POP POP PUSH3 0x410 JUMP JUMPDEST POP JUMP JUMPDEST PUSH1 0x1 DUP4 ADD SWAP2 DUP4 SWAP1 DUP3 ISZERO PUSH3 0x5CF JUMPI SWAP2 PUSH1 0x20 MUL DUP3 ADD PUSH1 0x0 JUMPDEST DUP4 DUP3 GT ISZERO PUSH3 0x59E JUMPI DUP4 MLOAD DUP4 DUP3 PUSH2 0x100 EXP DUP2 SLOAD DUP2 PUSH1 0xFF MUL NOT AND SWAP1 DUP4 PUSH1 0xFF AND MUL OR SWAP1 SSTORE POP SWAP3 PUSH1 0x20 ADD SWAP3 PUSH1 0x1 ADD PUSH1 0x20 DUP2 PUSH1 0x0 ADD DIV SWAP3 DUP4 ADD SWAP3 PUSH1 0x1 SUB MUL PUSH3 0x55E JUMP JUMPDEST DUP1 ISZERO PUSH3 0x5CD JUMPI DUP3 DUP2 PUSH2 0x100 EXP DUP2 SLOAD SWAP1 PUSH1 0xFF MUL NOT AND SWAP1 SSTORE PUSH1 0x1 ADD PUSH1 0x20 DUP2 PUSH1 0x0 ADD DIV SWAP3 DUP4 ADD SWAP3 PUSH1 0x1 SUB MUL PUSH3 0x59E JUMP JUMPDEST POP JUMPDEST POP PUSH3 0x5DD SWAP3 SWAP2 POP PUSH3 0x61D JUMP JUMPDEST POP SWAP1 JUMP JUMPDEST DUP3 PUSH1 0x11 DUP2 ADD SWAP3 DUP3 ISZERO PUSH3 0x5CF JUMPI SWAP2 PUSH1 0x20 MUL DUP3 ADD JUMPDEST DUP3 DUP2 GT ISZERO PUSH3 0x5CF JUMPI DUP3 MLOAD DUP3 SWAP1 PUSH1 0x1 PUSH1 0x1 PUSH1 0x40 SHL SUB AND SWAP1 SSTORE SWAP2 PUSH1 0x20 ADD SWAP2 SWAP1 PUSH1 0x1 ADD SWAP1 PUSH3 0x5F5 JUMP JUMPDEST JUMPDEST DUP1 DUP3 GT ISZERO PUSH3 0x5DD JUMPI PUSH1 0x0 DUP2 SSTORE PUSH1 0x1 ADD PUSH3 0x61E JUMP JUMPDEST PUSH1 0x0 PUSH1 0x20 DUP3 DUP5 SUB SLT ISZERO PUSH3 0x647 JUMPI PUSH1 0x0 DUP1 REVERT JUMPDEST DUP2 MLOAD PUSH1 0x1 PUSH1 0x1 PUSH1 0xA0 SHL SUB DUP2 AND DUP2 EQ PUSH3 0x65F JUMPI PUSH1 0x0 DUP1 REVERT JUMPDEST SWAP4 SWAP3 POP POP POP JUMP JUMPDEST PUSH1 0x0 PUSH1 0xFF DUP3 AND PUSH1 0xFF DUP2 SUB PUSH3 0x68B JUMPI PUSH4 0x4E487B71 PUSH1 0xE0 SHL PUSH1 0x0 MSTORE PUSH1 0x11 PUSH1 0x4 MSTORE PUSH1 0x24 PUSH1 0x0 REVERT JUMPDEST PUSH1 0x1 ADD SWAP3 SWAP2 POP POP JUMP JUMPDEST PUSH2 0x239F DUP1 PUSH3 0x6A4 PUSH1 0x0 CODECOPY PUSH1 0x0 RETURN INVALID PUSH1 0x80 PUSH1 0x40 MSTORE PUSH1 0x4 CALLDATASIZE LT PUSH2 0x1E7 JUMPI PUSH1 0x0 CALLDATALOAD PUSH1 0xE0 SHR DUP1 PUSH4 0x6F77926B GT PUSH2 0x102 JUMPI DUP1 PUSH4 0xA87430BA GT PUSH2 0x95 JUMPI DUP1 PUSH4 0xCFCE5044 GT PUSH2 0x64 JUMPI DUP1 PUSH4 0xCFCE5044 EQ PUSH2 0x7D2 JUMPI DUP1 PUSH4 0xDB2E21BC EQ PUSH2 0x807 JUMPI DUP1 PUSH4 0xDEA64DC5 EQ PUSH2 0x81C JUMPI DUP1 PUSH4 0xF2FDE38B EQ PUSH2 0x852 JUMPI PUSH1 0x0 DUP1 REVERT JUMPDEST DUP1 PUSH4 0xA87430BA EQ PUSH2 0x6BB JUMPI DUP1 PUSH4 0xB0566497 EQ PUSH2 0x760 JUMPI DUP1 PUSH4 0xB0AF768B EQ PUSH2 0x792 JUMPI DUP1 PUSH4 0xBD4616F4 EQ PUSH2 0x7B2 JUMPI PUSH1 0x0 DUP1 REVERT JUMPDEST DUP1 PUSH4 0x8D17A4D0 GT PUSH2 0xD1 JUMPI DUP1 PUSH4 0x8D17A4D0 EQ PUSH2 0x662 JUMPI DUP1 PUSH4 0x8DA5CB5B EQ PUSH2 0x675 JUMPI DUP1 PUSH4 0x8F1FCD7A EQ PUSH2 0x693 JUMPI DUP1 PUSH4 0x968763A0 EQ PUSH2 0x6A8 JUMPI PUSH1 0x0 DUP1 REVERT JUMPDEST DUP1 PUSH4 0x6F77926B EQ PUSH2 0x574 JUMPI DUP1 PUSH4 0x6F9FB98A EQ PUSH2 0x625 JUMPI DUP1 PUSH4 0x715018A6 EQ PUSH2 0x638 JUMPI DUP1 PUSH4 0x8456CB59 EQ PUSH2 0x64D JUMPI PUSH1 0x0 DUP1 REVERT JUMPDEST DUP1 PUSH4 0x37E3C789 GT PUSH2 0x17A JUMPI DUP1 PUSH4 0x5C975ABB GT PUSH2 0x149 JUMPI DUP1 PUSH4 0x5C975ABB EQ PUSH2 0x4EB JUMPI DUP1 PUSH4 0x60891FE4 EQ PUSH2 0x50A JUMPI DUP1 PUSH4 0x6702C7BF EQ PUSH2 0x544 JUMPI DUP1 PUSH4 0x6B4169C3 EQ PUSH2 0x559 JUMPI PUSH1 0x0 DUP1 REVERT JUMPDEST DUP1 PUSH4 0x37E3C789 EQ PUSH2 0x474 JUMPI DUP1 PUSH4 0x3F4BA83A EQ PUSH2 0x496 JUMPI DUP1 PUSH4 0x48135DF0 EQ PUSH2 0x4AB JUMPI DUP1 PUSH4 0x4DEBC14F EQ PUSH2 0x4CB JUMPI PUSH1 0x0 DUP1 REVERT JUMPDEST DUP1 PUSH4 0x1AA3A008 GT PUSH2 0x1B6 JUMPI DUP1 PUSH4 0x1AA3A008 EQ PUSH2 0x404 JUMPI DUP1 PUSH4 0x23994D9C EQ PUSH2 0x40C JUMPI DUP1 PUSH4 0x2663E0B5 EQ PUSH2 0x421 JUMPI DUP1 PUSH4 0x2996F972 EQ PUSH2 0x43C JUMPI PUSH1 0x0 DUP1 REVERT JUMPDEST DUP1 PUSH4 0x3B56A03 EQ PUSH2 0x328 JUMPI DUP1 PUSH4 0x6FBEDBE EQ PUSH2 0x368 JUMPI DUP1 PUSH4 0x91B430A EQ PUSH2 0x38F JUMPI DUP1 PUSH4 0x163F7522 EQ PUSH2 0x3BC JUMPI PUSH1 0x0 DUP1 REVERT JUMPDEST CALLDATASIZE PUSH2 0x323 JUMPI PUSH2 0x1F4 PUSH2 0x872 JUMP JUMPDEST CALLER EXTCODESIZE ISZERO PUSH2 0x21C JUMPI PUSH1 0x40 MLOAD PUSH3 0x461BCD PUSH1 0xE5 SHL DUP2 MSTORE PUSH1 0x4 ADD PUSH2 0x213 SWAP1 PUSH2 0x1FD5 JUMP JUMPDEST PUSH1 0x40 MLOAD DUP1 SWAP2 SUB SWAP1 REVERT JUMPDEST CALLER PUSH1 0x0 SWAP1 DUP2 MSTORE PUSH1 0x17 PUSH1 0x20 MSTORE PUSH1 0x40 SWAP1 KECCAK256 SLOAD PUSH2 0x29A JUMPI PUSH7 0x58D15E17628000 CALLVALUE SUB PUSH2 0x25A JUMPI PUSH2 0x258 PUSH2 0x253 PUSH1 0x1 SLOAD PUSH1 0x1 PUSH1 0x1 PUSH1 0xA0 SHL SUB AND SWAP1 JUMP JUMPDEST PUSH2 0x89F JUMP JUMPDEST STOP JUMPDEST PUSH1 0x40 MLOAD PUSH3 0x461BCD PUSH1 0xE5 SHL DUP2 MSTORE PUSH1 0x20 PUSH1 0x4 DUP3 ADD MSTORE PUSH1 0x15 PUSH1 0x24 DUP3 ADD MSTORE PUSH21 0x149959DA5CDD1C985D1A5BDB881C995C5D5A5C9959 PUSH1 0x5A SHL PUSH1 0x44 DUP3 ADD MSTORE PUSH1 0x64 ADD PUSH2 0x213 JUMP JUMPDEST PUSH1 0x1 JUMPDEST PUSH1 0x10 PUSH1 0xFF DUP3 AND GT PUSH2 0x2E1 JUMPI CALLVALUE PUSH1 0x4 DUP3 PUSH1 0xFF AND PUSH1 0x11 DUP2 LT PUSH2 0x2BF JUMPI PUSH2 0x2BF PUSH2 0x2004 JUMP JUMPDEST ADD SLOAD SUB PUSH2 0x2CF JUMPI PUSH2 0x258 DUP2 PUSH2 0xA30 JUMP JUMPDEST DUP1 PUSH2 0x2D9 DUP2 PUSH2 0x2030 JUMP JUMPDEST SWAP2 POP POP PUSH2 0x29D JUMP JUMPDEST POP PUSH1 0x40 MLOAD PUSH3 0x461BCD PUSH1 0xE5 SHL DUP2 MSTORE PUSH1 0x20 PUSH1 0x4 DUP3 ADD MSTORE PUSH1 0x16 PUSH1 0x24 DUP3 ADD MSTORE PUSH22 0x125B9D985B1A59081C185E5B595B9D08185B5BDD5B9D PUSH1 0x52 SHL PUSH1 0x44 DUP3 ADD MSTORE PUSH1 0x64 ADD PUSH2 0x213 JUMP JUMPDEST PUSH1 0x0 DUP1 REVERT JUMPDEST CALLVALUE DUP1 ISZERO PUSH2 0x334 JUMPI PUSH1 0x0 DUP1 REVERT JUMPDEST POP PUSH2 0x355 PUSH2 0x343 CALLDATASIZE PUSH1 0x4 PUSH2 0x2065 JUMP JUMPDEST PUSH1 0x15 PUSH1 0x20 MSTORE PUSH1 0x0 SWAP1 DUP2 MSTORE PUSH1 0x40 SWAP1 KECCAK256 SLOAD DUP2 JUMP JUMPDEST PUSH1 0x40 MLOAD SWAP1 DUP2 MSTORE PUSH1 0x20 ADD JUMPDEST PUSH1 0x40 MLOAD DUP1 SWAP2 SUB SWAP1 RETURN JUMPDEST CALLVALUE DUP1 ISZERO PUSH2 0x374 JUMPI PUSH1 0x0 DUP1 REVERT JUMPDEST POP PUSH2 0x37D PUSH1 0x4A DUP2 JUMP JUMPDEST PUSH1 0x40 MLOAD PUSH1 0xFF SWAP1 SWAP2 AND DUP2 MSTORE PUSH1 0x20 ADD PUSH2 0x35F JUMP JUMPDEST CALLVALUE DUP1 ISZERO PUSH2 0x39B JUMPI PUSH1 0x0 DUP1 REVERT JUMPDEST POP PUSH2 0x355 PUSH2 0x3AA CALLDATASIZE PUSH1 0x4 PUSH2 0x2065 JUMP JUMPDEST PUSH1 0x1A PUSH1 0x20 MSTORE PUSH1 0x0 SWAP1 DUP2 MSTORE PUSH1 0x40 SWAP1 KECCAK256 SLOAD DUP2 JUMP JUMPDEST CALLVALUE DUP1 ISZERO PUSH2 0x3C8 JUMPI PUSH1 0x0 DUP1 REVERT JUMPDEST POP PUSH2 0x3F4 PUSH2 0x3D7 CALLDATASIZE PUSH1 0x4 PUSH2 0x209C JUMP JUMPDEST PUSH1 0x1 PUSH1 0x1 PUSH1 0xA0 SHL SUB AND PUSH1 0x0 SWAP1 DUP2 MSTORE PUSH1 0x17 PUSH1 0x20 MSTORE PUSH1 0x40 SWAP1 KECCAK256 SLOAD ISZERO ISZERO SWAP1 JUMP JUMPDEST PUSH1 0x40 MLOAD SWAP1 ISZERO ISZERO DUP2 MSTORE PUSH1 0x20 ADD PUSH2 0x35F JUMP JUMPDEST PUSH2 0x258 PUSH2 0xCBB JUMP JUMPDEST CALLVALUE DUP1 ISZERO PUSH2 0x418 JUMPI PUSH1 0x0 DUP1 REVERT JUMPDEST POP PUSH2 0x37D PUSH1 0x3 DUP2 JUMP JUMPDEST CALLVALUE DUP1 ISZERO PUSH2 0x42D JUMPI PUSH1 0x0 DUP1 REVERT JUMPDEST POP PUSH2 0x355 PUSH7 0x58D15E17628000 DUP2 JUMP JUMPDEST CALLVALUE DUP1 ISZERO PUSH2 0x448 JUMPI PUSH1 0x0 DUP1 REVERT JUMPDEST POP PUSH1 0x3 SLOAD PUSH2 0x45C SWAP1 PUSH1 0x1 PUSH1 0x1 PUSH1 0xA0 SHL SUB AND DUP2 JUMP JUMPDEST PUSH1 0x40 MLOAD PUSH1 0x1 PUSH1 0x1 PUSH1 0xA0 SHL SUB SWAP1 SWAP2 AND DUP2 MSTORE PUSH1 0x20 ADD PUSH2 0x35F JUMP JUMPDEST CALLVALUE DUP1 ISZERO PUSH2 0x480 JUMPI PUSH1 0x0 DUP1 REVERT JUMPDEST POP PUSH2 0x489 PUSH2 0xCD8 JUMP JUMPDEST PUSH1 0x40 MLOAD PUSH2 0x35F SWAP2 SWAP1 PUSH2 0x20B9 JUMP JUMPDEST CALLVALUE DUP1 ISZERO PUSH2 0x4A2 JUMPI PUSH1 0x0 DUP1 REVERT JUMPDEST POP PUSH2 0x258 PUSH2 0xD14 JUMP JUMPDEST CALLVALUE DUP1 ISZERO PUSH2 0x4B7 JUMPI PUSH1 0x0 DUP1 REVERT JUMPDEST POP PUSH2 0x355 PUSH2 0x4C6 CALLDATASIZE PUSH1 0x4 PUSH2 0x20EB JUMP JUMPDEST PUSH2 0xD24 JUMP JUMPDEST CALLVALUE DUP1 ISZERO PUSH2 0x4D7 JUMPI PUSH1 0x0 DUP1 REVERT JUMPDEST POP PUSH2 0x45C PUSH2 0x4E6 CALLDATASIZE PUSH1 0x4 PUSH2 0x2104 JUMP JUMPDEST PUSH2 0xD3B JUMP JUMPDEST CALLVALUE DUP1 ISZERO PUSH2 0x4F7 JUMPI PUSH1 0x0 DUP1 REVERT JUMPDEST POP PUSH1 0x1 SLOAD PUSH1 0x1 PUSH1 0xA0 SHL SWAP1 DIV PUSH1 0xFF AND PUSH2 0x3F4 JUMP JUMPDEST CALLVALUE DUP1 ISZERO PUSH2 0x516 JUMPI PUSH1 0x0 DUP1 REVERT JUMPDEST POP PUSH1 0x1B SLOAD PUSH1 0x1C SLOAD PUSH1 0x1D SLOAD PUSH2 0x529 SWAP3 SWAP2 SWAP1 DUP4 JUMP JUMPDEST PUSH1 0x40 DUP1 MLOAD SWAP4 DUP5 MSTORE PUSH1 0x20 DUP5 ADD SWAP3 SWAP1 SWAP3 MSTORE SWAP1 DUP3 ADD MSTORE PUSH1 0x60 ADD PUSH2 0x35F JUMP JUMPDEST CALLVALUE DUP1 ISZERO PUSH2 0x550 JUMPI PUSH1 0x0 DUP1 REVERT JUMPDEST POP PUSH2 0x37D PUSH1 0x10 DUP2 JUMP JUMPDEST CALLVALUE DUP1 ISZERO PUSH2 0x565 JUMPI PUSH1 0x0 DUP1 REVERT JUMPDEST POP PUSH1 0x1B SLOAD PUSH1 0x1C SLOAD PUSH1 0x1D SLOAD PUSH2 0x529 JUMP JUMPDEST CALLVALUE DUP1 ISZERO PUSH2 0x580 JUMPI PUSH1 0x0 DUP1 REVERT JUMPDEST POP PUSH2 0x5E2 PUSH2 0x58F CALLDATASIZE PUSH1 0x4 PUSH2 0x209C JUMP JUMPDEST PUSH1 0x1 PUSH1 0x1 PUSH1 0xA0 SHL SUB SWAP1 DUP2 AND PUSH1 0x0 SWAP1 DUP2 MSTORE PUSH1 0x17 PUSH1 0x20 MSTORE PUSH1 0x40 DUP1 DUP3 KECCAK256 DUP1 SLOAD PUSH1 0x1 DUP3 ADD SLOAD PUSH1 0x2 DUP4 ADD SLOAD SWAP1 SWAP6 AND DUP1 DUP6 MSTORE SWAP3 SWAP1 SWAP4 KECCAK256 SLOAD PUSH1 0x3 DUP3 ADD SLOAD PUSH1 0x4 DUP4 ADD SLOAD PUSH1 0x5 DUP5 ADD SLOAD PUSH1 0x6 SWAP1 SWAP5 ADD SLOAD SWAP6 SWAP8 SWAP3 SWAP6 SWAP2 SWAP4 SWAP1 SWAP3 SWAP1 SWAP2 SWAP1 JUMP JUMPDEST PUSH1 0x40 DUP1 MLOAD SWAP9 DUP10 MSTORE PUSH1 0x20 DUP10 ADD SWAP8 SWAP1 SWAP8 MSTORE SWAP6 DUP8 ADD SWAP5 SWAP1 SWAP5 MSTORE PUSH1 0x1 PUSH1 0x1 PUSH1 0xA0 SHL SUB SWAP1 SWAP3 AND PUSH1 0x60 DUP7 ADD MSTORE PUSH1 0x80 DUP6 ADD MSTORE PUSH1 0xA0 DUP5 ADD MSTORE PUSH1 0xC0 DUP4 ADD MSTORE PUSH1 0xE0 DUP3 ADD MSTORE PUSH2 0x100 ADD PUSH2 0x35F JUMP JUMPDEST CALLVALUE DUP1 ISZERO PUSH2 0x631 JUMPI PUSH1 0x0 DUP1 REVERT JUMPDEST POP SELFBALANCE PUSH2 0x355 JUMP JUMPDEST CALLVALUE DUP1 ISZERO PUSH2 0x644 JUMPI PUSH1 0x0 DUP1 REVERT JUMPDEST POP PUSH2 0x258 PUSH2 0xD73 JUMP JUMPDEST CALLVALUE DUP1 ISZERO PUSH2 0x659 JUMPI PUSH1 0x0 DUP1 REVERT JUMPDEST POP PUSH2 0x258 PUSH2 0xD85 JUMP JUMPDEST PUSH2 0x258 PUSH2 0x670 CALLDATASIZE PUSH1 0x4 PUSH2 0x2065 JUMP JUMPDEST PUSH2 0xA30 JUMP JUMPDEST CALLVALUE DUP1 ISZERO PUSH2 0x681 JUMPI PUSH1 0x0 DUP1 REVERT JUMPDEST POP PUSH1 0x1 SLOAD PUSH1 0x1 PUSH1 0x1 PUSH1 0xA0 SHL SUB AND PUSH2 0x45C JUMP JUMPDEST CALLVALUE DUP1 ISZERO PUSH2 0x69F JUMPI PUSH1 0x0 DUP1 REVERT JUMPDEST POP PUSH2 0x37D PUSH1 0x2 DUP2 JUMP JUMPDEST PUSH2 0x258 PUSH2 0x6B6 CALLDATASIZE PUSH1 0x4 PUSH2 0x209C JUMP JUMPDEST PUSH2 0xD95 JUMP JUMPDEST CALLVALUE DUP1 ISZERO PUSH2 0x6C7 JUMPI PUSH1 0x0 DUP1 REVERT JUMPDEST POP PUSH2 0x71D PUSH2 0x6D6 CALLDATASIZE PUSH1 0x4 PUSH2 0x209C JUMP JUMPDEST PUSH1 0x17 PUSH1 0x20 MSTORE PUSH1 0x0 SWAP1 DUP2 MSTORE PUSH1 0x40 SWAP1 KECCAK256 DUP1 SLOAD PUSH1 0x1 DUP3 ADD SLOAD PUSH1 0x2 DUP4 ADD SLOAD PUSH1 0x3 DUP5 ADD SLOAD PUSH1 0x4 DUP6 ADD SLOAD PUSH1 0x5 DUP7 ADD SLOAD PUSH1 0x6 SWAP1 SWAP7 ADD SLOAD SWAP5 SWAP6 SWAP4 SWAP5 PUSH1 0x1 PUSH1 0x1 PUSH1 0xA0 SHL SUB SWAP1 SWAP4 AND SWAP4 SWAP2 SWAP3 SWAP1 SWAP2 SWAP1 DUP8 JUMP JUMPDEST PUSH1 0x40 DUP1 MLOAD SWAP8 DUP9 MSTORE PUSH1 0x20 DUP9 ADD SWAP7 SWAP1 SWAP7 MSTORE PUSH1 0x1 PUSH1 0x1 PUSH1 0xA0 SHL SUB SWAP1 SWAP5 AND SWAP5 DUP7 ADD SWAP5 SWAP1 SWAP5 MSTORE PUSH1 0x60 DUP6 ADD SWAP2 SWAP1 SWAP2 MSTORE PUSH1 0x80 DUP5 ADD MSTORE PUSH1 0xA0 DUP4 ADD SWAP2 SWAP1 SWAP2 MSTORE PUSH1 0xC0 DUP3 ADD MSTORE PUSH1 0xE0 ADD PUSH2 0x35F JUMP JUMPDEST CALLVALUE DUP1 ISZERO PUSH2 0x76C JUMPI PUSH1 0x0 DUP1 REVERT JUMPDEST POP PUSH2 0x780 PUSH2 0x77B CALLDATASIZE PUSH1 0x4 PUSH2 0x209C JUMP JUMPDEST PUSH2 0xEE2 JUMP JUMPDEST PUSH1 0x40 MLOAD PUSH2 0x35F SWAP7 SWAP6 SWAP5 SWAP4 SWAP3 SWAP2 SWAP1 PUSH2 0x219D JUMP JUMPDEST CALLVALUE DUP1 ISZERO PUSH2 0x79E JUMPI PUSH1 0x0 DUP1 REVERT JUMPDEST POP PUSH2 0x258 PUSH2 0x7AD CALLDATASIZE PUSH1 0x4 PUSH2 0x209C JUMP JUMPDEST PUSH2 0x1252 JUMP JUMPDEST CALLVALUE DUP1 ISZERO PUSH2 0x7BE JUMPI PUSH1 0x0 DUP1 REVERT JUMPDEST POP PUSH2 0x37D PUSH2 0x7CD CALLDATASIZE PUSH1 0x4 PUSH2 0x20EB JUMP JUMPDEST PUSH2 0x12F4 JUMP JUMPDEST CALLVALUE DUP1 ISZERO PUSH2 0x7DE JUMPI PUSH1 0x0 DUP1 REVERT JUMPDEST POP PUSH2 0x7F2 PUSH2 0x7ED CALLDATASIZE PUSH1 0x4 PUSH2 0x224A JUMP JUMPDEST PUSH2 0x131E JUMP JUMPDEST PUSH1 0x40 DUP1 MLOAD SWAP3 DUP4 MSTORE PUSH1 0x20 DUP4 ADD SWAP2 SWAP1 SWAP2 MSTORE ADD PUSH2 0x35F JUMP JUMPDEST CALLVALUE DUP1 ISZERO PUSH2 0x813 JUMPI PUSH1 0x0 DUP1 REVERT JUMPDEST POP PUSH2 0x258 PUSH2 0x1493 JUMP JUMPDEST CALLVALUE DUP1 ISZERO PUSH2 0x828 JUMPI PUSH1 0x0 DUP1 REVERT JUMPDEST POP PUSH2 0x45C PUSH2 0x837 CALLDATASIZE PUSH1 0x4 PUSH2 0x20EB JUMP JUMPDEST PUSH1 0x18 PUSH1 0x20 MSTORE PUSH1 0x0 SWAP1 DUP2 MSTORE PUSH1 0x40 SWAP1 KECCAK256 SLOAD PUSH1 0x1 PUSH1 0x1 PUSH1 0xA0 SHL SUB AND DUP2 JUMP JUMPDEST CALLVALUE DUP1 ISZERO PUSH2 0x85E JUMPI PUSH1 0x0 DUP1 REVERT JUMPDEST POP PUSH2 0x258 PUSH2 0x86D CALLDATASIZE PUSH1 0x4 PUSH2 0x209C JUMP JUMPDEST PUSH2 0x14D4 JUMP JUMPDEST PUSH1 0x1 SLOAD PUSH1 0x1 PUSH1 0xA0 SHL SWAP1 DIV PUSH1 0xFF AND ISZERO PUSH2 0x89D JUMPI PUSH1 0x40 MLOAD PUSH4 0xD93C0665 PUSH1 0xE0 SHL DUP2 MSTORE PUSH1 0x4 ADD PUSH1 0x40 MLOAD DUP1 SWAP2 SUB SWAP1 REVERT JUMPDEST JUMP JUMPDEST PUSH1 0x16 DUP1 SLOAD PUSH1 0x0 SWAP2 DUP3 PUSH2 0x8B0 DUP4 PUSH2 0x227F JUMP JUMPDEST SWAP1 SWAP2 SSTORE POP CALLER PUSH1 0x0 DUP2 DUP2 MSTORE PUSH1 0x17 PUSH1 0x20 SWAP1 DUP2 MSTORE PUSH1 0x40 DUP1 DUP4 KECCAK256 DUP6 DUP2 SSTORE TIMESTAMP PUSH1 0x1 DUP3 ADD SSTORE PUSH1 0x2 ADD DUP1 SLOAD PUSH1 0x1 PUSH1 0x1 PUSH1 0xA0 SHL SUB DUP10 AND PUSH1 0x1 PUSH1 0x1 PUSH1 0xA0 SHL SUB NOT SWAP2 DUP3 AND OR SWAP1 SWAP2 SSTORE DUP6 DUP5 MSTORE PUSH1 0x18 SWAP1 SWAP3 MSTORE SWAP1 SWAP2 KECCAK256 DUP1 SLOAD SWAP1 SWAP2 AND SWAP1 SWAP2 OR SWAP1 SSTORE SWAP1 POP PUSH2 0x90E DUP3 PUSH2 0x150F JUMP JUMPDEST PUSH1 0x3 SLOAD PUSH1 0x40 MLOAD PUSH1 0x0 SWAP2 PUSH1 0x1 PUSH1 0x1 PUSH1 0xA0 SHL SUB AND SWAP1 CALLVALUE SWAP1 DUP4 DUP2 DUP2 DUP2 DUP6 DUP8 GAS CALL SWAP3 POP POP POP RETURNDATASIZE DUP1 PUSH1 0x0 DUP2 EQ PUSH2 0x95B JUMPI PUSH1 0x40 MLOAD SWAP2 POP PUSH1 0x1F NOT PUSH1 0x3F RETURNDATASIZE ADD AND DUP3 ADD PUSH1 0x40 MSTORE RETURNDATASIZE DUP3 MSTORE RETURNDATASIZE PUSH1 0x0 PUSH1 0x20 DUP5 ADD RETURNDATACOPY PUSH2 0x960 JUMP JUMPDEST PUSH1 0x60 SWAP2 POP JUMPDEST POP POP SWAP1 POP DUP1 PUSH2 0x9BD JUMPI PUSH1 0x40 MLOAD PUSH3 0x461BCD PUSH1 0xE5 SHL DUP2 MSTORE PUSH1 0x20 PUSH1 0x4 DUP3 ADD MSTORE PUSH1 0x23 PUSH1 0x24 DUP3 ADD MSTORE PUSH32 0x424E42207472616E7366657220746F20746F6B656E206275726E657220666169 PUSH1 0x44 DUP3 ADD MSTORE PUSH3 0x1B1959 PUSH1 0xEA SHL PUSH1 0x64 DUP3 ADD MSTORE PUSH1 0x84 ADD PUSH2 0x213 JUMP JUMPDEST PUSH1 0x1B DUP1 SLOAD SWAP1 PUSH1 0x0 PUSH2 0x9CD DUP4 PUSH2 0x227F JUMP JUMPDEST SWAP1 SWAP2 SSTORE POP POP PUSH1 0x1C DUP1 SLOAD SWAP1 PUSH1 0x0 PUSH2 0x9E2 DUP4 PUSH2 0x227F JUMP JUMPDEST SWAP1 SWAP2 SSTORE POP POP PUSH1 0x1 PUSH1 0x1 PUSH1 0xA0 SHL SUB DUP4 AND PUSH1 0x0 SWAP1 DUP2 MSTORE PUSH1 0x17 PUSH1 0x20 MSTORE PUSH1 0x40 DUP1 DUP3 KECCAK256 SLOAD SWAP1 MLOAD CALLER SWAP3 DUP6 SWAP2 PUSH32 0xD16B9E23EBCBB63125B93BAE9F6AB7816D405E981078401E617B7C0AF255806C SWAP2 SWAP1 LOG4 POP POP POP JUMP JUMPDEST PUSH2 0xA38 PUSH2 0x1595 JUMP JUMPDEST CALLER PUSH1 0x0 SWAP1 DUP2 MSTORE PUSH1 0x17 PUSH1 0x20 MSTORE PUSH1 0x40 SWAP1 KECCAK256 SLOAD PUSH2 0xA8A JUMPI PUSH1 0x40 MLOAD PUSH3 0x461BCD PUSH1 0xE5 SHL DUP2 MSTORE PUSH1 0x20 PUSH1 0x4 DUP3 ADD MSTORE PUSH1 0x13 PUSH1 0x24 DUP3 ADD MSTORE PUSH19 0x155CD95C881B9BDD081C9959DA5CDD195C9959 PUSH1 0x6A SHL PUSH1 0x44 DUP3 ADD MSTORE PUSH1 0x64 ADD PUSH2 0x213 JUMP JUMPDEST DUP1 PUSH1 0x0 DUP2 PUSH1 0xFF AND GT DUP1 ISZERO PUSH2 0xAA2 JUMPI POP PUSH1 0x10 PUSH1 0xFF DUP3 AND GT ISZERO JUMPDEST PUSH2 0xADE JUMPI PUSH1 0x40 MLOAD PUSH3 0x461BCD PUSH1 0xE5 SHL DUP2 MSTORE PUSH1 0x20 PUSH1 0x4 DUP3 ADD MSTORE PUSH1 0xD PUSH1 0x24 DUP3 ADD MSTORE PUSH13 0x125B9D985B1A59081B195D995B PUSH1 0x9A SHL PUSH1 0x44 DUP3 ADD MSTORE PUSH1 0x64 ADD PUSH2 0x213 JUMP JUMPDEST PUSH2 0xAE6 PUSH2 0x872 JUMP JUMPDEST CALLER EXTCODESIZE ISZERO PUSH2 0xB05 JUMPI PUSH1 0x40 MLOAD PUSH3 0x461BCD PUSH1 0xE5 SHL DUP2 MSTORE PUSH1 0x4 ADD PUSH2 0x213 SWAP1 PUSH2 0x1FD5 JUMP JUMPDEST CALLVALUE PUSH1 0x4 DUP4 PUSH1 0xFF AND PUSH1 0x11 DUP2 LT PUSH2 0xB1C JUMPI PUSH2 0xB1C PUSH2 0x2004 JUMP JUMPDEST ADD SLOAD EQ PUSH2 0xB6B JUMPI PUSH1 0x40 MLOAD PUSH3 0x461BCD PUSH1 0xE5 SHL DUP2 MSTORE PUSH1 0x20 PUSH1 0x4 DUP3 ADD MSTORE PUSH1 0x1C PUSH1 0x24 DUP3 ADD MSTORE PUSH32 0x496E76616C696420424E4220616D6F756E7420666F72206C6576656C00000000 PUSH1 0x44 DUP3 ADD MSTORE PUSH1 0x64 ADD PUSH2 0x213 JUMP JUMPDEST PUSH1 0xFF DUP3 AND PUSH1 0x0 SWAP1 DUP2 MSTORE PUSH1 0x15 PUSH1 0x20 MSTORE PUSH1 0x40 SWAP1 KECCAK256 SLOAD PUSH1 0x1B SLOAD LT ISZERO PUSH2 0xBC5 JUMPI PUSH1 0x40 MLOAD PUSH3 0x461BCD PUSH1 0xE5 SHL DUP2 MSTORE PUSH1 0x20 PUSH1 0x4 DUP3 ADD MSTORE PUSH1 0x13 PUSH1 0x24 DUP3 ADD MSTORE PUSH19 0x4C6576656C206E6F7420617661696C61626C65 PUSH1 0x68 SHL PUSH1 0x44 DUP3 ADD MSTORE PUSH1 0x64 ADD PUSH2 0x213 JUMP JUMPDEST PUSH1 0x1 JUMPDEST DUP3 PUSH1 0xFF AND DUP2 PUSH1 0xFF AND LT ISZERO PUSH2 0xC61 JUMPI CALLER PUSH1 0x0 SWAP1 DUP2 MSTORE PUSH1 0x17 PUSH1 0x20 SWAP1 DUP2 MSTORE PUSH1 0x40 DUP1 DUP4 KECCAK256 PUSH1 0xFF DUP1 DUP7 AND DUP6 MSTORE PUSH1 0x7 SWAP1 SWAP2 ADD SWAP1 SWAP3 MSTORE SWAP1 SWAP2 KECCAK256 SLOAD PUSH1 0x1 PUSH1 0x30 SHL SWAP1 DIV AND PUSH2 0xC4F JUMPI PUSH1 0x40 MLOAD PUSH3 0x461BCD PUSH1 0xE5 SHL DUP2 MSTORE PUSH1 0x20 PUSH1 0x4 DUP3 ADD MSTORE PUSH1 0x1E PUSH1 0x24 DUP3 ADD MSTORE PUSH32 0x50726576696F7573206C6576656C73206D757374206265206163746976650000 PUSH1 0x44 DUP3 ADD MSTORE PUSH1 0x64 ADD PUSH2 0x213 JUMP JUMPDEST DUP1 PUSH2 0xC59 DUP2 PUSH2 0x2030 JUMP JUMPDEST SWAP2 POP POP PUSH2 0xBC8 JUMP JUMPDEST POP PUSH1 0x1C DUP1 SLOAD SWAP1 PUSH1 0x0 PUSH2 0xC72 DUP4 PUSH2 0x227F JUMP JUMPDEST SWAP2 SWAP1 POP SSTORE POP CALLVALUE PUSH1 0x1B PUSH1 0x2 ADD PUSH1 0x0 DUP3 DUP3 SLOAD PUSH2 0xC8C SWAP2 SWAP1 PUSH2 0x2298 JUMP JUMPDEST SWAP1 SWAP2 SSTORE POP PUSH2 0xC9B SWAP1 POP DUP3 PUSH2 0x15BF JUMP JUMPDEST PUSH2 0xCA4 DUP3 PUSH2 0x1792 JUMP JUMPDEST PUSH2 0xCAD DUP3 PUSH2 0x191F JUMP JUMPDEST POP PUSH2 0xCB8 PUSH1 0x1 PUSH1 0x0 SSTORE JUMP JUMPDEST POP JUMP JUMPDEST PUSH2 0xCC3 PUSH2 0x872 JUMP JUMPDEST PUSH2 0x89D PUSH2 0x6B6 PUSH1 0x1 SLOAD PUSH1 0x1 PUSH1 0x1 PUSH1 0xA0 SHL SUB AND SWAP1 JUMP JUMPDEST PUSH2 0xCE0 PUSH2 0x1FB6 JUMP JUMPDEST PUSH1 0x40 DUP1 MLOAD PUSH2 0x220 DUP2 ADD SWAP2 DUP3 SWAP1 MSTORE SWAP1 PUSH1 0x4 SWAP1 PUSH1 0x11 SWAP1 DUP3 DUP5 JUMPDEST DUP2 SLOAD DUP2 MSTORE PUSH1 0x20 ADD SWAP1 PUSH1 0x1 ADD SWAP1 DUP1 DUP4 GT PUSH2 0xCF7 JUMPI POP POP POP POP POP SWAP1 POP SWAP1 JUMP JUMPDEST PUSH2 0xD1C PUSH2 0x1994 JUMP JUMPDEST PUSH2 0x89D PUSH2 0x19C1 JUMP JUMPDEST PUSH1 0x4 DUP2 PUSH1 0x11 DUP2 LT PUSH2 0xD34 JUMPI PUSH1 0x0 DUP1 REVERT JUMPDEST ADD SLOAD SWAP1 POP DUP2 JUMP JUMPDEST PUSH1 0x19 PUSH1 0x20 MSTORE DUP2 PUSH1 0x0 MSTORE PUSH1 0x40 PUSH1 0x0 KECCAK256 DUP2 DUP2 SLOAD DUP2 LT PUSH2 0xD57 JUMPI PUSH1 0x0 DUP1 REVERT JUMPDEST PUSH1 0x0 SWAP2 DUP3 MSTORE PUSH1 0x20 SWAP1 SWAP2 KECCAK256 ADD SLOAD PUSH1 0x1 PUSH1 0x1 PUSH1 0xA0 SHL SUB AND SWAP2 POP DUP3 SWAP1 POP JUMP JUMPDEST PUSH2 0xD7B PUSH2 0x1994 JUMP JUMPDEST PUSH2 0x89D PUSH1 0x0 PUSH2 0x1A16 JUMP JUMPDEST PUSH2 0xD8D PUSH2 0x1994 JUMP JUMPDEST PUSH2 0x89D PUSH2 0x1A68 JUMP JUMPDEST PUSH2 0xD9D PUSH2 0x872 JUMP JUMPDEST CALLER EXTCODESIZE ISZERO PUSH2 0xDBC JUMPI PUSH1 0x40 MLOAD PUSH3 0x461BCD PUSH1 0xE5 SHL DUP2 MSTORE PUSH1 0x4 ADD PUSH2 0x213 SWAP1 PUSH2 0x1FD5 JUMP JUMPDEST PUSH7 0x58D15E17628000 CALLVALUE EQ PUSH2 0xE22 JUMPI PUSH1 0x40 MLOAD PUSH3 0x461BCD PUSH1 0xE5 SHL DUP2 MSTORE PUSH1 0x20 PUSH1 0x4 DUP3 ADD MSTORE PUSH1 0x27 PUSH1 0x24 DUP3 ADD MSTORE PUSH32 0x53656E642065786163746C7920302E30323520424E4220666F72207265676973 PUSH1 0x44 DUP3 ADD MSTORE PUSH7 0x3A3930BA34B7B7 PUSH1 0xC9 SHL PUSH1 0x64 DUP3 ADD MSTORE PUSH1 0x84 ADD PUSH2 0x213 JUMP JUMPDEST PUSH1 0x1 PUSH1 0x1 PUSH1 0xA0 SHL SUB DUP2 AND PUSH1 0x0 SWAP1 DUP2 MSTORE PUSH1 0x17 PUSH1 0x20 MSTORE PUSH1 0x40 SWAP1 KECCAK256 SLOAD PUSH2 0xE87 JUMPI PUSH1 0x40 MLOAD PUSH3 0x461BCD PUSH1 0xE5 SHL DUP2 MSTORE PUSH1 0x20 PUSH1 0x4 DUP3 ADD MSTORE PUSH1 0x17 PUSH1 0x24 DUP3 ADD MSTORE PUSH32 0x5265666572726572206E6F742072656769737465726564000000000000000000 PUSH1 0x44 DUP3 ADD MSTORE PUSH1 0x64 ADD PUSH2 0x213 JUMP JUMPDEST CALLER PUSH1 0x0 SWAP1 DUP2 MSTORE PUSH1 0x17 PUSH1 0x20 MSTORE PUSH1 0x40 SWAP1 KECCAK256 SLOAD ISZERO PUSH2 0xED9 JUMPI PUSH1 0x40 MLOAD PUSH3 0x461BCD PUSH1 0xE5 SHL DUP2 MSTORE PUSH1 0x20 PUSH1 0x4 DUP3 ADD MSTORE PUSH1 0x12 PUSH1 0x24 DUP3 ADD MSTORE PUSH18 0x105B1C9958591E481C9959DA5CDD195C9959 PUSH1 0x72 SHL PUSH1 0x44 DUP3 ADD MSTORE PUSH1 0x64 ADD PUSH2 0x213 JUMP JUMPDEST PUSH2 0xCB8 DUP2 PUSH2 0x89F JUMP JUMPDEST PUSH1 0x60 DUP1 DUP1 DUP1 DUP1 DUP1 PUSH2 0xEF5 PUSH1 0x10 PUSH1 0x1 PUSH2 0x22AB JUMP JUMPDEST PUSH1 0xFF AND PUSH8 0xFFFFFFFFFFFFFFFF DUP2 GT ISZERO PUSH2 0xF10 JUMPI PUSH2 0xF10 PUSH2 0x22C4 JUMP JUMPDEST PUSH1 0x40 MLOAD SWAP1 DUP1 DUP3 MSTORE DUP1 PUSH1 0x20 MUL PUSH1 0x20 ADD DUP3 ADD PUSH1 0x40 MSTORE DUP1 ISZERO PUSH2 0xF39 JUMPI DUP2 PUSH1 0x20 ADD PUSH1 0x20 DUP3 MUL DUP1 CALLDATASIZE DUP4 CALLDATACOPY ADD SWAP1 POP JUMPDEST POP SWAP6 POP PUSH2 0xF48 PUSH1 0x10 PUSH1 0x1 PUSH2 0x22AB JUMP JUMPDEST PUSH1 0xFF AND PUSH8 0xFFFFFFFFFFFFFFFF DUP2 GT ISZERO PUSH2 0xF63 JUMPI PUSH2 0xF63 PUSH2 0x22C4 JUMP JUMPDEST PUSH1 0x40 MLOAD SWAP1 DUP1 DUP3 MSTORE DUP1 PUSH1 0x20 MUL PUSH1 0x20 ADD DUP3 ADD PUSH1 0x40 MSTORE DUP1 ISZERO PUSH2 0xF8C JUMPI DUP2 PUSH1 0x20 ADD PUSH1 0x20 DUP3 MUL DUP1 CALLDATASIZE DUP4 CALLDATACOPY ADD SWAP1 POP JUMPDEST POP SWAP5 POP PUSH2 0xF9B PUSH1 0x10 PUSH1 0x1 PUSH2 0x22AB JUMP JUMPDEST PUSH1 0xFF AND PUSH8 0xFFFFFFFFFFFFFFFF DUP2 GT ISZERO PUSH2 0xFB6 JUMPI PUSH2 0xFB6 PUSH2 0x22C4 JUMP JUMPDEST PUSH1 0x40 MLOAD SWAP1 DUP1 DUP3 MSTORE DUP1 PUSH1 0x20 MUL PUSH1 0x20 ADD DUP3 ADD PUSH1 0x40 MSTORE DUP1 ISZERO PUSH2 0xFDF JUMPI DUP2 PUSH1 0x20 ADD PUSH1 0x20 DUP3 MUL DUP1 CALLDATASIZE DUP4 CALLDATACOPY ADD SWAP1 POP JUMPDEST POP SWAP4 POP PUSH2 0xFEE PUSH1 0x10 PUSH1 0x1 PUSH2 0x22AB JUMP JUMPDEST PUSH1 0xFF AND PUSH8 0xFFFFFFFFFFFFFFFF DUP2 GT ISZERO PUSH2 0x1009 JUMPI PUSH2 0x1009 PUSH2 0x22C4 JUMP JUMPDEST PUSH1 0x40 MLOAD SWAP1 DUP1 DUP3 MSTORE DUP1 PUSH1 0x20 MUL PUSH1 0x20 ADD DUP3 ADD PUSH1 0x40 MSTORE DUP1 ISZERO PUSH2 0x1032 JUMPI DUP2 PUSH1 0x20 ADD PUSH1 0x20 DUP3 MUL DUP1 CALLDATASIZE DUP4 CALLDATACOPY ADD SWAP1 POP JUMPDEST POP SWAP3 POP PUSH2 0x1041 PUSH1 0x10 PUSH1 0x1 PUSH2 0x22AB JUMP JUMPDEST PUSH1 0xFF AND PUSH8 0xFFFFFFFFFFFFFFFF DUP2 GT ISZERO PUSH2 0x105C JUMPI PUSH2 0x105C PUSH2 0x22C4 JUMP JUMPDEST PUSH1 0x40 MLOAD SWAP1 DUP1 DUP3 MSTORE DUP1 PUSH1 0x20 MUL PUSH1 0x20 ADD DUP3 ADD PUSH1 0x40 MSTORE DUP1 ISZERO PUSH2 0x1085 JUMPI DUP2 PUSH1 0x20 ADD PUSH1 0x20 DUP3 MUL DUP1 CALLDATASIZE DUP4 CALLDATACOPY ADD SWAP1 POP JUMPDEST POP SWAP2 POP PUSH2 0x1094 PUSH1 0x10 PUSH1 0x1 PUSH2 0x22AB JUMP JUMPDEST PUSH1 0xFF AND PUSH8 0xFFFFFFFFFFFFFFFF DUP2 GT ISZERO PUSH2 0x10AF JUMPI PUSH2 0x10AF PUSH2 0x22C4 JUMP JUMPDEST PUSH1 0x40 MLOAD SWAP1 DUP1 DUP3 MSTORE DUP1 PUSH1 0x20 MUL PUSH1 0x20 ADD DUP3 ADD PUSH1 0x40 MSTORE DUP1 ISZERO PUSH2 0x10D8 JUMPI DUP2 PUSH1 0x20 ADD PUSH1 0x20 DUP3 MUL DUP1 CALLDATASIZE DUP4 CALLDATACOPY ADD SWAP1 POP JUMPDEST POP SWAP1 POP PUSH1 0x1 JUMPDEST PUSH1 0x10 PUSH1 0xFF DUP3 AND GT PUSH2 0x1248 JUMPI PUSH1 0x1 PUSH1 0x1 PUSH1 0xA0 SHL SUB DUP9 AND PUSH1 0x0 SWAP1 DUP2 MSTORE PUSH1 0x17 PUSH1 0x20 SWAP1 DUP2 MSTORE PUSH1 0x40 DUP1 DUP4 KECCAK256 PUSH1 0xFF DUP1 DUP7 AND DUP1 DUP7 MSTORE PUSH1 0x7 SWAP1 SWAP3 ADD SWAP1 SWAP4 MSTORE SWAP3 KECCAK256 DUP1 SLOAD DUP11 MLOAD SWAP2 SWAP4 PUSH1 0x1 PUSH1 0x30 SHL SWAP1 SWAP2 DIV SWAP1 SWAP3 AND SWAP2 DUP11 SWAP2 DUP2 LT PUSH2 0x1138 JUMPI PUSH2 0x1138 PUSH2 0x2004 JUMP JUMPDEST PUSH1 0x20 MUL PUSH1 0x20 ADD ADD SWAP1 ISZERO ISZERO SWAP1 DUP2 ISZERO ISZERO DUP2 MSTORE POP POP DUP1 PUSH1 0x0 ADD PUSH1 0x4 SWAP1 SLOAD SWAP1 PUSH2 0x100 EXP SWAP1 DIV PUSH2 0xFFFF AND DUP8 DUP4 PUSH1 0xFF AND DUP2 MLOAD DUP2 LT PUSH2 0x1172 JUMPI PUSH2 0x1172 PUSH2 0x2004 JUMP JUMPDEST PUSH2 0xFFFF SWAP3 DUP4 AND PUSH1 0x20 SWAP2 DUP3 MUL SWAP3 SWAP1 SWAP3 ADD ADD MSTORE DUP2 SLOAD DUP8 MLOAD PUSH3 0x10000 SWAP1 SWAP2 DIV SWAP1 SWAP2 AND SWAP1 DUP8 SWAP1 PUSH1 0xFF DUP6 AND SWAP1 DUP2 LT PUSH2 0x11A7 JUMPI PUSH2 0x11A7 PUSH2 0x2004 JUMP JUMPDEST PUSH2 0xFFFF SWAP3 DUP4 AND PUSH1 0x20 SWAP2 DUP3 MUL SWAP3 SWAP1 SWAP3 ADD ADD MSTORE DUP2 SLOAD DUP7 MLOAD SWAP2 AND SWAP1 DUP7 SWAP1 PUSH1 0xFF DUP6 AND SWAP1 DUP2 LT PUSH2 0x11D4 JUMPI PUSH2 0x11D4 PUSH2 0x2004 JUMP JUMPDEST PUSH1 0x20 MUL PUSH1 0x20 ADD ADD SWAP1 PUSH2 0xFFFF AND SWAP1 DUP2 PUSH2 0xFFFF AND DUP2 MSTORE POP POP DUP1 PUSH1 0x1 ADD SLOAD DUP5 DUP4 PUSH1 0xFF AND DUP2 MLOAD DUP2 LT PUSH2 0x1204 JUMPI PUSH2 0x1204 PUSH2 0x2004 JUMP JUMPDEST PUSH1 0x20 MUL PUSH1 0x20 ADD ADD DUP2 DUP2 MSTORE POP POP DUP1 PUSH1 0x2 ADD SLOAD DUP4 DUP4 PUSH1 0xFF AND DUP2 MLOAD DUP2 LT PUSH2 0x122A JUMPI PUSH2 0x122A PUSH2 0x2004 JUMP JUMPDEST PUSH1 0x20 SWAP1 DUP2 MUL SWAP2 SWAP1 SWAP2 ADD ADD MSTORE POP DUP1 PUSH2 0x1240 DUP2 PUSH2 0x2030 JUMP JUMPDEST SWAP2 POP POP PUSH2 0x10DE JUMP JUMPDEST POP SWAP2 SWAP4 SWAP6 POP SWAP2 SWAP4 SWAP6 JUMP JUMPDEST PUSH2 0x125A PUSH2 0x1994 JUMP JUMPDEST PUSH1 0x1 PUSH1 0x1 PUSH1 0xA0 SHL SUB DUP2 AND PUSH2 0x12A2 JUMPI PUSH1 0x40 MLOAD PUSH3 0x461BCD PUSH1 0xE5 SHL DUP2 MSTORE PUSH1 0x20 PUSH1 0x4 DUP3 ADD MSTORE PUSH1 0xF PUSH1 0x24 DUP3 ADD MSTORE PUSH15 0x496E76616C69642061646472657373 PUSH1 0x88 SHL PUSH1 0x44 DUP3 ADD MSTORE PUSH1 0x64 ADD PUSH2 0x213 JUMP JUMPDEST PUSH1 0x3 DUP1 SLOAD PUSH1 0x1 PUSH1 0x1 PUSH1 0xA0 SHL SUB DUP4 DUP2 AND PUSH1 0x1 PUSH1 0x1 PUSH1 0xA0 SHL SUB NOT DUP4 AND DUP2 OR SWAP1 SWAP4 SSTORE PUSH1 0x40 MLOAD SWAP2 AND SWAP2 SWAP1 DUP3 SWAP1 PUSH32 0xF1F34E0FC899850DC916E4128492F6CB73A06C53BAE553FB09883F5DADF061D8 SWAP1 PUSH1 0x0 SWAP1 LOG3 POP POP JUMP JUMPDEST PUSH1 0x2 DUP2 PUSH1 0x4 DUP2 LT PUSH2 0x1304 JUMPI PUSH1 0x0 DUP1 REVERT JUMPDEST PUSH1 0x20 SWAP2 DUP3 DUP3 DIV ADD SWAP2 SWAP1 MOD SWAP2 POP SLOAD SWAP1 PUSH2 0x100 EXP SWAP1 DIV PUSH1 0xFF AND DUP2 JUMP JUMPDEST PUSH1 0x0 DUP1 DUP3 PUSH1 0x0 DUP2 PUSH1 0xFF AND GT DUP1 ISZERO PUSH2 0x1339 JUMPI POP PUSH1 0x10 PUSH1 0xFF DUP3 AND GT ISZERO JUMPDEST PUSH2 0x1375 JUMPI PUSH1 0x40 MLOAD PUSH3 0x461BCD PUSH1 0xE5 SHL DUP2 MSTORE PUSH1 0x20 PUSH1 0x4 DUP3 ADD MSTORE PUSH1 0xD PUSH1 0x24 DUP3 ADD MSTORE PUSH13 0x125B9D985B1A59081B195D995B PUSH1 0x9A SHL PUSH1 0x44 DUP3 ADD MSTORE PUSH1 0x64 ADD PUSH2 0x213 JUMP JUMPDEST PUSH1 0x1 PUSH1 0x1 PUSH1 0xA0 SHL SUB DUP6 AND PUSH1 0x0 SWAP1 DUP2 MSTORE PUSH1 0x17 PUSH1 0x20 SWAP1 DUP2 MSTORE PUSH1 0x40 DUP1 DUP4 KECCAK256 PUSH1 0xFF DUP1 DUP10 AND DUP6 MSTORE PUSH1 0x7 SWAP1 SWAP2 ADD SWAP1 SWAP3 MSTORE SWAP1 SWAP2 KECCAK256 SLOAD PUSH1 0x1 PUSH1 0x30 SHL SWAP1 DIV AND PUSH2 0x13BB JUMPI PUSH1 0x0 DUP1 SWAP3 POP SWAP3 POP PUSH2 0x148B JUMP JUMPDEST PUSH1 0xFF DUP5 AND PUSH1 0x0 SWAP1 DUP2 MSTORE PUSH1 0x1A PUSH1 0x20 SWAP1 DUP2 MSTORE PUSH1 0x40 DUP1 DUP4 KECCAK256 SLOAD PUSH1 0x19 SWAP1 SWAP3 MSTORE SWAP1 SWAP2 KECCAK256 SLOAD PUSH2 0x13E4 SWAP2 SWAP1 PUSH2 0x22DA JUMP JUMPDEST PUSH1 0xFF DUP6 AND PUSH1 0x0 SWAP1 DUP2 MSTORE PUSH1 0x1A PUSH1 0x20 MSTORE PUSH1 0x40 SWAP1 KECCAK256 SLOAD SWAP1 SWAP3 POP JUMPDEST PUSH1 0xFF DUP6 AND PUSH1 0x0 SWAP1 DUP2 MSTORE PUSH1 0x19 PUSH1 0x20 MSTORE PUSH1 0x40 SWAP1 KECCAK256 SLOAD DUP2 LT ISZERO PUSH2 0x1485 JUMPI DUP4 PUSH2 0x141F DUP2 PUSH2 0x227F JUMP JUMPDEST PUSH1 0xFF DUP8 AND PUSH1 0x0 SWAP1 DUP2 MSTORE PUSH1 0x19 PUSH1 0x20 MSTORE PUSH1 0x40 SWAP1 KECCAK256 DUP1 SLOAD SWAP2 SWAP7 POP PUSH1 0x1 PUSH1 0x1 PUSH1 0xA0 SHL SUB DUP10 AND SWAP3 POP SWAP1 DUP4 SWAP1 DUP2 LT PUSH2 0x1453 JUMPI PUSH2 0x1453 PUSH2 0x2004 JUMP JUMPDEST PUSH1 0x0 SWAP2 DUP3 MSTORE PUSH1 0x20 SWAP1 SWAP2 KECCAK256 ADD SLOAD PUSH1 0x1 PUSH1 0x1 PUSH1 0xA0 SHL SUB AND SUB PUSH2 0x1473 JUMPI POP PUSH2 0x148B JUMP JUMPDEST DUP1 PUSH2 0x147D DUP2 PUSH2 0x227F JUMP JUMPDEST SWAP2 POP POP PUSH2 0x13FB JUMP JUMPDEST POP PUSH1 0x0 SWAP3 POP JUMPDEST POP SWAP3 POP SWAP3 SWAP1 POP JUMP JUMPDEST PUSH2 0x149B PUSH2 0x1994 JUMP JUMPDEST PUSH1 0x1 SLOAD PUSH1 0x40 MLOAD PUSH1 0x1 PUSH1 0x1 PUSH1 0xA0 SHL SUB SWAP1 SWAP2 AND SWAP1 SELFBALANCE DUP1 ISZERO PUSH2 0x8FC MUL SWAP2 PUSH1 0x0 DUP2 DUP2 DUP2 DUP6 DUP9 DUP9 CALL SWAP4 POP POP POP POP ISZERO DUP1 ISZERO PUSH2 0xCB8 JUMPI RETURNDATASIZE PUSH1 0x0 DUP1 RETURNDATACOPY RETURNDATASIZE PUSH1 0x0 REVERT JUMPDEST PUSH2 0x14DC PUSH2 0x1994 JUMP JUMPDEST PUSH1 0x1 PUSH1 0x1 PUSH1 0xA0 SHL SUB DUP2 AND PUSH2 0x1506 JUMPI PUSH1 0x40 MLOAD PUSH4 0x1E4FBDF7 PUSH1 0xE0 SHL DUP2 MSTORE PUSH1 0x0 PUSH1 0x4 DUP3 ADD MSTORE PUSH1 0x24 ADD PUSH2 0x213 JUMP JUMPDEST PUSH2 0xCB8 DUP2 PUSH2 0x1A16 JUMP JUMPDEST PUSH1 0x1 DUP2 JUMPDEST PUSH1 0x3 PUSH1 0xFF DUP4 AND GT DUP1 ISZERO SWAP1 PUSH2 0x152F JUMPI POP PUSH1 0x1 PUSH1 0x1 PUSH1 0xA0 SHL SUB DUP2 AND ISZERO ISZERO JUMPDEST ISZERO PUSH2 0x1590 JUMPI PUSH1 0x1 PUSH1 0x1 PUSH1 0xA0 SHL SUB DUP2 AND PUSH1 0x0 SWAP1 DUP2 MSTORE PUSH1 0x17 PUSH1 0x20 MSTORE PUSH1 0x40 DUP2 KECCAK256 PUSH1 0x3 ADD DUP1 SLOAD SWAP2 PUSH2 0x155B DUP4 PUSH2 0x227F JUMP JUMPDEST SWAP1 SWAP2 SSTORE POP POP PUSH1 0x1 PUSH1 0x1 PUSH1 0xA0 SHL SUB SWAP1 DUP2 AND PUSH1 0x0 SWAP1 DUP2 MSTORE PUSH1 0x17 PUSH1 0x20 MSTORE PUSH1 0x40 SWAP1 KECCAK256 PUSH1 0x2 ADD SLOAD AND DUP2 PUSH2 0x1588 DUP2 PUSH2 0x2030 JUMP JUMPDEST SWAP3 POP POP PUSH2 0x1513 JUMP JUMPDEST POP POP POP JUMP JUMPDEST PUSH1 0x2 PUSH1 0x0 SLOAD SUB PUSH2 0x15B8 JUMPI PUSH1 0x40 MLOAD PUSH4 0x3EE5AEB5 PUSH1 0xE0 SHL DUP2 MSTORE PUSH1 0x4 ADD PUSH1 0x40 MLOAD DUP1 SWAP2 SUB SWAP1 REVERT JUMPDEST PUSH1 0x2 PUSH1 0x0 SSTORE JUMP JUMPDEST CALLER PUSH1 0x0 SWAP1 DUP2 MSTORE PUSH1 0x17 PUSH1 0x20 SWAP1 DUP2 MSTORE PUSH1 0x40 DUP1 DUP4 KECCAK256 PUSH1 0xFF DUP1 DUP7 AND DUP6 MSTORE PUSH1 0x7 SWAP1 SWAP2 ADD SWAP1 SWAP3 MSTORE SWAP1 SWAP2 KECCAK256 SLOAD PUSH1 0x1 PUSH1 0x30 SHL SWAP1 DIV AND PUSH2 0x168E JUMPI CALLER PUSH1 0x0 DUP2 DUP2 MSTORE PUSH1 0x17 PUSH1 0x20 DUP2 DUP2 MSTORE PUSH1 0x40 DUP1 DUP5 KECCAK256 PUSH1 0xFF DUP8 AND DUP1 DUP7 MSTORE PUSH1 0x7 DUP3 ADD DUP5 MSTORE DUP3 DUP7 KECCAK256 DUP1 SLOAD PUSH7 0xFF0000FFFFFFFF NOT AND PUSH7 0x1000000020001 OR SWAP1 SSTORE PUSH1 0x19 DUP5 MSTORE DUP3 DUP7 KECCAK256 DUP1 SLOAD PUSH1 0x1 DUP2 ADD DUP3 SSTORE SWAP1 DUP8 MSTORE DUP5 DUP8 KECCAK256 ADD DUP1 SLOAD PUSH1 0x1 PUSH1 0x1 PUSH1 0xA0 SHL SUB NOT AND DUP9 OR SWAP1 SSTORE SWAP6 SWAP1 SWAP5 MSTORE SWAP2 DUP2 MSTORE SWAP2 SLOAD SWAP1 MLOAD CALLVALUE DUP2 MSTORE SWAP1 SWAP2 PUSH32 0xB3EE66175CAA7EB8CC743A754465090C36C078D31E7B31A0057133127E6087F5 SWAP2 ADD JUMPDEST PUSH1 0x40 MLOAD DUP1 SWAP2 SUB SWAP1 LOG3 POP JUMP JUMPDEST CALLER PUSH1 0x0 SWAP1 DUP2 MSTORE PUSH1 0x17 PUSH1 0x20 SWAP1 DUP2 MSTORE PUSH1 0x40 DUP1 DUP4 KECCAK256 PUSH1 0xFF DUP6 AND DUP5 MSTORE PUSH1 0x7 ADD SWAP1 SWAP2 MSTORE DUP2 KECCAK256 DUP1 SLOAD PUSH2 0xFFFF AND SWAP2 PUSH2 0x16BE DUP4 PUSH2 0x22ED JUMP JUMPDEST DUP3 SLOAD PUSH2 0x100 SWAP3 SWAP1 SWAP3 EXP PUSH2 0xFFFF DUP2 DUP2 MUL NOT SWAP1 SWAP4 AND SWAP2 DUP4 AND MUL OR SWAP1 SWAP2 SSTORE CALLER PUSH1 0x0 SWAP1 DUP2 MSTORE PUSH1 0x17 PUSH1 0x20 SWAP1 DUP2 MSTORE PUSH1 0x40 DUP1 DUP4 KECCAK256 PUSH1 0xFF DUP8 AND DUP5 MSTORE PUSH1 0x7 ADD SWAP1 SWAP2 MSTORE SWAP1 KECCAK256 DUP1 SLOAD PUSH1 0x2 SWAP4 POP SWAP1 SWAP2 DUP4 SWAP2 PUSH2 0x1715 SWAP2 DUP4 SWAP2 PUSH3 0x10000 SWAP1 DIV AND PUSH2 0x230E JUMP JUMPDEST DUP3 SLOAD PUSH2 0x100 SWAP3 SWAP1 SWAP3 EXP PUSH2 0xFFFF DUP2 DUP2 MUL NOT SWAP1 SWAP4 AND SWAP2 DUP4 AND MUL OR SWAP1 SWAP2 SSTORE CALLER PUSH1 0x0 SWAP1 DUP2 MSTORE PUSH1 0x17 PUSH1 0x20 SWAP1 DUP2 MSTORE PUSH1 0x40 DUP1 DUP4 KECCAK256 DUP1 SLOAD PUSH1 0xFF DUP9 AND DUP1 DUP7 MSTORE PUSH1 0x7 SWAP1 SWAP3 ADD DUP5 MSTORE SWAP4 DUP3 SWAP1 KECCAK256 SLOAD SWAP2 MLOAD PUSH3 0x10000 SWAP1 SWAP3 DIV SWAP1 SWAP5 AND DUP2 MSTORE SWAP3 SWAP4 POP SWAP1 SWAP2 PUSH32 0xF164F79CCC8F5723EF68F84771DE9A921C6BA456D540317EA133DF467E3F8E6A SWAP2 ADD PUSH2 0x1683 JUMP JUMPDEST PUSH1 0x0 PUSH1 0x64 PUSH2 0x17A1 PUSH1 0x4A CALLVALUE PUSH2 0x2330 JUMP JUMPDEST PUSH2 0x17AB SWAP2 SWAP1 PUSH2 0x2347 JUMP JUMPDEST PUSH1 0xFF DUP4 AND PUSH1 0x0 SWAP1 DUP2 MSTORE PUSH1 0x19 PUSH1 0x20 SWAP1 DUP2 MSTORE PUSH1 0x40 DUP1 DUP4 KECCAK256 PUSH1 0x1A SWAP1 SWAP3 MSTORE DUP3 KECCAK256 SLOAD DUP2 SLOAD SWAP4 SWAP5 POP SWAP2 SWAP3 SWAP1 SWAP2 SWAP1 DUP2 LT PUSH2 0x17E0 JUMPI PUSH2 0x17E0 PUSH2 0x2004 JUMP JUMPDEST PUSH1 0x0 SWAP2 DUP3 MSTORE PUSH1 0x20 SWAP1 SWAP2 KECCAK256 ADD SLOAD PUSH1 0x1 PUSH1 0x1 PUSH1 0xA0 SHL SUB AND SWAP1 POP CALLER DUP2 EQ PUSH2 0x187B JUMPI PUSH2 0x1808 DUP2 DUP4 PUSH2 0x1AAB JUMP JUMPDEST PUSH2 0x1813 DUP2 DUP5 DUP5 PUSH2 0x1B46 JUMP JUMPDEST PUSH2 0x181D DUP2 DUP5 PUSH2 0x1BBC JUMP JUMPDEST CALLER PUSH1 0x0 SWAP1 DUP2 MSTORE PUSH1 0x17 PUSH1 0x20 SWAP1 DUP2 MSTORE PUSH1 0x40 DUP1 DUP4 KECCAK256 SLOAD PUSH1 0x1 PUSH1 0x1 PUSH1 0xA0 SHL SUB DUP6 AND DUP5 MSTORE SWAP3 DUP2 SWAP1 KECCAK256 SLOAD SWAP1 MLOAD DUP6 DUP2 MSTORE PUSH1 0xFF DUP8 AND SWAP3 PUSH32 0xB970429B721AAB5042EFE513B75B71CD07615FDFF866744E3D07DFE5998FFC66 SWAP2 ADD PUSH1 0x40 MLOAD DUP1 SWAP2 SUB SWAP1 LOG4 PUSH2 0x18B2 JUMP JUMPDEST PUSH2 0x1896 PUSH2 0x1890 PUSH1 0x1 SLOAD PUSH1 0x1 PUSH1 0x1 PUSH1 0xA0 SHL SUB AND SWAP1 JUMP JUMPDEST DUP4 PUSH2 0x1AAB JUMP JUMPDEST PUSH2 0x18B2 PUSH2 0x18AB PUSH1 0x1 SLOAD PUSH1 0x1 PUSH1 0x1 PUSH1 0xA0 SHL SUB AND SWAP1 JUMP JUMPDEST DUP5 DUP5 PUSH2 0x1B46 JUMP JUMPDEST PUSH1 0xFF DUP4 AND PUSH1 0x0 SWAP1 DUP2 MSTORE PUSH1 0x19 PUSH1 0x20 SWAP1 DUP2 MSTORE PUSH1 0x40 DUP1 DUP4 KECCAK256 PUSH1 0x1A SWAP1 SWAP3 MSTORE SWAP1 SWAP2 KECCAK256 SLOAD DUP2 SLOAD DUP2 LT PUSH2 0x18E0 JUMPI PUSH2 0x18E0 PUSH2 0x2004 JUMP JUMPDEST PUSH1 0x0 SWAP2 DUP3 MSTORE PUSH1 0x20 DUP1 DUP4 KECCAK256 SWAP1 SWAP2 ADD DUP1 SLOAD PUSH1 0x1 PUSH1 0x1 PUSH1 0xA0 SHL SUB NOT AND SWAP1 SSTORE PUSH1 0xFF DUP6 AND DUP3 MSTORE PUSH1 0x1A SWAP1 MSTORE PUSH1 0x40 DUP2 KECCAK256 DUP1 SLOAD SWAP2 PUSH2 0x1915 DUP4 PUSH2 0x227F JUMP JUMPDEST SWAP2 SWAP1 POP SSTORE POP POP POP POP JUMP JUMPDEST PUSH1 0x0 PUSH2 0x192C PUSH1 0x64 CALLVALUE PUSH2 0x2347 JUMP JUMPDEST SWAP1 POP PUSH1 0x1 JUMPDEST PUSH1 0x3 PUSH1 0xFF DUP3 AND GT PUSH2 0x1590 JUMPI PUSH1 0x0 PUSH1 0x2 DUP3 PUSH1 0xFF AND PUSH1 0x4 DUP2 LT PUSH2 0x1954 JUMPI PUSH2 0x1954 PUSH2 0x2004 JUMP JUMPDEST PUSH1 0x20 DUP2 DIV SWAP2 SWAP1 SWAP2 ADD SLOAD PUSH2 0x1973 SWAP2 PUSH1 0x1F AND PUSH2 0x100 EXP SWAP1 DIV PUSH1 0xFF AND DUP5 PUSH2 0x2330 JUMP JUMPDEST SWAP1 POP PUSH2 0x1981 CALLER DUP4 DUP7 DUP5 PUSH2 0x1D0E JUMP JUMPDEST POP DUP1 PUSH2 0x198C DUP2 PUSH2 0x2030 JUMP JUMPDEST SWAP2 POP POP PUSH2 0x1931 JUMP JUMPDEST PUSH1 0x1 SLOAD PUSH1 0x1 PUSH1 0x1 PUSH1 0xA0 SHL SUB AND CALLER EQ PUSH2 0x89D JUMPI PUSH1 0x40 MLOAD PUSH4 0x118CDAA7 PUSH1 0xE0 SHL DUP2 MSTORE CALLER PUSH1 0x4 DUP3 ADD MSTORE PUSH1 0x24 ADD PUSH2 0x213 JUMP JUMPDEST PUSH2 0x19C9 PUSH2 0x1F04 JUMP JUMPDEST PUSH1 0x1 DUP1 SLOAD PUSH1 0xFF PUSH1 0xA0 SHL NOT AND SWAP1 SSTORE PUSH32 0x5DB9EE0A495BF2E6FF9C91A7834C1BA4FDD244A5E8AA4E537BD38AEAE4B073AA CALLER JUMPDEST PUSH1 0x40 MLOAD PUSH1 0x1 PUSH1 0x1 PUSH1 0xA0 SHL SUB SWAP1 SWAP2 AND DUP2 MSTORE PUSH1 0x20 ADD PUSH1 0x40 MLOAD DUP1 SWAP2 SUB SWAP1 LOG1 JUMP JUMPDEST PUSH1 0x1 DUP1 SLOAD PUSH1 0x1 PUSH1 0x1 PUSH1 0xA0 SHL SUB DUP4 DUP2 AND PUSH1 0x1 PUSH1 0x1 PUSH1 0xA0 SHL SUB NOT DUP4 AND DUP2 OR SWAP1 SWAP4 SSTORE PUSH1 0x40 MLOAD SWAP2 AND SWAP2 SWAP1 DUP3 SWAP1 PUSH32 0x8BE0079C531659141344CD1FD0A4F28419497F9722A3DAAFE3B4186F6B6457E0 SWAP1 PUSH1 0x0 SWAP1 LOG3 POP POP JUMP JUMPDEST PUSH2 0x1A70 PUSH2 0x872 JUMP JUMPDEST PUSH1 0x1 DUP1 SLOAD PUSH1 0xFF PUSH1 0xA0 SHL NOT AND PUSH1 0x1 PUSH1 0xA0 SHL OR SWAP1 SSTORE PUSH32 0x62E78CEA01BEE320CD4E420270B5EA74000D11B0C9F74754EBDBFC544B05A258 PUSH2 0x19F9 CALLER SWAP1 JUMP JUMPDEST PUSH1 0x0 DUP3 PUSH1 0x1 PUSH1 0x1 PUSH1 0xA0 SHL SUB AND DUP3 PUSH1 0x40 MLOAD PUSH1 0x0 PUSH1 0x40 MLOAD DUP1 DUP4 SUB DUP2 DUP6 DUP8 GAS CALL SWAP3 POP POP POP RETURNDATASIZE DUP1 PUSH1 0x0 DUP2 EQ PUSH2 0x1AF8 JUMPI PUSH1 0x40 MLOAD SWAP2 POP PUSH1 0x1F NOT PUSH1 0x3F RETURNDATASIZE ADD AND DUP3 ADD PUSH1 0x40 MSTORE RETURNDATASIZE DUP3 MSTORE RETURNDATASIZE PUSH1 0x0 PUSH1 0x20 DUP5 ADD RETURNDATACOPY PUSH2 0x1AFD JUMP JUMPDEST PUSH1 0x60 SWAP2 POP JUMPDEST POP POP SWAP1 POP DUP1 PUSH2 0x1590 JUMPI PUSH1 0x1 SLOAD PUSH1 0x40 MLOAD PUSH1 0x1 PUSH1 0x1 PUSH1 0xA0 SHL SUB SWAP1 SWAP2 AND SWAP1 DUP4 ISZERO PUSH2 0x8FC MUL SWAP1 DUP5 SWAP1 PUSH1 0x0 DUP2 DUP2 DUP2 DUP6 DUP9 DUP9 CALL SWAP4 POP POP POP POP ISZERO DUP1 ISZERO PUSH2 0x1B40 JUMPI RETURNDATASIZE PUSH1 0x0 DUP1 RETURNDATACOPY RETURNDATASIZE PUSH1 0x0 REVERT JUMPDEST POP POP POP POP JUMP JUMPDEST PUSH1 0x1 PUSH1 0x1 PUSH1 0xA0 SHL SUB DUP4 AND PUSH1 0x0 SWAP1 DUP2 MSTORE PUSH1 0x17 PUSH1 0x20 SWAP1 DUP2 MSTORE PUSH1 0x40 DUP1 DUP4 KECCAK256 PUSH1 0xFF DUP7 AND DUP5 MSTORE PUSH1 0x7 ADD SWAP1 SWAP2 MSTORE DUP2 KECCAK256 PUSH1 0x1 ADD DUP1 SLOAD DUP4 SWAP3 SWAP1 PUSH2 0x1B82 SWAP1 DUP5 SWAP1 PUSH2 0x2298 JUMP JUMPDEST SWAP1 SWAP2 SSTORE POP POP PUSH1 0x1 PUSH1 0x1 PUSH1 0xA0 SHL SUB DUP4 AND PUSH1 0x0 SWAP1 DUP2 MSTORE PUSH1 0x17 PUSH1 0x20 MSTORE PUSH1 0x40 DUP2 KECCAK256 PUSH1 0x5 ADD DUP1 SLOAD DUP4 SWAP3 SWAP1 PUSH2 0x1BB2 SWAP1 DUP5 SWAP1 PUSH2 0x2298 JUMP JUMPDEST SWAP1 SWAP2 SSTORE POP POP POP POP POP JUMP JUMPDEST PUSH1 0x1 PUSH1 0x1 PUSH1 0xA0 SHL SUB DUP3 AND PUSH1 0x0 SWAP1 DUP2 MSTORE PUSH1 0x17 PUSH1 0x20 SWAP1 DUP2 MSTORE PUSH1 0x40 DUP1 DUP4 KECCAK256 PUSH1 0xFF DUP6 AND DUP5 MSTORE PUSH1 0x7 ADD SWAP1 SWAP2 MSTORE SWAP1 KECCAK256 DUP1 SLOAD PUSH5 0x100000000 SWAP1 DIV PUSH2 0xFFFF AND SWAP1 PUSH1 0x4 PUSH2 0x1BFF DUP4 PUSH2 0x22ED JUMP JUMPDEST DUP3 SLOAD PUSH2 0x100 SWAP3 SWAP1 SWAP3 EXP PUSH2 0xFFFF DUP2 DUP2 MUL NOT SWAP1 SWAP4 AND SWAP2 DUP4 AND MUL OR SWAP1 SWAP2 SSTORE PUSH1 0x1 PUSH1 0x1 PUSH1 0xA0 SHL SUB DUP5 AND PUSH1 0x0 SWAP1 DUP2 MSTORE PUSH1 0x17 PUSH1 0x20 SWAP1 DUP2 MSTORE PUSH1 0x40 DUP1 DUP4 KECCAK256 PUSH1 0xFF DUP8 AND DUP5 MSTORE PUSH1 0x7 ADD SWAP1 SWAP2 MSTORE SWAP1 KECCAK256 SLOAD PUSH3 0x10000 DUP2 DIV DUP3 AND PUSH5 0x100000000 SWAP1 SWAP2 DIV SWAP1 SWAP2 AND LT ISZERO SWAP1 POP PUSH2 0x1CA1 JUMPI PUSH1 0xFF DUP2 AND PUSH1 0x0 SWAP1 DUP2 MSTORE PUSH1 0x19 PUSH1 0x20 SWAP1 DUP2 MSTORE PUSH1 0x40 DUP3 KECCAK256 DUP1 SLOAD PUSH1 0x1 DUP2 ADD DUP3 SSTORE SWAP1 DUP4 MSTORE SWAP2 KECCAK256 ADD DUP1 SLOAD PUSH1 0x1 PUSH1 0x1 PUSH1 0xA0 SHL SUB DUP5 AND PUSH1 0x1 PUSH1 0x1 PUSH1 0xA0 SHL SUB NOT SWAP1 SWAP2 AND OR SWAP1 SSTORE POP POP JUMP JUMPDEST PUSH1 0x1 PUSH1 0x1 PUSH1 0xA0 SHL SUB DUP3 AND PUSH1 0x0 DUP2 DUP2 MSTORE PUSH1 0x17 PUSH1 0x20 DUP2 DUP2 MSTORE PUSH1 0x40 DUP1 DUP5 KECCAK256 PUSH1 0xFF DUP8 AND DUP1 DUP7 MSTORE PUSH1 0x7 DUP3 ADD DUP5 MSTORE DUP3 DUP7 KECCAK256 DUP1 SLOAD PUSH7 0xFF000000000000 NOT AND SWAP1 SSTORE SWAP6 DUP6 MSTORE SWAP3 SWAP1 SWAP2 MSTORE SWAP1 SLOAD SWAP1 MLOAD SWAP1 SWAP2 PUSH32 0xAE9C7CC1B10B0AA2E208296B682CC0000383F83093814233542A7C2EAF7E27D5 SWAP2 LOG3 POP POP JUMP JUMPDEST PUSH1 0x0 PUSH2 0x1D1A DUP6 DUP6 PUSH2 0x1F2E JUMP JUMPDEST SWAP1 POP JUMPDEST PUSH1 0x1 PUSH1 0x1 PUSH1 0xA0 SHL SUB DUP2 AND PUSH1 0x0 SWAP1 DUP2 MSTORE PUSH1 0x17 PUSH1 0x20 SWAP1 DUP2 MSTORE PUSH1 0x40 DUP1 DUP4 KECCAK256 PUSH1 0xFF DUP1 DUP9 AND DUP6 MSTORE PUSH1 0x7 SWAP1 SWAP2 ADD SWAP1 SWAP3 MSTORE SWAP1 SWAP2 KECCAK256 SLOAD PUSH1 0x1 PUSH1 0x30 SHL SWAP1 DIV AND ISZERO DUP1 ISZERO PUSH2 0x1D6E JUMPI POP PUSH1 0x1 SLOAD PUSH1 0x1 PUSH1 0x1 PUSH1 0xA0 SHL SUB DUP3 DUP2 AND SWAP2 AND EQ ISZERO JUMPDEST ISZERO PUSH2 0x1E24 JUMPI PUSH1 0x1 PUSH1 0x1 PUSH1 0xA0 SHL SUB DUP2 AND PUSH1 0x0 SWAP1 DUP2 MSTORE PUSH1 0x17 PUSH1 0x20 MSTORE PUSH1 0x40 DUP2 KECCAK256 PUSH1 0x6 ADD DUP1 SLOAD DUP5 SWAP3 SWAP1 PUSH2 0x1D9E SWAP1 DUP5 SWAP1 PUSH2 0x2298 JUMP JUMPDEST SWAP1 SWAP2 SSTORE POP POP PUSH1 0x1 PUSH1 0x1 PUSH1 0xA0 SHL SUB DUP6 DUP2 AND PUSH1 0x0 SWAP1 DUP2 MSTORE PUSH1 0x17 PUSH1 0x20 SWAP1 DUP2 MSTORE PUSH1 0x40 DUP1 DUP4 KECCAK256 SLOAD SWAP4 DUP6 AND DUP4 MSTORE SWAP2 DUP3 SWAP1 KECCAK256 SLOAD SWAP2 MLOAD DUP6 DUP2 MSTORE PUSH1 0xFF DUP8 AND SWAP4 SWAP3 SWAP2 PUSH32 0xE9D5DFC09351E7B04248ED26514EA34CF12373D57D5206D9D46CD2AD5E487055 SWAP2 ADD PUSH1 0x40 MLOAD DUP1 SWAP2 SUB SWAP1 LOG4 PUSH1 0x1 PUSH1 0x1 PUSH1 0xA0 SHL SUB SWAP1 DUP2 AND PUSH1 0x0 SWAP1 DUP2 MSTORE PUSH1 0x17 PUSH1 0x20 MSTORE PUSH1 0x40 SWAP1 KECCAK256 PUSH1 0x2 ADD SLOAD AND PUSH2 0x1D1D JUMP JUMPDEST PUSH2 0x1E2E DUP2 DUP4 PUSH2 0x1AAB JUMP JUMPDEST PUSH1 0x1 PUSH1 0x1 PUSH1 0xA0 SHL SUB DUP2 AND PUSH1 0x0 SWAP1 DUP2 MSTORE PUSH1 0x17 PUSH1 0x20 SWAP1 DUP2 MSTORE PUSH1 0x40 DUP1 DUP4 KECCAK256 PUSH1 0xFF DUP8 AND DUP5 MSTORE PUSH1 0x7 ADD SWAP1 SWAP2 MSTORE DUP2 KECCAK256 PUSH1 0x2 ADD DUP1 SLOAD DUP5 SWAP3 SWAP1 PUSH2 0x1E6A SWAP1 DUP5 SWAP1 PUSH2 0x2298 JUMP JUMPDEST SWAP1 SWAP2 SSTORE POP POP PUSH1 0x1 PUSH1 0x1 PUSH1 0xA0 SHL SUB DUP2 AND PUSH1 0x0 SWAP1 DUP2 MSTORE PUSH1 0x17 PUSH1 0x20 MSTORE PUSH1 0x40 DUP2 KECCAK256 PUSH1 0x4 ADD DUP1 SLOAD DUP5 SWAP3 SWAP1 PUSH2 0x1E9A SWAP1 DUP5 SWAP1 PUSH2 0x2298 JUMP JUMPDEST SWAP1 SWAP2 SSTORE POP POP PUSH1 0x1 PUSH1 0x1 PUSH1 0xA0 SHL SUB DUP6 DUP2 AND PUSH1 0x0 SWAP1 DUP2 MSTORE PUSH1 0x17 PUSH1 0x20 SWAP1 DUP2 MSTORE PUSH1 0x40 DUP1 DUP4 KECCAK256 SLOAD SWAP4 DUP6 AND DUP4 MSTORE SWAP2 DUP3 SWAP1 KECCAK256 SLOAD SWAP2 MLOAD DUP6 DUP2 MSTORE PUSH1 0xFF DUP8 AND SWAP4 SWAP3 SWAP2 PUSH32 0x6D8172DA503639A6DAA587046B28564AFBEE4369ECA5D54E7551A07A591DB533 SWAP2 ADD PUSH1 0x40 MLOAD DUP1 SWAP2 SUB SWAP1 LOG4 POP POP POP POP POP JUMP JUMPDEST PUSH1 0x1 SLOAD PUSH1 0x1 PUSH1 0xA0 SHL SWAP1 DIV PUSH1 0xFF AND PUSH2 0x89D JUMPI PUSH1 0x40 MLOAD PUSH4 0x8DFC202B PUSH1 0xE0 SHL DUP2 MSTORE PUSH1 0x4 ADD PUSH1 0x40 MLOAD DUP1 SWAP2 SUB SWAP1 REVERT JUMPDEST PUSH1 0x1 PUSH1 0x1 PUSH1 0xA0 SHL SUB DUP1 DUP4 AND PUSH1 0x0 SWAP1 DUP2 MSTORE PUSH1 0x17 PUSH1 0x20 MSTORE PUSH1 0x40 DUP2 KECCAK256 PUSH1 0x2 ADD SLOAD SWAP1 SWAP2 AND PUSH1 0x1 JUMPDEST DUP4 PUSH1 0xFF AND DUP2 PUSH1 0xFF AND LT DUP1 ISZERO PUSH2 0x1F74 JUMPI POP PUSH1 0x1 SLOAD PUSH1 0x1 PUSH1 0x1 PUSH1 0xA0 SHL SUB DUP4 DUP2 AND SWAP2 AND EQ ISZERO JUMPDEST ISZERO PUSH2 0x1FAC JUMPI PUSH1 0x1 PUSH1 0x1 PUSH1 0xA0 SHL SUB SWAP2 DUP3 AND PUSH1 0x0 SWAP1 DUP2 MSTORE PUSH1 0x17 PUSH1 0x20 MSTORE PUSH1 0x40 SWAP1 KECCAK256 PUSH1 0x2 ADD SLOAD SWAP1 SWAP2 AND SWAP1 DUP1 PUSH2 0x1FA4 DUP2 PUSH2 0x2030 JUMP JUMPDEST SWAP2 POP POP PUSH2 0x1F51 JUMP JUMPDEST POP SWAP1 POP JUMPDEST SWAP3 SWAP2 POP POP JUMP JUMPDEST PUSH1 0x40 MLOAD DUP1 PUSH2 0x220 ADD PUSH1 0x40 MSTORE DUP1 PUSH1 0x11 SWAP1 PUSH1 0x20 DUP3 MUL DUP1 CALLDATASIZE DUP4 CALLDATACOPY POP SWAP2 SWAP3 SWAP2 POP POP JUMP JUMPDEST PUSH1 0x20 DUP1 DUP3 MSTORE PUSH1 0x15 SWAP1 DUP3 ADD MSTORE PUSH21 0x10DBDB9D1C9858DD1CC81B9BDD08185B1B1BDDD959 PUSH1 0x5A SHL PUSH1 0x40 DUP3 ADD MSTORE PUSH1 0x60 ADD SWAP1 JUMP JUMPDEST PUSH4 0x4E487B71 PUSH1 0xE0 SHL PUSH1 0x0 MSTORE PUSH1 0x32 PUSH1 0x4 MSTORE PUSH1 0x24 PUSH1 0x0 REVERT JUMPDEST PUSH4 0x4E487B71 PUSH1 0xE0 SHL PUSH1 0x0 MSTORE PUSH1 0x11 PUSH1 0x4 MSTORE PUSH1 0x24 PUSH1 0x0 REVERT JUMPDEST PUSH1 0x0 PUSH1 0xFF DUP3 AND PUSH1 0xFF DUP2 SUB PUSH2 0x2046 JUMPI PUSH2 0x2046 PUSH2 0x201A JUMP JUMPDEST PUSH1 0x1 ADD SWAP3 SWAP2 POP POP JUMP JUMPDEST DUP1 CALLDATALOAD PUSH1 0xFF DUP2 AND DUP2 EQ PUSH2 0x2060 JUMPI PUSH1 0x0 DUP1 REVERT JUMPDEST SWAP2 SWAP1 POP JUMP JUMPDEST PUSH1 0x0 PUSH1 0x20 DUP3 DUP5 SUB SLT ISZERO PUSH2 0x2077 JUMPI PUSH1 0x0 DUP1 REVERT JUMPDEST PUSH2 0x2080 DUP3 PUSH2 0x204F JUMP JUMPDEST SWAP4 SWAP3 POP POP POP JUMP JUMPDEST PUSH1 0x1 PUSH1 0x1 PUSH1 0xA0 SHL SUB DUP2 AND DUP2 EQ PUSH2 0xCB8 JUMPI PUSH1 0x0 DUP1 REVERT JUMPDEST PUSH1 0x0 PUSH1 0x20 DUP3 DUP5 SUB SLT ISZERO PUSH2 0x20AE JUMPI PUSH1 0x0 DUP1 REVERT JUMPDEST DUP2 CALLDATALOAD PUSH2 0x2080 DUP2 PUSH2 0x2087 JUMP JUMPDEST PUSH2 0x220 DUP2 ADD DUP2 DUP4 PUSH1 0x0 JUMPDEST PUSH1 0x11 DUP2 LT ISZERO PUSH2 0x20E2 JUMPI DUP2 MLOAD DUP4 MSTORE PUSH1 0x20 SWAP3 DUP4 ADD SWAP3 SWAP1 SWAP2 ADD SWAP1 PUSH1 0x1 ADD PUSH2 0x20C3 JUMP JUMPDEST POP POP POP SWAP3 SWAP2 POP POP JUMP JUMPDEST PUSH1 0x0 PUSH1 0x20 DUP3 DUP5 SUB SLT ISZERO PUSH2 0x20FD JUMPI PUSH1 0x0 DUP1 REVERT JUMPDEST POP CALLDATALOAD SWAP2 SWAP1 POP JUMP JUMPDEST PUSH1 0x0 DUP1 PUSH1 0x40 DUP4 DUP6 SUB SLT ISZERO PUSH2 0x2117 JUMPI PUSH1 0x0 DUP1 REVERT JUMPDEST PUSH2 0x2120 DUP4 PUSH2 0x204F JUMP JUMPDEST SWAP5 PUSH1 0x20 SWAP4 SWAP1 SWAP4 ADD CALLDATALOAD SWAP4 POP POP POP JUMP JUMPDEST PUSH1 0x0 DUP2 MLOAD DUP1 DUP5 MSTORE PUSH1 0x20 DUP1 DUP6 ADD SWAP5 POP DUP1 DUP5 ADD PUSH1 0x0 JUMPDEST DUP4 DUP2 LT ISZERO PUSH2 0x2162 JUMPI DUP2 MLOAD PUSH2 0xFFFF AND DUP8 MSTORE SWAP6 DUP3 ADD SWAP6 SWAP1 DUP3 ADD SWAP1 PUSH1 0x1 ADD PUSH2 0x2142 JUMP JUMPDEST POP SWAP5 SWAP6 SWAP5 POP POP POP POP POP JUMP JUMPDEST PUSH1 0x0 DUP2 MLOAD DUP1 DUP5 MSTORE PUSH1 0x20 DUP1 DUP6 ADD SWAP5 POP DUP1 DUP5 ADD PUSH1 0x0 JUMPDEST DUP4 DUP2 LT ISZERO PUSH2 0x2162 JUMPI DUP2 MLOAD DUP8 MSTORE SWAP6 DUP3 ADD SWAP6 SWAP1 DUP3 ADD SWAP1 PUSH1 0x1 ADD PUSH2 0x2181 JUMP JUMPDEST PUSH1 0xC0 DUP1 DUP3 MSTORE DUP8 MLOAD SWAP1 DUP3 ADD DUP2 SWAP1 MSTORE PUSH1 0x0 SWAP1 PUSH1 0x20 SWAP1 PUSH1 0xE0 DUP5 ADD SWAP1 DUP3 DUP12 ADD DUP5 JUMPDEST DUP3 DUP2 LT ISZERO PUSH2 0x21D8 JUMPI DUP2 MLOAD ISZERO ISZERO DUP5 MSTORE SWAP3 DUP5 ADD SWAP3 SWAP1 DUP5 ADD SWAP1 PUSH1 0x1 ADD PUSH2 0x21BA JUMP JUMPDEST POP POP POP DUP4 DUP2 SUB DUP3 DUP6 ADD MSTORE PUSH2 0x21EC DUP2 DUP11 PUSH2 0x212E JUMP JUMPDEST SWAP2 POP POP DUP3 DUP2 SUB PUSH1 0x40 DUP5 ADD MSTORE PUSH2 0x2201 DUP2 DUP9 PUSH2 0x212E JUMP JUMPDEST SWAP1 POP DUP3 DUP2 SUB PUSH1 0x60 DUP5 ADD MSTORE PUSH2 0x2215 DUP2 DUP8 PUSH2 0x212E JUMP JUMPDEST SWAP1 POP DUP3 DUP2 SUB PUSH1 0x80 DUP5 ADD MSTORE PUSH2 0x2229 DUP2 DUP7 PUSH2 0x216D JUMP JUMPDEST SWAP1 POP DUP3 DUP2 SUB PUSH1 0xA0 DUP5 ADD MSTORE PUSH2 0x223D DUP2 DUP6 PUSH2 0x216D JUMP JUMPDEST SWAP10 SWAP9 POP POP POP POP POP POP POP POP POP JUMP JUMPDEST PUSH1 0x0 DUP1 PUSH1 0x40 DUP4 DUP6 SUB SLT ISZERO PUSH2 0x225D JUMPI PUSH1 0x0 DUP1 REVERT JUMPDEST DUP3 CALLDATALOAD PUSH2 0x2268 DUP2 PUSH2 0x2087 JUMP JUMPDEST SWAP2 POP PUSH2 0x2276 PUSH1 0x20 DUP5 ADD PUSH2 0x204F JUMP JUMPDEST SWAP1 POP SWAP3 POP SWAP3 SWAP1 POP JUMP JUMPDEST PUSH1 0x0 PUSH1 0x1 DUP3 ADD PUSH2 0x2291 JUMPI PUSH2 0x2291 PUSH2 0x201A JUMP JUMPDEST POP PUSH1 0x1 ADD SWAP1 JUMP JUMPDEST DUP1 DUP3 ADD DUP1 DUP3 GT ISZERO PUSH2 0x1FB0 JUMPI PUSH2 0x1FB0 PUSH2 0x201A JUMP JUMPDEST PUSH1 0xFF DUP2 DUP2 AND DUP4 DUP3 AND ADD SWAP1 DUP2 GT ISZERO PUSH2 0x1FB0 JUMPI PUSH2 0x1FB0 PUSH2 0x201A JUMP JUMPDEST PUSH4 0x4E487B71 PUSH1 0xE0 SHL PUSH1 0x0 MSTORE PUSH1 0x41 PUSH1 0x4 MSTORE PUSH1 0x24 PUSH1 0x0 REVERT JUMPDEST DUP2 DUP2 SUB DUP2 DUP2 GT ISZERO PUSH2 0x1FB0 JUMPI PUSH2 0x1FB0 PUSH2 0x201A JUMP JUMPDEST PUSH1 0x0 PUSH2 0xFFFF DUP1 DUP4 AND DUP2 DUP2 SUB PUSH2 0x2304 JUMPI PUSH2 0x2304 PUSH2 0x201A JUMP JUMPDEST PUSH1 0x1 ADD SWAP4 SWAP3 POP POP POP JUMP JUMPDEST PUSH2 0xFFFF DUP2 DUP2 AND DUP4 DUP3 AND ADD SWAP1 DUP1 DUP3 GT ISZERO PUSH2 0x2329 JUMPI PUSH2 0x2329 PUSH2 0x201A JUMP JUMPDEST POP SWAP3 SWAP2 POP POP JUMP JUMPDEST DUP1 DUP3 MUL DUP2 ISZERO DUP3 DUP3 DIV DUP5 EQ OR PUSH2 0x1FB0 JUMPI PUSH2 0x1FB0 PUSH2 0x201A JUMP JUMPDEST PUSH1 0x0 DUP3 PUSH2 0x2364 JUMPI PUSH4 0x4E487B71 PUSH1 0xE0 SHL PUSH1 0x0 MSTORE PUSH1 0x12 PUSH1 0x4 MSTORE PUSH1 0x24 PUSH1 0x0 REVERT JUMPDEST POP DIV SWAP1 JUMP INVALID LOG2 PUSH5 0x6970667358 0x22 SLT KECCAK256 REVERT 0x4D CALLDATASIZE 0xD2 0x27 DUP14 0xFC LOG3 0xDB 0xEA 0x5D SWAP16 PUSH15 0xF0A77EFBECB9E547B72AB6792ED2DD 0xC7 0x4B 0xB3 PUSH18 0x64736F6C6343000814003300000000000000 "},"methodIdentifiers":{"MAX_LEVELS()":"6702c7bf","MAX_REFERRAL_LINES()":"23994d9c","REGISTRATION_PRICE()":"2663e0b5","REWARD_PAYOUTS()":"8f1fcd7a","REWARD_PERCENT()":"06fbedbe","buyLevel(uint8)":"8d17a4d0","emergencyWithdraw()":"db2e21bc","getAllLevelPrices()":"37e3c789","getContractBalance()":"6f9fb98a","getGlobalStats()":"6b4169c3","getPlaceInQueue(address,uint8)":"cfce5044","getUser(address)":"6f77926b","getUserLevels(address)":"b0566497","globalStat()":"60891fe4","headIndex(uint8)":"091b430a","isUserRegistered(address)":"163f7522","levelPrices(uint256)":"48135df0","levelQueue(uint8,uint256)":"4debc14f","minUsersForLevel(uint8)":"03b56a03","owner()":"8da5cb5b","pause()":"8456cb59","paused()":"5c975abb","referralRewardPercents(uint256)":"bd4616f4","register()":"1aa3a008","registerWithReferrer(address)":"968763a0","renounceOwnership()":"715018a6","setTokenBurner(address)":"b0af768b","tokenBurner()":"2996f972","transferOwnership(address)":"f2fde38b","unpause()":"3f4ba83a","users(address)":"a87430ba","usersAddressById(uint256)":"dea64dc5"}}}}}