{"contracts/ImprovedMLM_BSC.sol":{"ImprovedMLM_BSC":{"abi":[{"inputs":[{"internalType":"address payable","name":"_tokenBurner","type":"address"}],"stateMutability":"nonpayable","type":"constructor"},{"inputs":[],"name":"EnforcedPause","type":"error"},{"inputs":[],"name":"ExpectedPause","type":"error"},{"inputs":[{"internalType":"address","name":"owner","type":"address"}],"name":"OwnableInvalidOwner","type":"error"},{"inputs":[{"internalType":"address","name":"account","type":"address"}],"name":"OwnableUnauthorizedAccount","type":"error"},{"inputs":[],"name":"ReentrancyGuardReentrantCall","type":"error"},{"anonymous":false,"inputs":[{"indexed":true,"internalType":"uint256","name":"userId","type":"uint256"},{"indexed":true,"internalType":"uint8","name":"level","type":"uint8"},{"indexed":false,"internalType":"uint256","name":"value","type":"uint256"}],"name":"BuyLevel","type":"event"},{"anonymous":false,"inputs":[{"indexed":true,"internalType":"uint256","name":"userId","type":"uint256"},{"indexed":true,"internalType":"uint8","name":"level","type":"uint8"},{"indexed":false,"internalType":"uint16","name":"newMaxPayouts","type":"uint16"}],"name":"IncreaseLevelMaxPayouts","type":"event"},{"anonymous":false,"inputs":[{"indexed":true,"internalType":"uint256","name":"userId","type":"uint256"},{"indexed":true,"internalType":"uint8","name":"level","type":"uint8"}],"name":"LevelDeactivation","type":"event"},{"anonymous":false,"inputs":[{"indexed":true,"internalType":"uint256","name":"userId","type":"uint256"},{"indexed":true,"internalType":"uint8","name":"level","type":"uint8"},{"indexed":false,"internalType":"uint256","name":"rewardValue","type":"uint256"},{"indexed":true,"internalType":"uint256","name":"fromUserId","type":"uint256"}],"name":"LevelPayout","type":"event"},{"anonymous":false,"inputs":[{"indexed":true,"internalType":"uint256","name":"referrerId","type":"uint256"},{"indexed":true,"internalType":"uint256","name":"referralId","type":"uint256"},{"indexed":true,"internalType":"uint8","name":"level","type":"uint8"},{"indexed":false,"internalType":"uint256","name":"rewardValue","type":"uint256"}],"name":"MissedReferralPayout","type":"event"},{"anonymous":false,"inputs":[{"indexed":true,"internalType":"address","name":"previousOwner","type":"address"},{"indexed":true,"internalType":"address","name":"newOwner","type":"address"}],"name":"OwnershipTransferred","type":"event"},{"anonymous":false,"inputs":[{"indexed":false,"internalType":"address","name":"account","type":"address"}],"name":"Paused","type":"event"},{"anonymous":false,"inputs":[{"indexed":true,"internalType":"uint256","name":"referrerId","type":"uint256"},{"indexed":true,"internalType":"uint256","name":"referralId","type":"uint256"},{"indexed":true,"internalType":"uint8","name":"level","type":"uint8"},{"indexed":false,"internalType":"uint256","name":"rewardValue","type":"uint256"}],"name":"ReferralPayout","type":"event"},{"anonymous":false,"inputs":[{"indexed":true,"internalType":"address","name":"oldBurner","type":"address"},{"indexed":true,"internalType":"address","name":"newBurner","type":"address"}],"name":"TokenBurnerUpdated","type":"event"},{"anonymous":false,"inputs":[{"indexed":false,"internalType":"address","name":"account","type":"address"}],"name":"Unpaused","type":"event"},{"anonymous":false,"inputs":[{"indexed":true,"internalType":"uint256","name":"userId","type":"uint256"},{"indexed":true,"internalType":"uint256","name":"referrerId","type":"uint256"},{"indexed":true,"internalType":"address","name":"userAddress","type":"address"}],"name":"UserRegistration","type":"event"},{"inputs":[],"name":"MAX_LEVELS","outputs":[{"internalType":"uint8","name":"","type":"uint8"}],"stateMutability":"view","type":"function"},{"inputs":[],"name":"MAX_REFERRAL_LINES","outputs":[{"internalType":"uint8","name":"","type":"uint8"}],"stateMutability":"view","type":"function"},{"inputs":[],"name":"REGISTRATION_PRICE","outputs":[{"internalType":"uint256","name":"","type":"uint256"}],"stateMutability":"view","type":"function"},{"inputs":[],"name":"REWARD_PAYOUTS","outputs":[{"internalType":"uint8","name":"","type":"uint8"}],"stateMutability":"view","type":"function"},{"inputs":[],"name":"REWARD_PERCENT","outputs":[{"internalType":"uint8","name":"","type":"uint8"}],"stateMutability":"view","type":"function"},{"inputs":[{"internalType":"uint8","name":"level","type":"uint8"}],"name":"buyLevel","outputs":[],"stateMutability":"payable","type":"function"},{"inputs":[],"name":"emergencyWithdraw","outputs":[],"stateMutability":"nonpayable","type":"function"},{"inputs":[],"name":"getAllLevelPrices","outputs":[{"internalType":"uint256[17]","name":"","type":"uint256[17]"}],"stateMutability":"view","type":"function"},{"inputs":[],"name":"getContractBalance","outputs":[{"internalType":"uint256","name":"","type":"uint256"}],"stateMutability":"view","type":"function"},{"inputs":[],"name":"getGlobalStats","outputs":[{"internalType":"uint256","name":"members","type":"uint256"},{"internalType":"uint256","name":"transactions","type":"uint256"},{"internalType":"uint256","name":"turnover","type":"uint256"}],"stateMutability":"view","type":"function"},{"inputs":[{"internalType":"address","name":"userAddress","type":"address"},{"internalType":"uint8","name":"level","type":"uint8"}],"name":"getPlaceInQueue","outputs":[{"internalType":"uint256","name":"place","type":"uint256"},{"internalType":"uint256","name":"totalInQueue","type":"uint256"}],"stateMutability":"view","type":"function"},{"inputs":[{"internalType":"address","name":"userAddress","type":"address"}],"name":"getUser","outputs":[{"internalType":"uint256","name":"id","type":"uint256"},{"internalType":"uint256","name":"registrationTimestamp","type":"uint256"},{"internalType":"uint256","name":"referrerId","type":"uint256"},{"internalType":"address","name":"referrer","type":"address"},{"internalType":"uint256","name":"referrals","type":"uint256"},{"internalType":"uint256","name":"referralPayoutSum","type":"uint256"},{"internalType":"uint256","name":"levelsRewardSum","type":"uint256"},{"internalType":"uint256","name":"missedReferralPayoutSum","type":"uint256"}],"stateMutability":"view","type":"function"},{"inputs":[{"internalType":"address","name":"userAddress","type":"address"}],"name":"getUserLevels","outputs":[{"internalType":"bool[]","name":"active","type":"bool[]"},{"internalType":"uint16[]","name":"payouts","type":"uint16[]"},{"internalType":"uint16[]","name":"maxPayouts","type":"uint16[]"},{"internalType":"uint16[]","name":"activationTimes","type":"uint16[]"},{"internalType":"uint256[]","name":"rewardSum","type":"uint256[]"},{"internalType":"uint256[]","name":"referralPayoutSum","type":"uint256[]"}],"stateMutability":"view","type":"function"},{"inputs":[],"name":"globalStat","outputs":[{"internalType":"uint256","name":"members","type":"uint256"},{"internalType":"uint256","name":"transactions","type":"uint256"},{"internalType":"uint256","name":"turnover","type":"uint256"}],"stateMutability":"view","type":"function"},{"inputs":[{"internalType":"uint8","name":"","type":"uint8"}],"name":"headIndex","outputs":[{"internalType":"uint256","name":"","type":"uint256"}],"stateMutability":"view","type":"function"},{"inputs":[{"internalType":"address","name":"userAddress","type":"address"},{"internalType":"uint8","name":"level","type":"uint8"}],"name":"isLevelFrozen","outputs":[{"internalType":"bool","name":"","type":"bool"}],"stateMutability":"view","type":"function"},{"inputs":[{"internalType":"address","name":"userAddress","type":"address"}],"name":"isUserRegistered","outputs":[{"internalType":"bool","name":"","type":"bool"}],"stateMutability":"view","type":"function"},{"inputs":[{"internalType":"uint256","name":"","type":"uint256"}],"name":"levelPrices","outputs":[{"internalType":"uint256","name":"","type":"uint256"}],"stateMutability":"view","type":"function"},{"inputs":[{"internalType":"uint8","name":"","type":"uint8"},{"internalType":"uint256","name":"","type":"uint256"}],"name":"levelQueue","outputs":[{"internalType":"address","name":"","type":"address"}],"stateMutability":"view","type":"function"},{"inputs":[{"internalType":"uint8","name":"","type":"uint8"}],"name":"minUsersForLevel","outputs":[{"internalType":"uint256","name":"","type":"uint256"}],"stateMutability":"view","type":"function"},{"inputs":[],"name":"owner","outputs":[{"internalType":"address","name":"","type":"address"}],"stateMutability":"view","type":"function"},{"inputs":[],"name":"pause","outputs":[],"stateMutability":"nonpayable","type":"function"},{"inputs":[],"name":"paused","outputs":[{"internalType":"bool","name":"","type":"bool"}],"stateMutability":"view","type":"function"},{"inputs":[{"internalType":"uint256","name":"","type":"uint256"}],"name":"referralRewardPercents","outputs":[{"internalType":"uint8","name":"","type":"uint8"}],"stateMutability":"view","type":"function"},{"inputs":[],"name":"register","outputs":[],"stateMutability":"payable","type":"function"},{"inputs":[{"internalType":"address","name":"referrer","type":"address"}],"name":"registerWithReferrer","outputs":[],"stateMutability":"payable","type":"function"},{"inputs":[],"name":"renounceOwnership","outputs":[],"stateMutability":"nonpayable","type":"function"},{"inputs":[{"internalType":"address payable","name":"_tokenBurner","type":"address"}],"name":"setTokenBurner","outputs":[],"stateMutability":"nonpayable","type":"function"},{"inputs":[],"name":"tokenBurner","outputs":[{"internalType":"address payable","name":"","type":"address"}],"stateMutability":"view","type":"function"},{"inputs":[{"internalType":"address","name":"newOwner","type":"address"}],"name":"transferOwnership","outputs":[],"stateMutability":"nonpayable","type":"function"},{"inputs":[],"name":"unpause","outputs":[],"stateMutability":"nonpayable","type":"function"},{"inputs":[{"internalType":"address","name":"","type":"address"}],"name":"users","outputs":[{"internalType":"uint256","name":"id","type":"uint256"},{"internalType":"uint256","name":"registrationTimestamp","type":"uint256"},{"internalType":"address","name":"referrer","type":"address"},{"internalType":"uint256","name":"referrals","type":"uint256"},{"internalType":"uint256","name":"referralPayoutSum","type":"uint256"},{"internalType":"uint256","name":"levelsRewardSum","type":"uint256"},{"internalType":"uint256","name":"missedReferralPayoutSum","type":"uint256"}],"stateMutability":"view","type":"function"},{"inputs":[{"internalType":"uint256","name":"","type":"uint256"}],"name":"usersAddressById","outputs":[{"internalType":"address","name":"","type":"address"}],"stateMutability":"view","type":"function"},{"stateMutability":"payable","type":"receive"}],"evm":{"bytecode":{"linkReferences":{},"object":"61010060405260006080908152600d60a052600860c052600560e0526200002b90600290600462000547565b5060408051610220810182526000815266b1a2bc2ec50000602082015266f8b0a10e4700009181019190915267016345785d8a000060608201526701f161421c8e000060808201526702c68af0bb14000060a08201526703e2c284391c000060c082015267058d15e17628000060e08201526707a1fe1602770000610100820152670b1a2bc2ec500000610120820152670f43fc2c04ee00006101408201526716345785d8a00000610160820152671e87f85809dc0000610180820152672c68af0bb14000006101a0820152673d0ff0b013b800006101c0820152675a34a38fc00a00006101e0820152676f05b59d3b20000061020082015262000134906004906011620005e1565b5060026016553480156200014757600080fd5b5060405162002dc238038062002dc28339810160408190526200016a9162000634565b600160005533806200019757604051631e4fbdf760e01b8152600060048201526024015b60405180910390fd5b620001a28162000298565b506001600160a01b038116620001fb5760405162461bcd60e51b815260206004820152601c60248201527f496e76616c696420746f6b656e206275726e657220616464726573730000000060448201526064016200018e565b600380546001600160a01b0319166001600160a01b03831617905560045b601060ff821611620002505760ff811660009081526015602052604090206001905580620002478162000666565b91505062000219565b506200025b620002ea565b6040516001600160a01b038216906000907ff1f34e0fc899850dc916e4128492f6cb73a06c53bae553fb09883f5dadf061d8908290a35062000694565b600180546001600160a01b038381166001600160a01b0319831681179093556040519116919082907f8be0079c531659141344cd1fd0a4f28419497f9722a3daafe3b4186f6b6457e090600090a35050565b600160176000620003036001546001600160a01b031690565b6001600160a01b03168152602081019190915260400160009081209190915542906017906200033a6001546001600160a01b031690565b6001600160a01b031681526020810191909152604001600090812060010191909155601781620003726001546001600160a01b031690565b6001600160a01b039081168252602082019290925260400160002060020180546001600160a01b03191692909116919091179055620003b96001546001600160a01b031690565b6001600081905260186020527ff3794665d3af9b6fb6f858b70185898134f96768ef31c325d52e04f0ac195a4d80546001600160a01b0319166001600160a01b039390931692909217909155601b819055601c8190555b601060ff8216116200054457600160176000620004356001546001600160a01b031690565b6001600160a01b031681526020808201929092526040908101600090812060ff861682526007019092528120805492151566010000000000000260ff60301b199093169290921790915561dd5a90601790620004996001546001600160a01b031690565b6001600160a01b031681526020808201929092526040908101600090812060ff861682526007018352818120805461ffff95909516620100000263ffff0000199095169490941790935560199091529020620004fd6001546001600160a01b031690565b81546001810183556000928352602090922090910180546001600160a01b0319166001600160a01b03909216919091179055806200053b8162000666565b91505062000410565b50565b600183019183908215620005cf5791602002820160005b838211156200059e57835183826101000a81548160ff021916908360ff16021790555092602001926001016020816000010492830192600103026200055e565b8015620005cd5782816101000a81549060ff02191690556001016020816000010492830192600103026200059e565b505b50620005dd9291506200061d565b5090565b8260118101928215620005cf579160200282015b82811115620005cf57825182906001600160401b0316905591602001919060010190620005f5565b5b80821115620005dd57600081556001016200061e565b6000602082840312156200064757600080fd5b81516001600160a01b03811681146200065f57600080fd5b9392505050565b600060ff821660ff81036200068b57634e487b7160e01b600052601160045260246000fd5b60010192915050565b61271e80620006a46000396000f3fe6080604052600436106101f25760003560e01c80636b4169c31161010d578063968763a0116100a0578063bd4616f41161006f578063bd4616f4146107dd578063cfce5044146107fd578063db2e21bc14610832578063dea64dc514610847578063f2fde38b1461087d57600080fd5b8063968763a0146106d3578063a87430ba146106e6578063b05664971461078b578063b0af768b146107bd57600080fd5b80638456cb59116100dc5780638456cb59146106785780638d17a4d01461068d5780638da5cb5b146106a05780638f1fcd7a146106be57600080fd5b80636b4169c3146105845780636f77926b1461059f5780636f9fb98a14610650578063715018a61461066357600080fd5b80632996f972116101855780634debc14f116101545780634debc14f146104f65780635c975abb1461051657806360891fe4146105355780636702c7bf1461056f57600080fd5b80632996f9721461046757806337e3c7891461049f5780633f4ba83a146104c157806348135df0146104d657600080fd5b8063163f7522116101c1578063163f7522146103f75780631aa3a0081461042f57806323994d9c146104375780632663e0b51461044c57600080fd5b806303b56a031461033357806306fbedbe14610373578063091b430a1461039a5780630e475efd146103c757600080fd5b3661032e576101ff61089d565b333b156102275760405162461bcd60e51b815260040161021e9061233b565b60405180910390fd5b336000908152601760205260409020546102a5576658d15e1762800034036102655761026361025e6001546001600160a01b031690565b6108ca565b005b60405162461bcd60e51b8152602060048201526015602482015274149959da5cdd1c985d1a5bdb881c995c5d5a5c9959605a1b604482015260640161021e565b60015b601060ff8216116102ec573460048260ff16601181106102ca576102ca61236a565b0154036102da5761026381610a5b565b806102e481612396565b9150506102a8565b5060405162461bcd60e51b8152602060048201526016602482015275125b9d985b1a59081c185e5b595b9d08185b5bdd5b9d60521b604482015260640161021e565b600080fd5b34801561033f57600080fd5b5061036061034e3660046123cb565b60156020526000908152604090205481565b6040519081526020015b60405180910390f35b34801561037f57600080fd5b50610388604a81565b60405160ff909116815260200161036a565b3480156103a657600080fd5b506103606103b53660046123cb565b601a6020526000908152604090205481565b3480156103d357600080fd5b506103e76103e23660046123fb565b610cc6565b604051901515815260200161036a565b34801561040357600080fd5b506103e7610412366004612430565b6001600160a01b0316600090815260176020526040902054151590565b610263610df1565b34801561044357600080fd5b50610388600381565b34801561045857600080fd5b506103606658d15e1762800081565b34801561047357600080fd5b50600354610487906001600160a01b031681565b6040516001600160a01b03909116815260200161036a565b3480156104ab57600080fd5b506104b4610e0e565b60405161036a919061244d565b3480156104cd57600080fd5b50610263610e4a565b3480156104e257600080fd5b506103606104f136600461247f565b610e5a565b34801561050257600080fd5b50610487610511366004612498565b610e71565b34801561052257600080fd5b50600154600160a01b900460ff166103e7565b34801561054157600080fd5b50601b54601c54601d5461055492919083565b6040805193845260208401929092529082015260600161036a565b34801561057b57600080fd5b50610388601081565b34801561059057600080fd5b50601b54601c54601d54610554565b3480156105ab57600080fd5b5061060d6105ba366004612430565b6001600160a01b0390811660009081526017602052604080822080546001820154600283015490951680855292909320546003820154600483015460058401546006909401549597929591939092909190565b604080519889526020890197909752958701949094526001600160a01b039092166060860152608085015260a084015260c083015260e08201526101000161036a565b34801561065c57600080fd5b5047610360565b34801561066f57600080fd5b50610263610ea9565b34801561068457600080fd5b50610263610ebb565b61026361069b3660046123cb565b610a5b565b3480156106ac57600080fd5b506001546001600160a01b0316610487565b3480156106ca57600080fd5b50610388600281565b6102636106e1366004612430565b610ecb565b3480156106f257600080fd5b50610748610701366004612430565b6017602052600090815260409020805460018201546002830154600384015460048501546005860154600690960154949593946001600160a01b0390931693919290919087565b6040805197885260208801969096526001600160a01b03909416948601949094526060850191909152608084015260a083019190915260c082015260e00161036a565b34801561079757600080fd5b506107ab6107a6366004612430565b611018565b60405161036a96959493929190612531565b3480156107c957600080fd5b506102636107d8366004612430565b611388565b3480156107e957600080fd5b506103886107f836600461247f565b61142a565b34801561080957600080fd5b5061081d6108183660046123fb565b611454565b6040805192835260208301919091520161036a565b34801561083e57600080fd5b506102636115a9565b34801561085357600080fd5b5061048761086236600461247f565b6018602052600090815260409020546001600160a01b031681565b34801561088957600080fd5b50610263610898366004612430565b6115ea565b600154600160a01b900460ff16156108c85760405163d93c066560e01b815260040160405180910390fd5b565b60168054600091826108db836125de565b9091555033600081815260176020908152604080832085815542600182015560020180546001600160a01b0389166001600160a01b031991821617909155858452601890925290912080549091169091179055905061093982611625565b6003546040516000916001600160a01b03169034908381818185875af1925050503d8060008114610986576040519150601f19603f3d011682016040523d82523d6000602084013e61098b565b606091505b50509050806109e85760405162461bcd60e51b815260206004820152602360248201527f424e42207472616e7366657220746f20746f6b656e206275726e6572206661696044820152621b195960ea1b606482015260840161021e565b601b80549060006109f8836125de565b9091555050601c8054906000610a0d836125de565b90915550506001600160a01b038316600090815260176020526040808220549051339285917fd16b9e23ebcbb63125b93bae9f6ab7816d405e981078401e617b7c0af255806c9190a4505050565b610a636116ab565b33600090815260176020526040902054610ab55760405162461bcd60e51b8152602060048201526013602482015272155cd95c881b9bdd081c9959da5cdd195c9959606a1b604482015260640161021e565b8060008160ff16118015610acd5750601060ff821611155b610ae95760405162461bcd60e51b815260040161021e906125f7565b610af161089d565b333b15610b105760405162461bcd60e51b815260040161021e9061233b565b3460048360ff1660118110610b2757610b2761236a565b015414610b765760405162461bcd60e51b815260206004820152601c60248201527f496e76616c696420424e4220616d6f756e7420666f72206c6576656c00000000604482015260640161021e565b60ff8216600090815260156020526040902054601b541015610bd05760405162461bcd60e51b81526020600482015260136024820152724c6576656c206e6f7420617661696c61626c6560681b604482015260640161021e565b60015b8260ff168160ff161015610c6c5733600090815260176020908152604080832060ff8086168552600790910190925290912054600160301b900416610c5a5760405162461bcd60e51b815260206004820152601e60248201527f50726576696f7573206c6576656c73206d757374206265206163746976650000604482015260640161021e565b80610c6481612396565b915050610bd3565b50601c8054906000610c7d836125de565b919050555034601b6002016000828254610c97919061261e565b90915550610ca69050826116d5565b610caf826118b7565b610cb882611a4e565b50610cc36001600055565b50565b60008160008160ff16118015610ce05750601060ff821611155b610cfc5760405162461bcd60e51b815260040161021e906125f7565b6001600160a01b038416600090815260176020908152604080832060ff8088168552600790910190925290912080549091600160301b90910416610d44576000925050610dea565b805461ffff6201000082048116640100000000909204161015610d6b576000925050610dea565b601060ff851610610d80576001925050610dea565b6010610d8d856001612631565b60ff1611610de4576001600160a01b038516600090815260176020526040812060070190610dbc866001612631565b60ff9081168252602082019290925260400160002054600160301b900416159250610dea9050565b60019250505b5092915050565b610df961089d565b6108c86106e16001546001600160a01b031690565b610e1661231c565b604080516102208101918290529060049060119082845b815481526020019060010190808311610e2d575050505050905090565b610e52611ac3565b6108c8611af0565b60048160118110610e6a57600080fd5b0154905081565b60196020528160005260406000208181548110610e8d57600080fd5b6000918252602090912001546001600160a01b03169150829050565b610eb1611ac3565b6108c86000611b45565b610ec3611ac3565b6108c8611b97565b610ed361089d565b333b15610ef25760405162461bcd60e51b815260040161021e9061233b565b6658d15e176280003414610f585760405162461bcd60e51b815260206004820152602760248201527f53656e642065786163746c7920302e30323520424e4220666f722072656769736044820152663a3930ba34b7b760c91b606482015260840161021e565b6001600160a01b038116600090815260176020526040902054610fbd5760405162461bcd60e51b815260206004820152601760248201527f5265666572726572206e6f742072656769737465726564000000000000000000604482015260640161021e565b336000908152601760205260409020541561100f5760405162461bcd60e51b8152602060048201526012602482015271105b1c9958591e481c9959da5cdd195c995960721b604482015260640161021e565b610cc3816108ca565b6060808080808061102b60106001612631565b60ff1667ffffffffffffffff8111156110465761104661264a565b60405190808252806020026020018201604052801561106f578160200160208202803683370190505b50955061107e60106001612631565b60ff1667ffffffffffffffff8111156110995761109961264a565b6040519080825280602002602001820160405280156110c2578160200160208202803683370190505b5094506110d160106001612631565b60ff1667ffffffffffffffff8111156110ec576110ec61264a565b604051908082528060200260200182016040528015611115578160200160208202803683370190505b50935061112460106001612631565b60ff1667ffffffffffffffff81111561113f5761113f61264a565b604051908082528060200260200182016040528015611168578160200160208202803683370190505b50925061117760106001612631565b60ff1667ffffffffffffffff8111156111925761119261264a565b6040519080825280602002602001820160405280156111bb578160200160208202803683370190505b5091506111ca60106001612631565b60ff1667ffffffffffffffff8111156111e5576111e561264a565b60405190808252806020026020018201604052801561120e578160200160208202803683370190505b50905060015b601060ff82161161137e576001600160a01b038816600090815260176020908152604080832060ff8086168086526007909201909352922080548a519193600160301b909104909216918a91811061126e5761126e61236a565b6020026020010190151590811515815250508060000160049054906101000a900461ffff16878360ff16815181106112a8576112a861236a565b61ffff9283166020918202929092010152815487516201000090910490911690879060ff85169081106112dd576112dd61236a565b61ffff928316602091820292909201015281548651911690869060ff851690811061130a5761130a61236a565b602002602001019061ffff16908161ffff16815250508060010154848360ff168151811061133a5761133a61236a565b6020026020010181815250508060020154838360ff16815181106113605761136061236a565b6020908102919091010152508061137681612396565b915050611214565b5091939550919395565b611390611ac3565b6001600160a01b0381166113d85760405162461bcd60e51b815260206004820152600f60248201526e496e76616c6964206164647265737360881b604482015260640161021e565b600380546001600160a01b038381166001600160a01b0319831681179093556040519116919082907ff1f34e0fc899850dc916e4128492f6cb73a06c53bae553fb09883f5dadf061d890600090a35050565b6002816004811061143a57600080fd5b60209182820401919006915054906101000a900460ff1681565b6000808260008160ff1611801561146f5750601060ff821611155b61148b5760405162461bcd60e51b815260040161021e906125f7565b6001600160a01b038516600090815260176020908152604080832060ff8089168552600790910190925290912054600160301b9004166114d157600080925092506115a1565b60ff84166000908152601a60209081526040808320546019909252909120546114fa9190612660565b60ff85166000908152601a60205260409020549092505b60ff851660009081526019602052604090205481101561159b5783611535816125de565b60ff8716600090815260196020526040902080549196506001600160a01b038916925090839081106115695761156961236a565b6000918252602090912001546001600160a01b03160361158957506115a1565b80611593816125de565b915050611511565b50600092505b509250929050565b6115b1611ac3565b6001546040516001600160a01b03909116904780156108fc02916000818181858888f19350505050158015610cc3573d6000803e3d6000fd5b6115f2611ac3565b6001600160a01b03811661161c57604051631e4fbdf760e01b81526000600482015260240161021e565b610cc381611b45565b6001815b600360ff83161180159061164557506001600160a01b03811615155b156116a6576001600160a01b0381166000908152601760205260408120600301805491611671836125de565b90915550506001600160a01b03908116600090815260176020526040902060020154168161169e81612396565b925050611629565b505050565b6002600054036116ce57604051633ee5aeb560e01b815260040160405180910390fd5b6002600055565b33600090815260176020908152604080832060ff8086168552600790910190925290912054600160301b9004166117a55733600081815260176020818152604080842060ff8716808652600782018452828620805466ff0000ffffffff191666010000000200011790556019845282862080546001810182559087528487200180546001600160a01b03191688179055959094529181529154905134815290917fb3ee66175caa7eb8cc743a754465090c36c078d31e7b31a0057133127e6087f5910160405180910390a36118ad565b33600090815260176020908152604080832060ff851684526007019091528120805461ffff16916117d583612673565b82546101009290920a61ffff81810219909316918316021790915533600090815260176020908152604080832060ff8716845260070190915290208054600293509091839161182c91839162010000900416612694565b82546101009290920a61ffff818102199093169183160217909155336000908152601760209081526040808320805460ff8816808652600790920184529382902054915162010000909204909416815292935090917ff164f79ccc8f5723ef68f84771de9a921c6ba456d540317ea133df467e3f8e6a910160405180910390a35b610cc33382611bda565b600060646118c6604a346126af565b6118d091906126c6565b60ff83166000908152601960209081526040808320601a9092528220548154939450919290919081106119055761190561236a565b6000918252602090912001546001600160a01b031690503381146119a05761192d8183611c86565b611938818484611d21565b6119428184611d97565b336000908152601760209081526040808320546001600160a01b03851684529281902054905185815260ff8716927fb970429b721aab5042efe513b75b71cd07615fdff866744e3d07dfe5998ffc66910160405180910390a46119e1565b6119bb6119b56001546001600160a01b031690565b83611c86565b6119d76119d06001546001600160a01b031690565b8484611d21565b6119e18184611d97565b60ff83166000908152601960209081526040808320601a9092529091205481548110611a0f57611a0f61236a565b6000918252602080832090910180546001600160a01b031916905560ff85168252601a905260408120805491611a44836125de565b9190505550505050565b6000611a5b6064346126c6565b905060015b600360ff8216116116a657600060028260ff1660048110611a8357611a8361236a565b602081049190910154611aa291601f166101000a900460ff16846126af565b9050611ab033838684611f32565b5080611abb81612396565b915050611a60565b6001546001600160a01b031633146108c85760405163118cdaa760e01b815233600482015260240161021e565b611af861218c565b6001805460ff60a01b191690557f5db9ee0a495bf2e6ff9c91a7834c1ba4fdd244a5e8aa4e537bd38aeae4b073aa335b6040516001600160a01b03909116815260200160405180910390a1565b600180546001600160a01b038381166001600160a01b0319831681179093556040519116919082907f8be0079c531659141344cd1fd0a4f28419497f9722a3daafe3b4186f6b6457e090600090a35050565b611b9f61089d565b6001805460ff60a01b1916600160a01b1790557f62e78cea01bee320cd4e420270b5ea74000d11b0c9f74754ebdbfc544b05a258611b283390565b60015b8160ff168160ff1610156116a6576001600160a01b038316600090815260176020908152604080832060ff8086168552600790910190925290912054600160301b9004168015611c335750611c338382846121b6565b15611c745760ff811660009081526019602090815260408220805460018101825590835291200180546001600160a01b0319166001600160a01b0385161790555b80611c7e81612396565b915050611bdd565b6000826001600160a01b03168260405160006040518083038185875af1925050503d8060008114611cd3576040519150601f19603f3d011682016040523d82523d6000602084013e611cd8565b606091505b50509050806116a6576001546040516001600160a01b039091169083156108fc029084906000818181858888f19350505050158015611d1b573d6000803e3d6000fd5b50505050565b6001600160a01b038316600090815260176020908152604080832060ff8616845260070190915281206001018054839290611d5d90849061261e565b90915550506001600160a01b03831660009081526017602052604081206005018054839290611d8d90849061261e565b9091555050505050565b6001600160a01b038216600090815260176020908152604080832060ff8516845260070190915290208054640100000000900461ffff16906004611dda83612673565b82546101009290920a61ffff8181021990931691831602179091556001600160a01b038416600090815260176020908152604080832060ff8716845260070190915281205490925062010000810482166401000000009091049091161015611e4457506001611ea1565b601060ff8316108015611e9857506001600160a01b038316600090815260176020526040812060070190611e79846001612631565b60ff9081168252602082019290925260400160002054600160301b9004165b15611ea1575060015b8015611ee95760ff821660009081526019602090815260408220805460018101825590835291200180546001600160a01b0385166001600160a01b0319909116179055505050565b6001600160a01b03831660009081526017602052604080822054905160ff8516927fae9c7cc1b10b0aa2e208296b682cc0000383f83093814233542a7c2eaf7e27d591a3505050565b6000611f3e8585612257565b905060005b6001600160a01b038216600090815260176020908152604080832060ff8089168552600790910190925290912054600160301b900416158015611f9457506001546001600160a01b03838116911614155b8015611fa857506001600160a01b03821615155b8015611fb75750600360ff8216105b1561207d576001600160a01b03821660009081526017602052604081206006018054859290611fe790849061261e565b90915550506001600160a01b0386811660009081526017602090815260408083205493861683529182902054915186815260ff88169392917fe9d5dfc09351e7b04248ed26514ea34cf12373d57d5206d9d46cd2ad5e487055910160405180910390a46001600160a01b03918216600090815260176020526040902060020154909116908061207581612396565b915050611f43565b6001600160a01b03821615806120975750600360ff821610155b156120ab576001546001600160a01b031691505b6120b58284611c86565b6001600160a01b038216600090815260176020908152604080832060ff88168452600701909152812060020180548592906120f190849061261e565b90915550506001600160a01b0382166000908152601760205260408120600401805485929061212190849061261e565b90915550506001600160a01b0386811660009081526017602090815260408083205493861683529182902054915186815260ff88169392917f6d8172da503639a6daa587046b28564afbee4369eca5d54e7551a07a591db533910160405180910390a4505050505050565b600154600160a01b900460ff166108c857604051638dfc202b60e01b815260040160405180910390fd5b6001600160a01b038316600090815260176020908152604080832060ff80871685526007909101909252822080549091600160301b909104166121fd576000915050612250565b805461ffff6201000082048116640100000000909204161015612224576000915050612250565b601060ff851610612239576001915050612250565b60ff8316612248856001612631565b60ff16149150505b9392505050565b6001600160a01b0380831660009081526017602052604081206002015490911660015b8360ff168160ff1610801561229d57506001546001600160a01b03838116911614155b80156122b157506001600160a01b03821615155b156122ef576001600160a01b039182166000908152601760205260409020600201549091169081156122ef57806122e781612396565b91505061227a565b506001600160a01b038116156123055780612312565b6001546001600160a01b03165b9150505b92915050565b6040518061022001604052806011906020820280368337509192915050565b60208082526015908201527410dbdb9d1c9858dd1cc81b9bdd08185b1b1bddd959605a1b604082015260600190565b634e487b7160e01b600052603260045260246000fd5b634e487b7160e01b600052601160045260246000fd5b600060ff821660ff81036123ac576123ac612380565b60010192915050565b803560ff811681146123c657600080fd5b919050565b6000602082840312156123dd57600080fd5b612250826123b5565b6001600160a01b0381168114610cc357600080fd5b6000806040838503121561240e57600080fd5b8235612419816123e6565b9150612427602084016123b5565b90509250929050565b60006020828403121561244257600080fd5b8135612250816123e6565b6102208101818360005b6011811015612476578151835260209283019290910190600101612457565b50505092915050565b60006020828403121561249157600080fd5b5035919050565b600080604083850312156124ab57600080fd5b6124b4836123b5565b946020939093013593505050565b600081518084526020808501945080840160005b838110156124f657815161ffff16875295820195908201906001016124d6565b509495945050505050565b600081518084526020808501945080840160005b838110156124f657815187529582019590820190600101612515565b60c0808252875190820181905260009060209060e0840190828b01845b8281101561256c57815115158452928401929084019060010161254e565b50505083810382850152612580818a6124c2565b915050828103604084015261259581886124c2565b905082810360608401526125a981876124c2565b905082810360808401526125bd8186612501565b905082810360a08401526125d18185612501565b9998505050505050505050565b6000600182016125f0576125f0612380565b5060010190565b6020808252600d908201526c125b9d985b1a59081b195d995b609a1b604082015260600190565b8082018082111561231657612316612380565b60ff818116838216019081111561231657612316612380565b634e487b7160e01b600052604160045260246000fd5b8181038181111561231657612316612380565b600061ffff80831681810361268a5761268a612380565b6001019392505050565b61ffff818116838216019080821115610dea57610dea612380565b808202811582820484141761231657612316612380565b6000826126e357634e487b7160e01b600052601260045260246000fd5b50049056fea26469706673582212206a484d1580d0038cd1fe6ea3b78cf8e602fd1e6105e35bb4a1a64da3901fc1b464736f6c63430008140033","opcodes":"PUSH2 0x100 PUSH1 0x40 MSTORE PUSH1 0x0 PUSH1 0x80 SWAP1 DUP2 MSTORE PUSH1 0xD PUSH1 0xA0 MSTORE PUSH1 0x8 PUSH1 0xC0 MSTORE PUSH1 0x5 PUSH1 0xE0 MSTORE PUSH3 0x2B SWAP1 PUSH1 0x2 SWAP1 PUSH1 0x4 PUSH3 0x547 JUMP JUMPDEST POP PUSH1 0x40 DUP1 MLOAD PUSH2 0x220 DUP2 ADD DUP3 MSTORE PUSH1 0x0 DUP2 MSTORE PUSH7 0xB1A2BC2EC50000 PUSH1 0x20 DUP3 ADD MSTORE PUSH7 0xF8B0A10E470000 SWAP2 DUP2 ADD SWAP2 SWAP1 SWAP2 MSTORE PUSH8 0x16345785D8A0000 PUSH1 0x60 DUP3 ADD MSTORE PUSH8 0x1F161421C8E0000 PUSH1 0x80 DUP3 ADD MSTORE PUSH8 0x2C68AF0BB140000 PUSH1 0xA0 DUP3 ADD MSTORE PUSH8 0x3E2C284391C0000 PUSH1 0xC0 DUP3 ADD MSTORE PUSH8 0x58D15E176280000 PUSH1 0xE0 DUP3 ADD MSTORE PUSH8 0x7A1FE1602770000 PUSH2 0x100 DUP3 ADD MSTORE PUSH8 0xB1A2BC2EC500000 PUSH2 0x120 DUP3 ADD MSTORE PUSH8 0xF43FC2C04EE0000 PUSH2 0x140 DUP3 ADD MSTORE PUSH8 0x16345785D8A00000 PUSH2 0x160 DUP3 ADD MSTORE PUSH8 0x1E87F85809DC0000 PUSH2 0x180 DUP3 ADD MSTORE PUSH8 0x2C68AF0BB1400000 PUSH2 0x1A0 DUP3 ADD MSTORE PUSH8 0x3D0FF0B013B80000 PUSH2 0x1C0 DUP3 ADD MSTORE PUSH8 0x5A34A38FC00A0000 PUSH2 0x1E0 DUP3 ADD MSTORE PUSH8 0x6F05B59D3B200000 PUSH2 0x200 DUP3 ADD MSTORE PUSH3 0x134 SWAP1 PUSH1 0x4 SWAP1 PUSH1 0x11 PUSH3 0x5E1 JUMP JUMPDEST POP PUSH1 0x2 PUSH1 0x16 SSTORE CALLVALUE DUP1 ISZERO PUSH3 0x147 JUMPI PUSH1 0x0 DUP1 REVERT JUMPDEST POP PUSH1 0x40 MLOAD PUSH3 0x2DC2 CODESIZE SUB DUP1 PUSH3 0x2DC2 DUP4 CODECOPY DUP2 ADD PUSH1 0x40 DUP2 SWAP1 MSTORE PUSH3 0x16A SWAP2 PUSH3 0x634 JUMP JUMPDEST PUSH1 0x1 PUSH1 0x0 SSTORE CALLER DUP1 PUSH3 0x197 JUMPI PUSH1 0x40 MLOAD PUSH4 0x1E4FBDF7 PUSH1 0xE0 SHL DUP2 MSTORE PUSH1 0x0 PUSH1 0x4 DUP3 ADD MSTORE PUSH1 0x24 ADD JUMPDEST PUSH1 0x40 MLOAD DUP1 SWAP2 SUB SWAP1 REVERT JUMPDEST PUSH3 0x1A2 DUP2 PUSH3 0x298 JUMP JUMPDEST POP PUSH1 0x1 PUSH1 0x1 PUSH1 0xA0 SHL SUB DUP2 AND PUSH3 0x1FB JUMPI PUSH1 0x40 MLOAD PUSH3 0x461BCD PUSH1 0xE5 SHL DUP2 MSTORE PUSH1 0x20 PUSH1 0x4 DUP3 ADD MSTORE PUSH1 0x1C PUSH1 0x24 DUP3 ADD MSTORE PUSH32 0x496E76616C696420746F6B656E206275726E6572206164647265737300000000 PUSH1 0x44 DUP3 ADD MSTORE PUSH1 0x64 ADD PUSH3 0x18E JUMP JUMPDEST PUSH1 0x3 DUP1 SLOAD PUSH1 0x1 PUSH1 0x1 PUSH1 0xA0 SHL SUB NOT AND PUSH1 0x1 PUSH1 0x1 PUSH1 0xA0 SHL SUB DUP4 AND OR SWAP1 SSTORE PUSH1 0x4 JUMPDEST PUSH1 0x10 PUSH1 0xFF DUP3 AND GT PUSH3 0x250 JUMPI PUSH1 0xFF DUP2 AND PUSH1 0x0 SWAP1 DUP2 MSTORE PUSH1 0x15 PUSH1 0x20 MSTORE PUSH1 0x40 SWAP1 KECCAK256 PUSH1 0x1 SWAP1 SSTORE DUP1 PUSH3 0x247 DUP2 PUSH3 0x666 JUMP JUMPDEST SWAP2 POP POP PUSH3 0x219 JUMP JUMPDEST POP PUSH3 0x25B PUSH3 0x2EA JUMP JUMPDEST PUSH1 0x40 MLOAD PUSH1 0x1 PUSH1 0x1 PUSH1 0xA0 SHL SUB DUP3 AND SWAP1 PUSH1 0x0 SWAP1 PUSH32 0xF1F34E0FC899850DC916E4128492F6CB73A06C53BAE553FB09883F5DADF061D8 SWAP1 DUP3 SWAP1 LOG3 POP PUSH3 0x694 JUMP JUMPDEST PUSH1 0x1 DUP1 SLOAD PUSH1 0x1 PUSH1 0x1 PUSH1 0xA0 SHL SUB DUP4 DUP2 AND PUSH1 0x1 PUSH1 0x1 PUSH1 0xA0 SHL SUB NOT DUP4 AND DUP2 OR SWAP1 SWAP4 SSTORE PUSH1 0x40 MLOAD SWAP2 AND SWAP2 SWAP1 DUP3 SWAP1 PUSH32 0x8BE0079C531659141344CD1FD0A4F28419497F9722A3DAAFE3B4186F6B6457E0 SWAP1 PUSH1 0x0 SWAP1 LOG3 POP POP JUMP JUMPDEST PUSH1 0x1 PUSH1 0x17 PUSH1 0x0 PUSH3 0x303 PUSH1 0x1 SLOAD PUSH1 0x1 PUSH1 0x1 PUSH1 0xA0 SHL SUB AND SWAP1 JUMP JUMPDEST PUSH1 0x1 PUSH1 0x1 PUSH1 0xA0 SHL SUB AND DUP2 MSTORE PUSH1 0x20 DUP2 ADD SWAP2 SWAP1 SWAP2 MSTORE PUSH1 0x40 ADD PUSH1 0x0 SWAP1 DUP2 KECCAK256 SWAP2 SWAP1 SWAP2 SSTORE TIMESTAMP SWAP1 PUSH1 0x17 SWAP1 PUSH3 0x33A PUSH1 0x1 SLOAD PUSH1 0x1 PUSH1 0x1 PUSH1 0xA0 SHL SUB AND SWAP1 JUMP JUMPDEST PUSH1 0x1 PUSH1 0x1 PUSH1 0xA0 SHL SUB AND DUP2 MSTORE PUSH1 0x20 DUP2 ADD SWAP2 SWAP1 SWAP2 MSTORE PUSH1 0x40 ADD PUSH1 0x0 SWAP1 DUP2 KECCAK256 PUSH1 0x1 ADD SWAP2 SWAP1 SWAP2 SSTORE PUSH1 0x17 DUP2 PUSH3 0x372 PUSH1 0x1 SLOAD PUSH1 0x1 PUSH1 0x1 PUSH1 0xA0 SHL SUB AND SWAP1 JUMP JUMPDEST PUSH1 0x1 PUSH1 0x1 PUSH1 0xA0 SHL SUB SWAP1 DUP2 AND DUP3 MSTORE PUSH1 0x20 DUP3 ADD SWAP3 SWAP1 SWAP3 MSTORE PUSH1 0x40 ADD PUSH1 0x0 KECCAK256 PUSH1 0x2 ADD DUP1 SLOAD PUSH1 0x1 PUSH1 0x1 PUSH1 0xA0 SHL SUB NOT AND SWAP3 SWAP1 SWAP2 AND SWAP2 SWAP1 SWAP2 OR SWAP1 SSTORE PUSH3 0x3B9 PUSH1 0x1 SLOAD PUSH1 0x1 PUSH1 0x1 PUSH1 0xA0 SHL SUB AND SWAP1 JUMP JUMPDEST PUSH1 0x1 PUSH1 0x0 DUP2 SWAP1 MSTORE PUSH1 0x18 PUSH1 0x20 MSTORE PUSH32 0xF3794665D3AF9B6FB6F858B70185898134F96768EF31C325D52E04F0AC195A4D DUP1 SLOAD PUSH1 0x1 PUSH1 0x1 PUSH1 0xA0 SHL SUB NOT AND PUSH1 0x1 PUSH1 0x1 PUSH1 0xA0 SHL SUB SWAP4 SWAP1 SWAP4 AND SWAP3 SWAP1 SWAP3 OR SWAP1 SWAP2 SSTORE PUSH1 0x1B DUP2 SWAP1 SSTORE PUSH1 0x1C DUP2 SWAP1 SSTORE JUMPDEST PUSH1 0x10 PUSH1 0xFF DUP3 AND GT PUSH3 0x544 JUMPI PUSH1 0x1 PUSH1 0x17 PUSH1 0x0 PUSH3 0x435 PUSH1 0x1 SLOAD PUSH1 0x1 PUSH1 0x1 PUSH1 0xA0 SHL SUB AND SWAP1 JUMP JUMPDEST PUSH1 0x1 PUSH1 0x1 PUSH1 0xA0 SHL SUB AND DUP2 MSTORE PUSH1 0x20 DUP1 DUP3 ADD SWAP3 SWAP1 SWAP3 MSTORE PUSH1 0x40 SWAP1 DUP2 ADD PUSH1 0x0 SWAP1 DUP2 KECCAK256 PUSH1 0xFF DUP7 AND DUP3 MSTORE PUSH1 0x7 ADD SWAP1 SWAP3 MSTORE DUP2 KECCAK256 DUP1 SLOAD SWAP3 ISZERO ISZERO PUSH7 0x1000000000000 MUL PUSH1 0xFF PUSH1 0x30 SHL NOT SWAP1 SWAP4 AND SWAP3 SWAP1 SWAP3 OR SWAP1 SWAP2 SSTORE PUSH2 0xDD5A SWAP1 PUSH1 0x17 SWAP1 PUSH3 0x499 PUSH1 0x1 SLOAD PUSH1 0x1 PUSH1 0x1 PUSH1 0xA0 SHL SUB AND SWAP1 JUMP JUMPDEST PUSH1 0x1 PUSH1 0x1 PUSH1 0xA0 SHL SUB AND DUP2 MSTORE PUSH1 0x20 DUP1 DUP3 ADD SWAP3 SWAP1 SWAP3 MSTORE PUSH1 0x40 SWAP1 DUP2 ADD PUSH1 0x0 SWAP1 DUP2 KECCAK256 PUSH1 0xFF DUP7 AND DUP3 MSTORE PUSH1 0x7 ADD DUP4 MSTORE DUP2 DUP2 KECCAK256 DUP1 SLOAD PUSH2 0xFFFF SWAP6 SWAP1 SWAP6 AND PUSH3 0x10000 MUL PUSH4 0xFFFF0000 NOT SWAP1 SWAP6 AND SWAP5 SWAP1 SWAP5 OR SWAP1 SWAP4 SSTORE PUSH1 0x19 SWAP1 SWAP2 MSTORE SWAP1 KECCAK256 PUSH3 0x4FD PUSH1 0x1 SLOAD PUSH1 0x1 PUSH1 0x1 PUSH1 0xA0 SHL SUB AND SWAP1 JUMP JUMPDEST DUP2 SLOAD PUSH1 0x1 DUP2 ADD DUP4 SSTORE PUSH1 0x0 SWAP3 DUP4 MSTORE PUSH1 0x20 SWAP1 SWAP3 KECCAK256 SWAP1 SWAP2 ADD DUP1 SLOAD PUSH1 0x1 PUSH1 0x1 PUSH1 0xA0 SHL SUB NOT AND PUSH1 0x1 PUSH1 0x1 PUSH1 0xA0 SHL SUB SWAP1 SWAP3 AND SWAP2 SWAP1 SWAP2 OR SWAP1 SSTORE DUP1 PUSH3 0x53B DUP2 PUSH3 0x666 JUMP JUMPDEST SWAP2 POP POP PUSH3 0x410 JUMP JUMPDEST POP JUMP JUMPDEST PUSH1 0x1 DUP4 ADD SWAP2 DUP4 SWAP1 DUP3 ISZERO PUSH3 0x5CF JUMPI SWAP2 PUSH1 0x20 MUL DUP3 ADD PUSH1 0x0 JUMPDEST DUP4 DUP3 GT ISZERO PUSH3 0x59E JUMPI DUP4 MLOAD DUP4 DUP3 PUSH2 0x100 EXP DUP2 SLOAD DUP2 PUSH1 0xFF MUL NOT AND SWAP1 DUP4 PUSH1 0xFF AND MUL OR SWAP1 SSTORE POP SWAP3 PUSH1 0x20 ADD SWAP3 PUSH1 0x1 ADD PUSH1 0x20 DUP2 PUSH1 0x0 ADD DIV SWAP3 DUP4 ADD SWAP3 PUSH1 0x1 SUB MUL PUSH3 0x55E JUMP JUMPDEST DUP1 ISZERO PUSH3 0x5CD JUMPI DUP3 DUP2 PUSH2 0x100 EXP DUP2 SLOAD SWAP1 PUSH1 0xFF MUL NOT AND SWAP1 SSTORE PUSH1 0x1 ADD PUSH1 0x20 DUP2 PUSH1 0x0 ADD DIV SWAP3 DUP4 ADD SWAP3 PUSH1 0x1 SUB MUL PUSH3 0x59E JUMP JUMPDEST POP JUMPDEST POP PUSH3 0x5DD SWAP3 SWAP2 POP PUSH3 0x61D JUMP JUMPDEST POP SWAP1 JUMP JUMPDEST DUP3 PUSH1 0x11 DUP2 ADD SWAP3 DUP3 ISZERO PUSH3 0x5CF JUMPI SWAP2 PUSH1 0x20 MUL DUP3 ADD JUMPDEST DUP3 DUP2 GT ISZERO PUSH3 0x5CF JUMPI DUP3 MLOAD DUP3 SWAP1 PUSH1 0x1 PUSH1 0x1 PUSH1 0x40 SHL SUB AND SWAP1 SSTORE SWAP2 PUSH1 0x20 ADD SWAP2 SWAP1 PUSH1 0x1 ADD SWAP1 PUSH3 0x5F5 JUMP JUMPDEST JUMPDEST DUP1 DUP3 GT ISZERO PUSH3 0x5DD JUMPI PUSH1 0x0 DUP2 SSTORE PUSH1 0x1 ADD PUSH3 0x61E JUMP JUMPDEST PUSH1 0x0 PUSH1 0x20 DUP3 DUP5 SUB SLT ISZERO PUSH3 0x647 JUMPI PUSH1 0x0 DUP1 REVERT JUMPDEST DUP2 MLOAD PUSH1 0x1 PUSH1 0x1 PUSH1 0xA0 SHL SUB DUP2 AND DUP2 EQ PUSH3 0x65F JUMPI PUSH1 0x0 DUP1 REVERT JUMPDEST SWAP4 SWAP3 POP POP POP JUMP JUMPDEST PUSH1 0x0 PUSH1 0xFF DUP3 AND PUSH1 0xFF DUP2 SUB PUSH3 0x68B JUMPI PUSH4 0x4E487B71 PUSH1 0xE0 SHL PUSH1 0x0 MSTORE PUSH1 0x11 PUSH1 0x4 MSTORE PUSH1 0x24 PUSH1 0x0 REVERT JUMPDEST PUSH1 0x1 ADD SWAP3 SWAP2 POP POP JUMP JUMPDEST PUSH2 0x271E DUP1 PUSH3 0x6A4 PUSH1 0x0 CODECOPY PUSH1 0x0 RETURN INVALID PUSH1 0x80 PUSH1 0x40 MSTORE PUSH1 0x4 CALLDATASIZE LT PUSH2 0x1F2 JUMPI PUSH1 0x0 CALLDATALOAD PUSH1 0xE0 SHR DUP1 PUSH4 0x6B4169C3 GT PUSH2 0x10D JUMPI DUP1 PUSH4 0x968763A0 GT PUSH2 0xA0 JUMPI DUP1 PUSH4 0xBD4616F4 GT PUSH2 0x6F JUMPI DUP1 PUSH4 0xBD4616F4 EQ PUSH2 0x7DD JUMPI DUP1 PUSH4 0xCFCE5044 EQ PUSH2 0x7FD JUMPI DUP1 PUSH4 0xDB2E21BC EQ PUSH2 0x832 JUMPI DUP1 PUSH4 0xDEA64DC5 EQ PUSH2 0x847 JUMPI DUP1 PUSH4 0xF2FDE38B EQ PUSH2 0x87D JUMPI PUSH1 0x0 DUP1 REVERT JUMPDEST DUP1 PUSH4 0x968763A0 EQ PUSH2 0x6D3 JUMPI DUP1 PUSH4 0xA87430BA EQ PUSH2 0x6E6 JUMPI DUP1 PUSH4 0xB0566497 EQ PUSH2 0x78B JUMPI DUP1 PUSH4 0xB0AF768B EQ PUSH2 0x7BD JUMPI PUSH1 0x0 DUP1 REVERT JUMPDEST DUP1 PUSH4 0x8456CB59 GT PUSH2 0xDC JUMPI DUP1 PUSH4 0x8456CB59 EQ PUSH2 0x678 JUMPI DUP1 PUSH4 0x8D17A4D0 EQ PUSH2 0x68D JUMPI DUP1 PUSH4 0x8DA5CB5B EQ PUSH2 0x6A0 JUMPI DUP1 PUSH4 0x8F1FCD7A EQ PUSH2 0x6BE JUMPI PUSH1 0x0 DUP1 REVERT JUMPDEST DUP1 PUSH4 0x6B4169C3 EQ PUSH2 0x584 JUMPI DUP1 PUSH4 0x6F77926B EQ PUSH2 0x59F JUMPI DUP1 PUSH4 0x6F9FB98A EQ PUSH2 0x650 JUMPI DUP1 PUSH4 0x715018A6 EQ PUSH2 0x663 JUMPI PUSH1 0x0 DUP1 REVERT JUMPDEST DUP1 PUSH4 0x2996F972 GT PUSH2 0x185 JUMPI DUP1 PUSH4 0x4DEBC14F GT PUSH2 0x154 JUMPI DUP1 PUSH4 0x4DEBC14F EQ PUSH2 0x4F6 JUMPI DUP1 PUSH4 0x5C975ABB EQ PUSH2 0x516 JUMPI DUP1 PUSH4 0x60891FE4 EQ PUSH2 0x535 JUMPI DUP1 PUSH4 0x6702C7BF EQ PUSH2 0x56F JUMPI PUSH1 0x0 DUP1 REVERT JUMPDEST DUP1 PUSH4 0x2996F972 EQ PUSH2 0x467 JUMPI DUP1 PUSH4 0x37E3C789 EQ PUSH2 0x49F JUMPI DUP1 PUSH4 0x3F4BA83A EQ PUSH2 0x4C1 JUMPI DUP1 PUSH4 0x48135DF0 EQ PUSH2 0x4D6 JUMPI PUSH1 0x0 DUP1 REVERT JUMPDEST DUP1 PUSH4 0x163F7522 GT PUSH2 0x1C1 JUMPI DUP1 PUSH4 0x163F7522 EQ PUSH2 0x3F7 JUMPI DUP1 PUSH4 0x1AA3A008 EQ PUSH2 0x42F JUMPI DUP1 PUSH4 0x23994D9C EQ PUSH2 0x437 JUMPI DUP1 PUSH4 0x2663E0B5 EQ PUSH2 0x44C JUMPI PUSH1 0x0 DUP1 REVERT JUMPDEST DUP1 PUSH4 0x3B56A03 EQ PUSH2 0x333 JUMPI DUP1 PUSH4 0x6FBEDBE EQ PUSH2 0x373 JUMPI DUP1 PUSH4 0x91B430A EQ PUSH2 0x39A JUMPI DUP1 PUSH4 0xE475EFD EQ PUSH2 0x3C7 JUMPI PUSH1 0x0 DUP1 REVERT JUMPDEST CALLDATASIZE PUSH2 0x32E JUMPI PUSH2 0x1FF PUSH2 0x89D JUMP JUMPDEST CALLER EXTCODESIZE ISZERO PUSH2 0x227 JUMPI PUSH1 0x40 MLOAD PUSH3 0x461BCD PUSH1 0xE5 SHL DUP2 MSTORE PUSH1 0x4 ADD PUSH2 0x21E SWAP1 PUSH2 0x233B JUMP JUMPDEST PUSH1 0x40 MLOAD DUP1 SWAP2 SUB SWAP1 REVERT JUMPDEST CALLER PUSH1 0x0 SWAP1 DUP2 MSTORE PUSH1 0x17 PUSH1 0x20 MSTORE PUSH1 0x40 SWAP1 KECCAK256 SLOAD PUSH2 0x2A5 JUMPI PUSH7 0x58D15E17628000 CALLVALUE SUB PUSH2 0x265 JUMPI PUSH2 0x263 PUSH2 0x25E PUSH1 0x1 SLOAD PUSH1 0x1 PUSH1 0x1 PUSH1 0xA0 SHL SUB AND SWAP1 JUMP JUMPDEST PUSH2 0x8CA JUMP JUMPDEST STOP JUMPDEST PUSH1 0x40 MLOAD PUSH3 0x461BCD PUSH1 0xE5 SHL DUP2 MSTORE PUSH1 0x20 PUSH1 0x4 DUP3 ADD MSTORE PUSH1 0x15 PUSH1 0x24 DUP3 ADD MSTORE PUSH21 0x149959DA5CDD1C985D1A5BDB881C995C5D5A5C9959 PUSH1 0x5A SHL PUSH1 0x44 DUP3 ADD MSTORE PUSH1 0x64 ADD PUSH2 0x21E JUMP JUMPDEST PUSH1 0x1 JUMPDEST PUSH1 0x10 PUSH1 0xFF DUP3 AND GT PUSH2 0x2EC JUMPI CALLVALUE PUSH1 0x4 DUP3 PUSH1 0xFF AND PUSH1 0x11 DUP2 LT PUSH2 0x2CA JUMPI PUSH2 0x2CA PUSH2 0x236A JUMP JUMPDEST ADD SLOAD SUB PUSH2 0x2DA JUMPI PUSH2 0x263 DUP2 PUSH2 0xA5B JUMP JUMPDEST DUP1 PUSH2 0x2E4 DUP2 PUSH2 0x2396 JUMP JUMPDEST SWAP2 POP POP PUSH2 0x2A8 JUMP JUMPDEST POP PUSH1 0x40 MLOAD PUSH3 0x461BCD PUSH1 0xE5 SHL DUP2 MSTORE PUSH1 0x20 PUSH1 0x4 DUP3 ADD MSTORE PUSH1 0x16 PUSH1 0x24 DUP3 ADD MSTORE PUSH22 0x125B9D985B1A59081C185E5B595B9D08185B5BDD5B9D PUSH1 0x52 SHL PUSH1 0x44 DUP3 ADD MSTORE PUSH1 0x64 ADD PUSH2 0x21E JUMP JUMPDEST PUSH1 0x0 DUP1 REVERT JUMPDEST CALLVALUE DUP1 ISZERO PUSH2 0x33F JUMPI PUSH1 0x0 DUP1 REVERT JUMPDEST POP PUSH2 0x360 PUSH2 0x34E CALLDATASIZE PUSH1 0x4 PUSH2 0x23CB JUMP JUMPDEST PUSH1 0x15 PUSH1 0x20 MSTORE PUSH1 0x0 SWAP1 DUP2 MSTORE PUSH1 0x40 SWAP1 KECCAK256 SLOAD DUP2 JUMP JUMPDEST PUSH1 0x40 MLOAD SWAP1 DUP2 MSTORE PUSH1 0x20 ADD JUMPDEST PUSH1 0x40 MLOAD DUP1 SWAP2 SUB SWAP1 RETURN JUMPDEST CALLVALUE DUP1 ISZERO PUSH2 0x37F JUMPI PUSH1 0x0 DUP1 REVERT JUMPDEST POP PUSH2 0x388 PUSH1 0x4A DUP2 JUMP JUMPDEST PUSH1 0x40 MLOAD PUSH1 0xFF SWAP1 SWAP2 AND DUP2 MSTORE PUSH1 0x20 ADD PUSH2 0x36A JUMP JUMPDEST CALLVALUE DUP1 ISZERO PUSH2 0x3A6 JUMPI PUSH1 0x0 DUP1 REVERT JUMPDEST POP PUSH2 0x360 PUSH2 0x3B5 CALLDATASIZE PUSH1 0x4 PUSH2 0x23CB JUMP JUMPDEST PUSH1 0x1A PUSH1 0x20 MSTORE PUSH1 0x0 SWAP1 DUP2 MSTORE PUSH1 0x40 SWAP1 KECCAK256 SLOAD DUP2 JUMP JUMPDEST CALLVALUE DUP1 ISZERO PUSH2 0x3D3 JUMPI PUSH1 0x0 DUP1 REVERT JUMPDEST POP PUSH2 0x3E7 PUSH2 0x3E2 CALLDATASIZE PUSH1 0x4 PUSH2 0x23FB JUMP JUMPDEST PUSH2 0xCC6 JUMP JUMPDEST PUSH1 0x40 MLOAD SWAP1 ISZERO ISZERO DUP2 MSTORE PUSH1 0x20 ADD PUSH2 0x36A JUMP JUMPDEST CALLVALUE DUP1 ISZERO PUSH2 0x403 JUMPI PUSH1 0x0 DUP1 REVERT JUMPDEST POP PUSH2 0x3E7 PUSH2 0x412 CALLDATASIZE PUSH1 0x4 PUSH2 0x2430 JUMP JUMPDEST PUSH1 0x1 PUSH1 0x1 PUSH1 0xA0 SHL SUB AND PUSH1 0x0 SWAP1 DUP2 MSTORE PUSH1 0x17 PUSH1 0x20 MSTORE PUSH1 0x40 SWAP1 KECCAK256 SLOAD ISZERO ISZERO SWAP1 JUMP JUMPDEST PUSH2 0x263 PUSH2 0xDF1 JUMP JUMPDEST CALLVALUE DUP1 ISZERO PUSH2 0x443 JUMPI PUSH1 0x0 DUP1 REVERT JUMPDEST POP PUSH2 0x388 PUSH1 0x3 DUP2 JUMP JUMPDEST CALLVALUE DUP1 ISZERO PUSH2 0x458 JUMPI PUSH1 0x0 DUP1 REVERT JUMPDEST POP PUSH2 0x360 PUSH7 0x58D15E17628000 DUP2 JUMP JUMPDEST CALLVALUE DUP1 ISZERO PUSH2 0x473 JUMPI PUSH1 0x0 DUP1 REVERT JUMPDEST POP PUSH1 0x3 SLOAD PUSH2 0x487 SWAP1 PUSH1 0x1 PUSH1 0x1 PUSH1 0xA0 SHL SUB AND DUP2 JUMP JUMPDEST PUSH1 0x40 MLOAD PUSH1 0x1 PUSH1 0x1 PUSH1 0xA0 SHL SUB SWAP1 SWAP2 AND DUP2 MSTORE PUSH1 0x20 ADD PUSH2 0x36A JUMP JUMPDEST CALLVALUE DUP1 ISZERO PUSH2 0x4AB JUMPI PUSH1 0x0 DUP1 REVERT JUMPDEST POP PUSH2 0x4B4 PUSH2 0xE0E JUMP JUMPDEST PUSH1 0x40 MLOAD PUSH2 0x36A SWAP2 SWAP1 PUSH2 0x244D JUMP JUMPDEST CALLVALUE DUP1 ISZERO PUSH2 0x4CD JUMPI PUSH1 0x0 DUP1 REVERT JUMPDEST POP PUSH2 0x263 PUSH2 0xE4A JUMP JUMPDEST CALLVALUE DUP1 ISZERO PUSH2 0x4E2 JUMPI PUSH1 0x0 DUP1 REVERT JUMPDEST POP PUSH2 0x360 PUSH2 0x4F1 CALLDATASIZE PUSH1 0x4 PUSH2 0x247F JUMP JUMPDEST PUSH2 0xE5A JUMP JUMPDEST CALLVALUE DUP1 ISZERO PUSH2 0x502 JUMPI PUSH1 0x0 DUP1 REVERT JUMPDEST POP PUSH2 0x487 PUSH2 0x511 CALLDATASIZE PUSH1 0x4 PUSH2 0x2498 JUMP JUMPDEST PUSH2 0xE71 JUMP JUMPDEST CALLVALUE DUP1 ISZERO PUSH2 0x522 JUMPI PUSH1 0x0 DUP1 REVERT JUMPDEST POP PUSH1 0x1 SLOAD PUSH1 0x1 PUSH1 0xA0 SHL SWAP1 DIV PUSH1 0xFF AND PUSH2 0x3E7 JUMP JUMPDEST CALLVALUE DUP1 ISZERO PUSH2 0x541 JUMPI PUSH1 0x0 DUP1 REVERT JUMPDEST POP PUSH1 0x1B SLOAD PUSH1 0x1C SLOAD PUSH1 0x1D SLOAD PUSH2 0x554 SWAP3 SWAP2 SWAP1 DUP4 JUMP JUMPDEST PUSH1 0x40 DUP1 MLOAD SWAP4 DUP5 MSTORE PUSH1 0x20 DUP5 ADD SWAP3 SWAP1 SWAP3 MSTORE SWAP1 DUP3 ADD MSTORE PUSH1 0x60 ADD PUSH2 0x36A JUMP JUMPDEST CALLVALUE DUP1 ISZERO PUSH2 0x57B JUMPI PUSH1 0x0 DUP1 REVERT JUMPDEST POP PUSH2 0x388 PUSH1 0x10 DUP2 JUMP JUMPDEST CALLVALUE DUP1 ISZERO PUSH2 0x590 JUMPI PUSH1 0x0 DUP1 REVERT JUMPDEST POP PUSH1 0x1B SLOAD PUSH1 0x1C SLOAD PUSH1 0x1D SLOAD PUSH2 0x554 JUMP JUMPDEST CALLVALUE DUP1 ISZERO PUSH2 0x5AB JUMPI PUSH1 0x0 DUP1 REVERT JUMPDEST POP PUSH2 0x60D PUSH2 0x5BA CALLDATASIZE PUSH1 0x4 PUSH2 0x2430 JUMP JUMPDEST PUSH1 0x1 PUSH1 0x1 PUSH1 0xA0 SHL SUB SWAP1 DUP2 AND PUSH1 0x0 SWAP1 DUP2 MSTORE PUSH1 0x17 PUSH1 0x20 MSTORE PUSH1 0x40 DUP1 DUP3 KECCAK256 DUP1 SLOAD PUSH1 0x1 DUP3 ADD SLOAD PUSH1 0x2 DUP4 ADD SLOAD SWAP1 SWAP6 AND DUP1 DUP6 MSTORE SWAP3 SWAP1 SWAP4 KECCAK256 SLOAD PUSH1 0x3 DUP3 ADD SLOAD PUSH1 0x4 DUP4 ADD SLOAD PUSH1 0x5 DUP5 ADD SLOAD PUSH1 0x6 SWAP1 SWAP5 ADD SLOAD SWAP6 SWAP8 SWAP3 SWAP6 SWAP2 SWAP4 SWAP1 SWAP3 SWAP1 SWAP2 SWAP1 JUMP JUMPDEST PUSH1 0x40 DUP1 MLOAD SWAP9 DUP10 MSTORE PUSH1 0x20 DUP10 ADD SWAP8 SWAP1 SWAP8 MSTORE SWAP6 DUP8 ADD SWAP5 SWAP1 SWAP5 MSTORE PUSH1 0x1 PUSH1 0x1 PUSH1 0xA0 SHL SUB SWAP1 SWAP3 AND PUSH1 0x60 DUP7 ADD MSTORE PUSH1 0x80 DUP6 ADD MSTORE PUSH1 0xA0 DUP5 ADD MSTORE PUSH1 0xC0 DUP4 ADD MSTORE PUSH1 0xE0 DUP3 ADD MSTORE PUSH2 0x100 ADD PUSH2 0x36A JUMP JUMPDEST CALLVALUE DUP1 ISZERO PUSH2 0x65C JUMPI PUSH1 0x0 DUP1 REVERT JUMPDEST POP SELFBALANCE PUSH2 0x360 JUMP JUMPDEST CALLVALUE DUP1 ISZERO PUSH2 0x66F JUMPI PUSH1 0x0 DUP1 REVERT JUMPDEST POP PUSH2 0x263 PUSH2 0xEA9 JUMP JUMPDEST CALLVALUE DUP1 ISZERO PUSH2 0x684 JUMPI PUSH1 0x0 DUP1 REVERT JUMPDEST POP PUSH2 0x263 PUSH2 0xEBB JUMP JUMPDEST PUSH2 0x263 PUSH2 0x69B CALLDATASIZE PUSH1 0x4 PUSH2 0x23CB JUMP JUMPDEST PUSH2 0xA5B JUMP JUMPDEST CALLVALUE DUP1 ISZERO PUSH2 0x6AC JUMPI PUSH1 0x0 DUP1 REVERT JUMPDEST POP PUSH1 0x1 SLOAD PUSH1 0x1 PUSH1 0x1 PUSH1 0xA0 SHL SUB AND PUSH2 0x487 JUMP JUMPDEST CALLVALUE DUP1 ISZERO PUSH2 0x6CA JUMPI PUSH1 0x0 DUP1 REVERT JUMPDEST POP PUSH2 0x388 PUSH1 0x2 DUP2 JUMP JUMPDEST PUSH2 0x263 PUSH2 0x6E1 CALLDATASIZE PUSH1 0x4 PUSH2 0x2430 JUMP JUMPDEST PUSH2 0xECB JUMP JUMPDEST CALLVALUE DUP1 ISZERO PUSH2 0x6F2 JUMPI PUSH1 0x0 DUP1 REVERT JUMPDEST POP PUSH2 0x748 PUSH2 0x701 CALLDATASIZE PUSH1 0x4 PUSH2 0x2430 JUMP JUMPDEST PUSH1 0x17 PUSH1 0x20 MSTORE PUSH1 0x0 SWAP1 DUP2 MSTORE PUSH1 0x40 SWAP1 KECCAK256 DUP1 SLOAD PUSH1 0x1 DUP3 ADD SLOAD PUSH1 0x2 DUP4 ADD SLOAD PUSH1 0x3 DUP5 ADD SLOAD PUSH1 0x4 DUP6 ADD SLOAD PUSH1 0x5 DUP7 ADD SLOAD PUSH1 0x6 SWAP1 SWAP7 ADD SLOAD SWAP5 SWAP6 SWAP4 SWAP5 PUSH1 0x1 PUSH1 0x1 PUSH1 0xA0 SHL SUB SWAP1 SWAP4 AND SWAP4 SWAP2 SWAP3 SWAP1 SWAP2 SWAP1 DUP8 JUMP JUMPDEST PUSH1 0x40 DUP1 MLOAD SWAP8 DUP9 MSTORE PUSH1 0x20 DUP9 ADD SWAP7 SWAP1 SWAP7 MSTORE PUSH1 0x1 PUSH1 0x1 PUSH1 0xA0 SHL SUB SWAP1 SWAP5 AND SWAP5 DUP7 ADD SWAP5 SWAP1 SWAP5 MSTORE PUSH1 0x60 DUP6 ADD SWAP2 SWAP1 SWAP2 MSTORE PUSH1 0x80 DUP5 ADD MSTORE PUSH1 0xA0 DUP4 ADD SWAP2 SWAP1 SWAP2 MSTORE PUSH1 0xC0 DUP3 ADD MSTORE PUSH1 0xE0 ADD PUSH2 0x36A JUMP JUMPDEST CALLVALUE DUP1 ISZERO PUSH2 0x797 JUMPI PUSH1 0x0 DUP1 REVERT JUMPDEST POP PUSH2 0x7AB PUSH2 0x7A6 CALLDATASIZE PUSH1 0x4 PUSH2 0x2430 JUMP JUMPDEST PUSH2 0x1018 JUMP JUMPDEST PUSH1 0x40 MLOAD PUSH2 0x36A SWAP7 SWAP6 SWAP5 SWAP4 SWAP3 SWAP2 SWAP1 PUSH2 0x2531 JUMP JUMPDEST CALLVALUE DUP1 ISZERO PUSH2 0x7C9 JUMPI PUSH1 0x0 DUP1 REVERT JUMPDEST POP PUSH2 0x263 PUSH2 0x7D8 CALLDATASIZE PUSH1 0x4 PUSH2 0x2430 JUMP JUMPDEST PUSH2 0x1388 JUMP JUMPDEST CALLVALUE DUP1 ISZERO PUSH2 0x7E9 JUMPI PUSH1 0x0 DUP1 REVERT JUMPDEST POP PUSH2 0x388 PUSH2 0x7F8 CALLDATASIZE PUSH1 0x4 PUSH2 0x247F JUMP JUMPDEST PUSH2 0x142A JUMP JUMPDEST CALLVALUE DUP1 ISZERO PUSH2 0x809 JUMPI PUSH1 0x0 DUP1 REVERT JUMPDEST POP PUSH2 0x81D PUSH2 0x818 CALLDATASIZE PUSH1 0x4 PUSH2 0x23FB JUMP JUMPDEST PUSH2 0x1454 JUMP JUMPDEST PUSH1 0x40 DUP1 MLOAD SWAP3 DUP4 MSTORE PUSH1 0x20 DUP4 ADD SWAP2 SWAP1 SWAP2 MSTORE ADD PUSH2 0x36A JUMP JUMPDEST CALLVALUE DUP1 ISZERO PUSH2 0x83E JUMPI PUSH1 0x0 DUP1 REVERT JUMPDEST POP PUSH2 0x263 PUSH2 0x15A9 JUMP JUMPDEST CALLVALUE DUP1 ISZERO PUSH2 0x853 JUMPI PUSH1 0x0 DUP1 REVERT JUMPDEST POP PUSH2 0x487 PUSH2 0x862 CALLDATASIZE PUSH1 0x4 PUSH2 0x247F JUMP JUMPDEST PUSH1 0x18 PUSH1 0x20 MSTORE PUSH1 0x0 SWAP1 DUP2 MSTORE PUSH1 0x40 SWAP1 KECCAK256 SLOAD PUSH1 0x1 PUSH1 0x1 PUSH1 0xA0 SHL SUB AND DUP2 JUMP JUMPDEST CALLVALUE DUP1 ISZERO PUSH2 0x889 JUMPI PUSH1 0x0 DUP1 REVERT JUMPDEST POP PUSH2 0x263 PUSH2 0x898 CALLDATASIZE PUSH1 0x4 PUSH2 0x2430 JUMP JUMPDEST PUSH2 0x15EA JUMP JUMPDEST PUSH1 0x1 SLOAD PUSH1 0x1 PUSH1 0xA0 SHL SWAP1 DIV PUSH1 0xFF AND ISZERO PUSH2 0x8C8 JUMPI PUSH1 0x40 MLOAD PUSH4 0xD93C0665 PUSH1 0xE0 SHL DUP2 MSTORE PUSH1 0x4 ADD PUSH1 0x40 MLOAD DUP1 SWAP2 SUB SWAP1 REVERT JUMPDEST JUMP JUMPDEST PUSH1 0x16 DUP1 SLOAD PUSH1 0x0 SWAP2 DUP3 PUSH2 0x8DB DUP4 PUSH2 0x25DE JUMP JUMPDEST SWAP1 SWAP2 SSTORE POP CALLER PUSH1 0x0 DUP2 DUP2 MSTORE PUSH1 0x17 PUSH1 0x20 SWAP1 DUP2 MSTORE PUSH1 0x40 DUP1 DUP4 KECCAK256 DUP6 DUP2 SSTORE TIMESTAMP PUSH1 0x1 DUP3 ADD SSTORE PUSH1 0x2 ADD DUP1 SLOAD PUSH1 0x1 PUSH1 0x1 PUSH1 0xA0 SHL SUB DUP10 AND PUSH1 0x1 PUSH1 0x1 PUSH1 0xA0 SHL SUB NOT SWAP2 DUP3 AND OR SWAP1 SWAP2 SSTORE DUP6 DUP5 MSTORE PUSH1 0x18 SWAP1 SWAP3 MSTORE SWAP1 SWAP2 KECCAK256 DUP1 SLOAD SWAP1 SWAP2 AND SWAP1 SWAP2 OR SWAP1 SSTORE SWAP1 POP PUSH2 0x939 DUP3 PUSH2 0x1625 JUMP JUMPDEST PUSH1 0x3 SLOAD PUSH1 0x40 MLOAD PUSH1 0x0 SWAP2 PUSH1 0x1 PUSH1 0x1 PUSH1 0xA0 SHL SUB AND SWAP1 CALLVALUE SWAP1 DUP4 DUP2 DUP2 DUP2 DUP6 DUP8 GAS CALL SWAP3 POP POP POP RETURNDATASIZE DUP1 PUSH1 0x0 DUP2 EQ PUSH2 0x986 JUMPI PUSH1 0x40 MLOAD SWAP2 POP PUSH1 0x1F NOT PUSH1 0x3F RETURNDATASIZE ADD AND DUP3 ADD PUSH1 0x40 MSTORE RETURNDATASIZE DUP3 MSTORE RETURNDATASIZE PUSH1 0x0 PUSH1 0x20 DUP5 ADD RETURNDATACOPY PUSH2 0x98B JUMP JUMPDEST PUSH1 0x60 SWAP2 POP JUMPDEST POP POP SWAP1 POP DUP1 PUSH2 0x9E8 JUMPI PUSH1 0x40 MLOAD PUSH3 0x461BCD PUSH1 0xE5 SHL DUP2 MSTORE PUSH1 0x20 PUSH1 0x4 DUP3 ADD MSTORE PUSH1 0x23 PUSH1 0x24 DUP3 ADD MSTORE PUSH32 0x424E42207472616E7366657220746F20746F6B656E206275726E657220666169 PUSH1 0x44 DUP3 ADD MSTORE PUSH3 0x1B1959 PUSH1 0xEA SHL PUSH1 0x64 DUP3 ADD MSTORE PUSH1 0x84 ADD PUSH2 0x21E JUMP JUMPDEST PUSH1 0x1B DUP1 SLOAD SWAP1 PUSH1 0x0 PUSH2 0x9F8 DUP4 PUSH2 0x25DE JUMP JUMPDEST SWAP1 SWAP2 SSTORE POP POP PUSH1 0x1C DUP1 SLOAD SWAP1 PUSH1 0x0 PUSH2 0xA0D DUP4 PUSH2 0x25DE JUMP JUMPDEST SWAP1 SWAP2 SSTORE POP POP PUSH1 0x1 PUSH1 0x1 PUSH1 0xA0 SHL SUB DUP4 AND PUSH1 0x0 SWAP1 DUP2 MSTORE PUSH1 0x17 PUSH1 0x20 MSTORE PUSH1 0x40 DUP1 DUP3 KECCAK256 SLOAD SWAP1 MLOAD CALLER SWAP3 DUP6 SWAP2 PUSH32 0xD16B9E23EBCBB63125B93BAE9F6AB7816D405E981078401E617B7C0AF255806C SWAP2 SWAP1 LOG4 POP POP POP JUMP JUMPDEST PUSH2 0xA63 PUSH2 0x16AB JUMP JUMPDEST CALLER PUSH1 0x0 SWAP1 DUP2 MSTORE PUSH1 0x17 PUSH1 0x20 MSTORE PUSH1 0x40 SWAP1 KECCAK256 SLOAD PUSH2 0xAB5 JUMPI PUSH1 0x40 MLOAD PUSH3 0x461BCD PUSH1 0xE5 SHL DUP2 MSTORE PUSH1 0x20 PUSH1 0x4 DUP3 ADD MSTORE PUSH1 0x13 PUSH1 0x24 DUP3 ADD MSTORE PUSH19 0x155CD95C881B9BDD081C9959DA5CDD195C9959 PUSH1 0x6A SHL PUSH1 0x44 DUP3 ADD MSTORE PUSH1 0x64 ADD PUSH2 0x21E JUMP JUMPDEST DUP1 PUSH1 0x0 DUP2 PUSH1 0xFF AND GT DUP1 ISZERO PUSH2 0xACD JUMPI POP PUSH1 0x10 PUSH1 0xFF DUP3 AND GT ISZERO JUMPDEST PUSH2 0xAE9 JUMPI PUSH1 0x40 MLOAD PUSH3 0x461BCD PUSH1 0xE5 SHL DUP2 MSTORE PUSH1 0x4 ADD PUSH2 0x21E SWAP1 PUSH2 0x25F7 JUMP JUMPDEST PUSH2 0xAF1 PUSH2 0x89D JUMP JUMPDEST CALLER EXTCODESIZE ISZERO PUSH2 0xB10 JUMPI PUSH1 0x40 MLOAD PUSH3 0x461BCD PUSH1 0xE5 SHL DUP2 MSTORE PUSH1 0x4 ADD PUSH2 0x21E SWAP1 PUSH2 0x233B JUMP JUMPDEST CALLVALUE PUSH1 0x4 DUP4 PUSH1 0xFF AND PUSH1 0x11 DUP2 LT PUSH2 0xB27 JUMPI PUSH2 0xB27 PUSH2 0x236A JUMP JUMPDEST ADD SLOAD EQ PUSH2 0xB76 JUMPI PUSH1 0x40 MLOAD PUSH3 0x461BCD PUSH1 0xE5 SHL DUP2 MSTORE PUSH1 0x20 PUSH1 0x4 DUP3 ADD MSTORE PUSH1 0x1C PUSH1 0x24 DUP3 ADD MSTORE PUSH32 0x496E76616C696420424E4220616D6F756E7420666F72206C6576656C00000000 PUSH1 0x44 DUP3 ADD MSTORE PUSH1 0x64 ADD PUSH2 0x21E JUMP JUMPDEST PUSH1 0xFF DUP3 AND PUSH1 0x0 SWAP1 DUP2 MSTORE PUSH1 0x15 PUSH1 0x20 MSTORE PUSH1 0x40 SWAP1 KECCAK256 SLOAD PUSH1 0x1B SLOAD LT ISZERO PUSH2 0xBD0 JUMPI PUSH1 0x40 MLOAD PUSH3 0x461BCD PUSH1 0xE5 SHL DUP2 MSTORE PUSH1 0x20 PUSH1 0x4 DUP3 ADD MSTORE PUSH1 0x13 PUSH1 0x24 DUP3 ADD MSTORE PUSH19 0x4C6576656C206E6F7420617661696C61626C65 PUSH1 0x68 SHL PUSH1 0x44 DUP3 ADD MSTORE PUSH1 0x64 ADD PUSH2 0x21E JUMP JUMPDEST PUSH1 0x1 JUMPDEST DUP3 PUSH1 0xFF AND DUP2 PUSH1 0xFF AND LT ISZERO PUSH2 0xC6C JUMPI CALLER PUSH1 0x0 SWAP1 DUP2 MSTORE PUSH1 0x17 PUSH1 0x20 SWAP1 DUP2 MSTORE PUSH1 0x40 DUP1 DUP4 KECCAK256 PUSH1 0xFF DUP1 DUP7 AND DUP6 MSTORE PUSH1 0x7 SWAP1 SWAP2 ADD SWAP1 SWAP3 MSTORE SWAP1 SWAP2 KECCAK256 SLOAD PUSH1 0x1 PUSH1 0x30 SHL SWAP1 DIV AND PUSH2 0xC5A JUMPI PUSH1 0x40 MLOAD PUSH3 0x461BCD PUSH1 0xE5 SHL DUP2 MSTORE PUSH1 0x20 PUSH1 0x4 DUP3 ADD MSTORE PUSH1 0x1E PUSH1 0x24 DUP3 ADD MSTORE PUSH32 0x50726576696F7573206C6576656C73206D757374206265206163746976650000 PUSH1 0x44 DUP3 ADD MSTORE PUSH1 0x64 ADD PUSH2 0x21E JUMP JUMPDEST DUP1 PUSH2 0xC64 DUP2 PUSH2 0x2396 JUMP JUMPDEST SWAP2 POP POP PUSH2 0xBD3 JUMP JUMPDEST POP PUSH1 0x1C DUP1 SLOAD SWAP1 PUSH1 0x0 PUSH2 0xC7D DUP4 PUSH2 0x25DE JUMP JUMPDEST SWAP2 SWAP1 POP SSTORE POP CALLVALUE PUSH1 0x1B PUSH1 0x2 ADD PUSH1 0x0 DUP3 DUP3 SLOAD PUSH2 0xC97 SWAP2 SWAP1 PUSH2 0x261E JUMP JUMPDEST SWAP1 SWAP2 SSTORE POP PUSH2 0xCA6 SWAP1 POP DUP3 PUSH2 0x16D5 JUMP JUMPDEST PUSH2 0xCAF DUP3 PUSH2 0x18B7 JUMP JUMPDEST PUSH2 0xCB8 DUP3 PUSH2 0x1A4E JUMP JUMPDEST POP PUSH2 0xCC3 PUSH1 0x1 PUSH1 0x0 SSTORE JUMP JUMPDEST POP JUMP JUMPDEST PUSH1 0x0 DUP2 PUSH1 0x0 DUP2 PUSH1 0xFF AND GT DUP1 ISZERO PUSH2 0xCE0 JUMPI POP PUSH1 0x10 PUSH1 0xFF DUP3 AND GT ISZERO JUMPDEST PUSH2 0xCFC JUMPI PUSH1 0x40 MLOAD PUSH3 0x461BCD PUSH1 0xE5 SHL DUP2 MSTORE PUSH1 0x4 ADD PUSH2 0x21E SWAP1 PUSH2 0x25F7 JUMP JUMPDEST PUSH1 0x1 PUSH1 0x1 PUSH1 0xA0 SHL SUB DUP5 AND PUSH1 0x0 SWAP1 DUP2 MSTORE PUSH1 0x17 PUSH1 0x20 SWAP1 DUP2 MSTORE PUSH1 0x40 DUP1 DUP4 KECCAK256 PUSH1 0xFF DUP1 DUP9 AND DUP6 MSTORE PUSH1 0x7 SWAP1 SWAP2 ADD SWAP1 SWAP3 MSTORE SWAP1 SWAP2 KECCAK256 DUP1 SLOAD SWAP1 SWAP2 PUSH1 0x1 PUSH1 0x30 SHL SWAP1 SWAP2 DIV AND PUSH2 0xD44 JUMPI PUSH1 0x0 SWAP3 POP POP PUSH2 0xDEA JUMP JUMPDEST DUP1 SLOAD PUSH2 0xFFFF PUSH3 0x10000 DUP3 DIV DUP2 AND PUSH5 0x100000000 SWAP1 SWAP3 DIV AND LT ISZERO PUSH2 0xD6B JUMPI PUSH1 0x0 SWAP3 POP POP PUSH2 0xDEA JUMP JUMPDEST PUSH1 0x10 PUSH1 0xFF DUP6 AND LT PUSH2 0xD80 JUMPI PUSH1 0x1 SWAP3 POP POP PUSH2 0xDEA JUMP JUMPDEST PUSH1 0x10 PUSH2 0xD8D DUP6 PUSH1 0x1 PUSH2 0x2631 JUMP JUMPDEST PUSH1 0xFF AND GT PUSH2 0xDE4 JUMPI PUSH1 0x1 PUSH1 0x1 PUSH1 0xA0 SHL SUB DUP6 AND PUSH1 0x0 SWAP1 DUP2 MSTORE PUSH1 0x17 PUSH1 0x20 MSTORE PUSH1 0x40 DUP2 KECCAK256 PUSH1 0x7 ADD SWAP1 PUSH2 0xDBC DUP7 PUSH1 0x1 PUSH2 0x2631 JUMP JUMPDEST PUSH1 0xFF SWAP1 DUP2 AND DUP3 MSTORE PUSH1 0x20 DUP3 ADD SWAP3 SWAP1 SWAP3 MSTORE PUSH1 0x40 ADD PUSH1 0x0 KECCAK256 SLOAD PUSH1 0x1 PUSH1 0x30 SHL SWAP1 DIV AND ISZERO SWAP3 POP PUSH2 0xDEA SWAP1 POP JUMP JUMPDEST PUSH1 0x1 SWAP3 POP POP JUMPDEST POP SWAP3 SWAP2 POP POP JUMP JUMPDEST PUSH2 0xDF9 PUSH2 0x89D JUMP JUMPDEST PUSH2 0x8C8 PUSH2 0x6E1 PUSH1 0x1 SLOAD PUSH1 0x1 PUSH1 0x1 PUSH1 0xA0 SHL SUB AND SWAP1 JUMP JUMPDEST PUSH2 0xE16 PUSH2 0x231C JUMP JUMPDEST PUSH1 0x40 DUP1 MLOAD PUSH2 0x220 DUP2 ADD SWAP2 DUP3 SWAP1 MSTORE SWAP1 PUSH1 0x4 SWAP1 PUSH1 0x11 SWAP1 DUP3 DUP5 JUMPDEST DUP2 SLOAD DUP2 MSTORE PUSH1 0x20 ADD SWAP1 PUSH1 0x1 ADD SWAP1 DUP1 DUP4 GT PUSH2 0xE2D JUMPI POP POP POP POP POP SWAP1 POP SWAP1 JUMP JUMPDEST PUSH2 0xE52 PUSH2 0x1AC3 JUMP JUMPDEST PUSH2 0x8C8 PUSH2 0x1AF0 JUMP JUMPDEST PUSH1 0x4 DUP2 PUSH1 0x11 DUP2 LT PUSH2 0xE6A JUMPI PUSH1 0x0 DUP1 REVERT JUMPDEST ADD SLOAD SWAP1 POP DUP2 JUMP JUMPDEST PUSH1 0x19 PUSH1 0x20 MSTORE DUP2 PUSH1 0x0 MSTORE PUSH1 0x40 PUSH1 0x0 KECCAK256 DUP2 DUP2 SLOAD DUP2 LT PUSH2 0xE8D JUMPI PUSH1 0x0 DUP1 REVERT JUMPDEST PUSH1 0x0 SWAP2 DUP3 MSTORE PUSH1 0x20 SWAP1 SWAP2 KECCAK256 ADD SLOAD PUSH1 0x1 PUSH1 0x1 PUSH1 0xA0 SHL SUB AND SWAP2 POP DUP3 SWAP1 POP JUMP JUMPDEST PUSH2 0xEB1 PUSH2 0x1AC3 JUMP JUMPDEST PUSH2 0x8C8 PUSH1 0x0 PUSH2 0x1B45 JUMP JUMPDEST PUSH2 0xEC3 PUSH2 0x1AC3 JUMP JUMPDEST PUSH2 0x8C8 PUSH2 0x1B97 JUMP JUMPDEST PUSH2 0xED3 PUSH2 0x89D JUMP JUMPDEST CALLER EXTCODESIZE ISZERO PUSH2 0xEF2 JUMPI PUSH1 0x40 MLOAD PUSH3 0x461BCD PUSH1 0xE5 SHL DUP2 MSTORE PUSH1 0x4 ADD PUSH2 0x21E SWAP1 PUSH2 0x233B JUMP JUMPDEST PUSH7 0x58D15E17628000 CALLVALUE EQ PUSH2 0xF58 JUMPI PUSH1 0x40 MLOAD PUSH3 0x461BCD PUSH1 0xE5 SHL DUP2 MSTORE PUSH1 0x20 PUSH1 0x4 DUP3 ADD MSTORE PUSH1 0x27 PUSH1 0x24 DUP3 ADD MSTORE PUSH32 0x53656E642065786163746C7920302E30323520424E4220666F72207265676973 PUSH1 0x44 DUP3 ADD MSTORE PUSH7 0x3A3930BA34B7B7 PUSH1 0xC9 SHL PUSH1 0x64 DUP3 ADD MSTORE PUSH1 0x84 ADD PUSH2 0x21E JUMP JUMPDEST PUSH1 0x1 PUSH1 0x1 PUSH1 0xA0 SHL SUB DUP2 AND PUSH1 0x0 SWAP1 DUP2 MSTORE PUSH1 0x17 PUSH1 0x20 MSTORE PUSH1 0x40 SWAP1 KECCAK256 SLOAD PUSH2 0xFBD JUMPI PUSH1 0x40 MLOAD PUSH3 0x461BCD PUSH1 0xE5 SHL DUP2 MSTORE PUSH1 0x20 PUSH1 0x4 DUP3 ADD MSTORE PUSH1 0x17 PUSH1 0x24 DUP3 ADD MSTORE PUSH32 0x5265666572726572206E6F742072656769737465726564000000000000000000 PUSH1 0x44 DUP3 ADD MSTORE PUSH1 0x64 ADD PUSH2 0x21E JUMP JUMPDEST CALLER PUSH1 0x0 SWAP1 DUP2 MSTORE PUSH1 0x17 PUSH1 0x20 MSTORE PUSH1 0x40 SWAP1 KECCAK256 SLOAD ISZERO PUSH2 0x100F JUMPI PUSH1 0x40 MLOAD PUSH3 0x461BCD PUSH1 0xE5 SHL DUP2 MSTORE PUSH1 0x20 PUSH1 0x4 DUP3 ADD MSTORE PUSH1 0x12 PUSH1 0x24 DUP3 ADD MSTORE PUSH18 0x105B1C9958591E481C9959DA5CDD195C9959 PUSH1 0x72 SHL PUSH1 0x44 DUP3 ADD MSTORE PUSH1 0x64 ADD PUSH2 0x21E JUMP JUMPDEST PUSH2 0xCC3 DUP2 PUSH2 0x8CA JUMP JUMPDEST PUSH1 0x60 DUP1 DUP1 DUP1 DUP1 DUP1 PUSH2 0x102B PUSH1 0x10 PUSH1 0x1 PUSH2 0x2631 JUMP JUMPDEST PUSH1 0xFF AND PUSH8 0xFFFFFFFFFFFFFFFF DUP2 GT ISZERO PUSH2 0x1046 JUMPI PUSH2 0x1046 PUSH2 0x264A JUMP JUMPDEST PUSH1 0x40 MLOAD SWAP1 DUP1 DUP3 MSTORE DUP1 PUSH1 0x20 MUL PUSH1 0x20 ADD DUP3 ADD PUSH1 0x40 MSTORE DUP1 ISZERO PUSH2 0x106F JUMPI DUP2 PUSH1 0x20 ADD PUSH1 0x20 DUP3 MUL DUP1 CALLDATASIZE DUP4 CALLDATACOPY ADD SWAP1 POP JUMPDEST POP SWAP6 POP PUSH2 0x107E PUSH1 0x10 PUSH1 0x1 PUSH2 0x2631 JUMP JUMPDEST PUSH1 0xFF AND PUSH8 0xFFFFFFFFFFFFFFFF DUP2 GT ISZERO PUSH2 0x1099 JUMPI PUSH2 0x1099 PUSH2 0x264A JUMP JUMPDEST PUSH1 0x40 MLOAD SWAP1 DUP1 DUP3 MSTORE DUP1 PUSH1 0x20 MUL PUSH1 0x20 ADD DUP3 ADD PUSH1 0x40 MSTORE DUP1 ISZERO PUSH2 0x10C2 JUMPI DUP2 PUSH1 0x20 ADD PUSH1 0x20 DUP3 MUL DUP1 CALLDATASIZE DUP4 CALLDATACOPY ADD SWAP1 POP JUMPDEST POP SWAP5 POP PUSH2 0x10D1 PUSH1 0x10 PUSH1 0x1 PUSH2 0x2631 JUMP JUMPDEST PUSH1 0xFF AND PUSH8 0xFFFFFFFFFFFFFFFF DUP2 GT ISZERO PUSH2 0x10EC JUMPI PUSH2 0x10EC PUSH2 0x264A JUMP JUMPDEST PUSH1 0x40 MLOAD SWAP1 DUP1 DUP3 MSTORE DUP1 PUSH1 0x20 MUL PUSH1 0x20 ADD DUP3 ADD PUSH1 0x40 MSTORE DUP1 ISZERO PUSH2 0x1115 JUMPI DUP2 PUSH1 0x20 ADD PUSH1 0x20 DUP3 MUL DUP1 CALLDATASIZE DUP4 CALLDATACOPY ADD SWAP1 POP JUMPDEST POP SWAP4 POP PUSH2 0x1124 PUSH1 0x10 PUSH1 0x1 PUSH2 0x2631 JUMP JUMPDEST PUSH1 0xFF AND PUSH8 0xFFFFFFFFFFFFFFFF DUP2 GT ISZERO PUSH2 0x113F JUMPI PUSH2 0x113F PUSH2 0x264A JUMP JUMPDEST PUSH1 0x40 MLOAD SWAP1 DUP1 DUP3 MSTORE DUP1 PUSH1 0x20 MUL PUSH1 0x20 ADD DUP3 ADD PUSH1 0x40 MSTORE DUP1 ISZERO PUSH2 0x1168 JUMPI DUP2 PUSH1 0x20 ADD PUSH1 0x20 DUP3 MUL DUP1 CALLDATASIZE DUP4 CALLDATACOPY ADD SWAP1 POP JUMPDEST POP SWAP3 POP PUSH2 0x1177 PUSH1 0x10 PUSH1 0x1 PUSH2 0x2631 JUMP JUMPDEST PUSH1 0xFF AND PUSH8 0xFFFFFFFFFFFFFFFF DUP2 GT ISZERO PUSH2 0x1192 JUMPI PUSH2 0x1192 PUSH2 0x264A JUMP JUMPDEST PUSH1 0x40 MLOAD SWAP1 DUP1 DUP3 MSTORE DUP1 PUSH1 0x20 MUL PUSH1 0x20 ADD DUP3 ADD PUSH1 0x40 MSTORE DUP1 ISZERO PUSH2 0x11BB JUMPI DUP2 PUSH1 0x20 ADD PUSH1 0x20 DUP3 MUL DUP1 CALLDATASIZE DUP4 CALLDATACOPY ADD SWAP1 POP JUMPDEST POP SWAP2 POP PUSH2 0x11CA PUSH1 0x10 PUSH1 0x1 PUSH2 0x2631 JUMP JUMPDEST PUSH1 0xFF AND PUSH8 0xFFFFFFFFFFFFFFFF DUP2 GT ISZERO PUSH2 0x11E5 JUMPI PUSH2 0x11E5 PUSH2 0x264A JUMP JUMPDEST PUSH1 0x40 MLOAD SWAP1 DUP1 DUP3 MSTORE DUP1 PUSH1 0x20 MUL PUSH1 0x20 ADD DUP3 ADD PUSH1 0x40 MSTORE DUP1 ISZERO PUSH2 0x120E JUMPI DUP2 PUSH1 0x20 ADD PUSH1 0x20 DUP3 MUL DUP1 CALLDATASIZE DUP4 CALLDATACOPY ADD SWAP1 POP JUMPDEST POP SWAP1 POP PUSH1 0x1 JUMPDEST PUSH1 0x10 PUSH1 0xFF DUP3 AND GT PUSH2 0x137E JUMPI PUSH1 0x1 PUSH1 0x1 PUSH1 0xA0 SHL SUB DUP9 AND PUSH1 0x0 SWAP1 DUP2 MSTORE PUSH1 0x17 PUSH1 0x20 SWAP1 DUP2 MSTORE PUSH1 0x40 DUP1 DUP4 KECCAK256 PUSH1 0xFF DUP1 DUP7 AND DUP1 DUP7 MSTORE PUSH1 0x7 SWAP1 SWAP3 ADD SWAP1 SWAP4 MSTORE SWAP3 KECCAK256 DUP1 SLOAD DUP11 MLOAD SWAP2 SWAP4 PUSH1 0x1 PUSH1 0x30 SHL SWAP1 SWAP2 DIV SWAP1 SWAP3 AND SWAP2 DUP11 SWAP2 DUP2 LT PUSH2 0x126E JUMPI PUSH2 0x126E PUSH2 0x236A JUMP JUMPDEST PUSH1 0x20 MUL PUSH1 0x20 ADD ADD SWAP1 ISZERO ISZERO SWAP1 DUP2 ISZERO ISZERO DUP2 MSTORE POP POP DUP1 PUSH1 0x0 ADD PUSH1 0x4 SWAP1 SLOAD SWAP1 PUSH2 0x100 EXP SWAP1 DIV PUSH2 0xFFFF AND DUP8 DUP4 PUSH1 0xFF AND DUP2 MLOAD DUP2 LT PUSH2 0x12A8 JUMPI PUSH2 0x12A8 PUSH2 0x236A JUMP JUMPDEST PUSH2 0xFFFF SWAP3 DUP4 AND PUSH1 0x20 SWAP2 DUP3 MUL SWAP3 SWAP1 SWAP3 ADD ADD MSTORE DUP2 SLOAD DUP8 MLOAD PUSH3 0x10000 SWAP1 SWAP2 DIV SWAP1 SWAP2 AND SWAP1 DUP8 SWAP1 PUSH1 0xFF DUP6 AND SWAP1 DUP2 LT PUSH2 0x12DD JUMPI PUSH2 0x12DD PUSH2 0x236A JUMP JUMPDEST PUSH2 0xFFFF SWAP3 DUP4 AND PUSH1 0x20 SWAP2 DUP3 MUL SWAP3 SWAP1 SWAP3 ADD ADD MSTORE DUP2 SLOAD DUP7 MLOAD SWAP2 AND SWAP1 DUP7 SWAP1 PUSH1 0xFF DUP6 AND SWAP1 DUP2 LT PUSH2 0x130A JUMPI PUSH2 0x130A PUSH2 0x236A JUMP JUMPDEST PUSH1 0x20 MUL PUSH1 0x20 ADD ADD SWAP1 PUSH2 0xFFFF AND SWAP1 DUP2 PUSH2 0xFFFF AND DUP2 MSTORE POP POP DUP1 PUSH1 0x1 ADD SLOAD DUP5 DUP4 PUSH1 0xFF AND DUP2 MLOAD DUP2 LT PUSH2 0x133A JUMPI PUSH2 0x133A PUSH2 0x236A JUMP JUMPDEST PUSH1 0x20 MUL PUSH1 0x20 ADD ADD DUP2 DUP2 MSTORE POP POP DUP1 PUSH1 0x2 ADD SLOAD DUP4 DUP4 PUSH1 0xFF AND DUP2 MLOAD DUP2 LT PUSH2 0x1360 JUMPI PUSH2 0x1360 PUSH2 0x236A JUMP JUMPDEST PUSH1 0x20 SWAP1 DUP2 MUL SWAP2 SWAP1 SWAP2 ADD ADD MSTORE POP DUP1 PUSH2 0x1376 DUP2 PUSH2 0x2396 JUMP JUMPDEST SWAP2 POP POP PUSH2 0x1214 JUMP JUMPDEST POP SWAP2 SWAP4 SWAP6 POP SWAP2 SWAP4 SWAP6 JUMP JUMPDEST PUSH2 0x1390 PUSH2 0x1AC3 JUMP JUMPDEST PUSH1 0x1 PUSH1 0x1 PUSH1 0xA0 SHL SUB DUP2 AND PUSH2 0x13D8 JUMPI PUSH1 0x40 MLOAD PUSH3 0x461BCD PUSH1 0xE5 SHL DUP2 MSTORE PUSH1 0x20 PUSH1 0x4 DUP3 ADD MSTORE PUSH1 0xF PUSH1 0x24 DUP3 ADD MSTORE PUSH15 0x496E76616C69642061646472657373 PUSH1 0x88 SHL PUSH1 0x44 DUP3 ADD MSTORE PUSH1 0x64 ADD PUSH2 0x21E JUMP JUMPDEST PUSH1 0x3 DUP1 SLOAD PUSH1 0x1 PUSH1 0x1 PUSH1 0xA0 SHL SUB DUP4 DUP2 AND PUSH1 0x1 PUSH1 0x1 PUSH1 0xA0 SHL SUB NOT DUP4 AND DUP2 OR SWAP1 SWAP4 SSTORE PUSH1 0x40 MLOAD SWAP2 AND SWAP2 SWAP1 DUP3 SWAP1 PUSH32 0xF1F34E0FC899850DC916E4128492F6CB73A06C53BAE553FB09883F5DADF061D8 SWAP1 PUSH1 0x0 SWAP1 LOG3 POP POP JUMP JUMPDEST PUSH1 0x2 DUP2 PUSH1 0x4 DUP2 LT PUSH2 0x143A JUMPI PUSH1 0x0 DUP1 REVERT JUMPDEST PUSH1 0x20 SWAP2 DUP3 DUP3 DIV ADD SWAP2 SWAP1 MOD SWAP2 POP SLOAD SWAP1 PUSH2 0x100 EXP SWAP1 DIV PUSH1 0xFF AND DUP2 JUMP JUMPDEST PUSH1 0x0 DUP1 DUP3 PUSH1 0x0 DUP2 PUSH1 0xFF AND GT DUP1 ISZERO PUSH2 0x146F JUMPI POP PUSH1 0x10 PUSH1 0xFF DUP3 AND GT ISZERO JUMPDEST PUSH2 0x148B JUMPI PUSH1 0x40 MLOAD PUSH3 0x461BCD PUSH1 0xE5 SHL DUP2 MSTORE PUSH1 0x4 ADD PUSH2 0x21E SWAP1 PUSH2 0x25F7 JUMP JUMPDEST PUSH1 0x1 PUSH1 0x1 PUSH1 0xA0 SHL SUB DUP6 AND PUSH1 0x0 SWAP1 DUP2 MSTORE PUSH1 0x17 PUSH1 0x20 SWAP1 DUP2 MSTORE PUSH1 0x40 DUP1 DUP4 KECCAK256 PUSH1 0xFF DUP1 DUP10 AND DUP6 MSTORE PUSH1 0x7 SWAP1 SWAP2 ADD SWAP1 SWAP3 MSTORE SWAP1 SWAP2 KECCAK256 SLOAD PUSH1 0x1 PUSH1 0x30 SHL SWAP1 DIV AND PUSH2 0x14D1 JUMPI PUSH1 0x0 DUP1 SWAP3 POP SWAP3 POP PUSH2 0x15A1 JUMP JUMPDEST PUSH1 0xFF DUP5 AND PUSH1 0x0 SWAP1 DUP2 MSTORE PUSH1 0x1A PUSH1 0x20 SWAP1 DUP2 MSTORE PUSH1 0x40 DUP1 DUP4 KECCAK256 SLOAD PUSH1 0x19 SWAP1 SWAP3 MSTORE SWAP1 SWAP2 KECCAK256 SLOAD PUSH2 0x14FA SWAP2 SWAP1 PUSH2 0x2660 JUMP JUMPDEST PUSH1 0xFF DUP6 AND PUSH1 0x0 SWAP1 DUP2 MSTORE PUSH1 0x1A PUSH1 0x20 MSTORE PUSH1 0x40 SWAP1 KECCAK256 SLOAD SWAP1 SWAP3 POP JUMPDEST PUSH1 0xFF DUP6 AND PUSH1 0x0 SWAP1 DUP2 MSTORE PUSH1 0x19 PUSH1 0x20 MSTORE PUSH1 0x40 SWAP1 KECCAK256 SLOAD DUP2 LT ISZERO PUSH2 0x159B JUMPI DUP4 PUSH2 0x1535 DUP2 PUSH2 0x25DE JUMP JUMPDEST PUSH1 0xFF DUP8 AND PUSH1 0x0 SWAP1 DUP2 MSTORE PUSH1 0x19 PUSH1 0x20 MSTORE PUSH1 0x40 SWAP1 KECCAK256 DUP1 SLOAD SWAP2 SWAP7 POP PUSH1 0x1 PUSH1 0x1 PUSH1 0xA0 SHL SUB DUP10 AND SWAP3 POP SWAP1 DUP4 SWAP1 DUP2 LT PUSH2 0x1569 JUMPI PUSH2 0x1569 PUSH2 0x236A JUMP JUMPDEST PUSH1 0x0 SWAP2 DUP3 MSTORE PUSH1 0x20 SWAP1 SWAP2 KECCAK256 ADD SLOAD PUSH1 0x1 PUSH1 0x1 PUSH1 0xA0 SHL SUB AND SUB PUSH2 0x1589 JUMPI POP PUSH2 0x15A1 JUMP JUMPDEST DUP1 PUSH2 0x1593 DUP2 PUSH2 0x25DE JUMP JUMPDEST SWAP2 POP POP PUSH2 0x1511 JUMP JUMPDEST POP PUSH1 0x0 SWAP3 POP JUMPDEST POP SWAP3 POP SWAP3 SWAP1 POP JUMP JUMPDEST PUSH2 0x15B1 PUSH2 0x1AC3 JUMP JUMPDEST PUSH1 0x1 SLOAD PUSH1 0x40 MLOAD PUSH1 0x1 PUSH1 0x1 PUSH1 0xA0 SHL SUB SWAP1 SWAP2 AND SWAP1 SELFBALANCE DUP1 ISZERO PUSH2 0x8FC MUL SWAP2 PUSH1 0x0 DUP2 DUP2 DUP2 DUP6 DUP9 DUP9 CALL SWAP4 POP POP POP POP ISZERO DUP1 ISZERO PUSH2 0xCC3 JUMPI RETURNDATASIZE PUSH1 0x0 DUP1 RETURNDATACOPY RETURNDATASIZE PUSH1 0x0 REVERT JUMPDEST PUSH2 0x15F2 PUSH2 0x1AC3 JUMP JUMPDEST PUSH1 0x1 PUSH1 0x1 PUSH1 0xA0 SHL SUB DUP2 AND PUSH2 0x161C JUMPI PUSH1 0x40 MLOAD PUSH4 0x1E4FBDF7 PUSH1 0xE0 SHL DUP2 MSTORE PUSH1 0x0 PUSH1 0x4 DUP3 ADD MSTORE PUSH1 0x24 ADD PUSH2 0x21E JUMP JUMPDEST PUSH2 0xCC3 DUP2 PUSH2 0x1B45 JUMP JUMPDEST PUSH1 0x1 DUP2 JUMPDEST PUSH1 0x3 PUSH1 0xFF DUP4 AND GT DUP1 ISZERO SWAP1 PUSH2 0x1645 JUMPI POP PUSH1 0x1 PUSH1 0x1 PUSH1 0xA0 SHL SUB DUP2 AND ISZERO ISZERO JUMPDEST ISZERO PUSH2 0x16A6 JUMPI PUSH1 0x1 PUSH1 0x1 PUSH1 0xA0 SHL SUB DUP2 AND PUSH1 0x0 SWAP1 DUP2 MSTORE PUSH1 0x17 PUSH1 0x20 MSTORE PUSH1 0x40 DUP2 KECCAK256 PUSH1 0x3 ADD DUP1 SLOAD SWAP2 PUSH2 0x1671 DUP4 PUSH2 0x25DE JUMP JUMPDEST SWAP1 SWAP2 SSTORE POP POP PUSH1 0x1 PUSH1 0x1 PUSH1 0xA0 SHL SUB SWAP1 DUP2 AND PUSH1 0x0 SWAP1 DUP2 MSTORE PUSH1 0x17 PUSH1 0x20 MSTORE PUSH1 0x40 SWAP1 KECCAK256 PUSH1 0x2 ADD SLOAD AND DUP2 PUSH2 0x169E DUP2 PUSH2 0x2396 JUMP JUMPDEST SWAP3 POP POP PUSH2 0x1629 JUMP JUMPDEST POP POP POP JUMP JUMPDEST PUSH1 0x2 PUSH1 0x0 SLOAD SUB PUSH2 0x16CE JUMPI PUSH1 0x40 MLOAD PUSH4 0x3EE5AEB5 PUSH1 0xE0 SHL DUP2 MSTORE PUSH1 0x4 ADD PUSH1 0x40 MLOAD DUP1 SWAP2 SUB SWAP1 REVERT JUMPDEST PUSH1 0x2 PUSH1 0x0 SSTORE JUMP JUMPDEST CALLER PUSH1 0x0 SWAP1 DUP2 MSTORE PUSH1 0x17 PUSH1 0x20 SWAP1 DUP2 MSTORE PUSH1 0x40 DUP1 DUP4 KECCAK256 PUSH1 0xFF DUP1 DUP7 AND DUP6 MSTORE PUSH1 0x7 SWAP1 SWAP2 ADD SWAP1 SWAP3 MSTORE SWAP1 SWAP2 KECCAK256 SLOAD PUSH1 0x1 PUSH1 0x30 SHL SWAP1 DIV AND PUSH2 0x17A5 JUMPI CALLER PUSH1 0x0 DUP2 DUP2 MSTORE PUSH1 0x17 PUSH1 0x20 DUP2 DUP2 MSTORE PUSH1 0x40 DUP1 DUP5 KECCAK256 PUSH1 0xFF DUP8 AND DUP1 DUP7 MSTORE PUSH1 0x7 DUP3 ADD DUP5 MSTORE DUP3 DUP7 KECCAK256 DUP1 SLOAD PUSH7 0xFF0000FFFFFFFF NOT AND PUSH7 0x1000000020001 OR SWAP1 SSTORE PUSH1 0x19 DUP5 MSTORE DUP3 DUP7 KECCAK256 DUP1 SLOAD PUSH1 0x1 DUP2 ADD DUP3 SSTORE SWAP1 DUP8 MSTORE DUP5 DUP8 KECCAK256 ADD DUP1 SLOAD PUSH1 0x1 PUSH1 0x1 PUSH1 0xA0 SHL SUB NOT AND DUP9 OR SWAP1 SSTORE SWAP6 SWAP1 SWAP5 MSTORE SWAP2 DUP2 MSTORE SWAP2 SLOAD SWAP1 MLOAD CALLVALUE DUP2 MSTORE SWAP1 SWAP2 PUSH32 0xB3EE66175CAA7EB8CC743A754465090C36C078D31E7B31A0057133127E6087F5 SWAP2 ADD PUSH1 0x40 MLOAD DUP1 SWAP2 SUB SWAP1 LOG3 PUSH2 0x18AD JUMP JUMPDEST CALLER PUSH1 0x0 SWAP1 DUP2 MSTORE PUSH1 0x17 PUSH1 0x20 SWAP1 DUP2 MSTORE PUSH1 0x40 DUP1 DUP4 KECCAK256 PUSH1 0xFF DUP6 AND DUP5 MSTORE PUSH1 0x7 ADD SWAP1 SWAP2 MSTORE DUP2 KECCAK256 DUP1 SLOAD PUSH2 0xFFFF AND SWAP2 PUSH2 0x17D5 DUP4 PUSH2 0x2673 JUMP JUMPDEST DUP3 SLOAD PUSH2 0x100 SWAP3 SWAP1 SWAP3 EXP PUSH2 0xFFFF DUP2 DUP2 MUL NOT SWAP1 SWAP4 AND SWAP2 DUP4 AND MUL OR SWAP1 SWAP2 SSTORE CALLER PUSH1 0x0 SWAP1 DUP2 MSTORE PUSH1 0x17 PUSH1 0x20 SWAP1 DUP2 MSTORE PUSH1 0x40 DUP1 DUP4 KECCAK256 PUSH1 0xFF DUP8 AND DUP5 MSTORE PUSH1 0x7 ADD SWAP1 SWAP2 MSTORE SWAP1 KECCAK256 DUP1 SLOAD PUSH1 0x2 SWAP4 POP SWAP1 SWAP2 DUP4 SWAP2 PUSH2 0x182C SWAP2 DUP4 SWAP2 PUSH3 0x10000 SWAP1 DIV AND PUSH2 0x2694 JUMP JUMPDEST DUP3 SLOAD PUSH2 0x100 SWAP3 SWAP1 SWAP3 EXP PUSH2 0xFFFF DUP2 DUP2 MUL NOT SWAP1 SWAP4 AND SWAP2 DUP4 AND MUL OR SWAP1 SWAP2 SSTORE CALLER PUSH1 0x0 SWAP1 DUP2 MSTORE PUSH1 0x17 PUSH1 0x20 SWAP1 DUP2 MSTORE PUSH1 0x40 DUP1 DUP4 KECCAK256 DUP1 SLOAD PUSH1 0xFF DUP9 AND DUP1 DUP7 MSTORE PUSH1 0x7 SWAP1 SWAP3 ADD DUP5 MSTORE SWAP4 DUP3 SWAP1 KECCAK256 SLOAD SWAP2 MLOAD PUSH3 0x10000 SWAP1 SWAP3 DIV SWAP1 SWAP5 AND DUP2 MSTORE SWAP3 SWAP4 POP SWAP1 SWAP2 PUSH32 0xF164F79CCC8F5723EF68F84771DE9A921C6BA456D540317EA133DF467E3F8E6A SWAP2 ADD PUSH1 0x40 MLOAD DUP1 SWAP2 SUB SWAP1 LOG3 JUMPDEST PUSH2 0xCC3 CALLER DUP3 PUSH2 0x1BDA JUMP JUMPDEST PUSH1 0x0 PUSH1 0x64 PUSH2 0x18C6 PUSH1 0x4A CALLVALUE PUSH2 0x26AF JUMP JUMPDEST PUSH2 0x18D0 SWAP2 SWAP1 PUSH2 0x26C6 JUMP JUMPDEST PUSH1 0xFF DUP4 AND PUSH1 0x0 SWAP1 DUP2 MSTORE PUSH1 0x19 PUSH1 0x20 SWAP1 DUP2 MSTORE PUSH1 0x40 DUP1 DUP4 KECCAK256 PUSH1 0x1A SWAP1 SWAP3 MSTORE DUP3 KECCAK256 SLOAD DUP2 SLOAD SWAP4 SWAP5 POP SWAP2 SWAP3 SWAP1 SWAP2 SWAP1 DUP2 LT PUSH2 0x1905 JUMPI PUSH2 0x1905 PUSH2 0x236A JUMP JUMPDEST PUSH1 0x0 SWAP2 DUP3 MSTORE PUSH1 0x20 SWAP1 SWAP2 KECCAK256 ADD SLOAD PUSH1 0x1 PUSH1 0x1 PUSH1 0xA0 SHL SUB AND SWAP1 POP CALLER DUP2 EQ PUSH2 0x19A0 JUMPI PUSH2 0x192D DUP2 DUP4 PUSH2 0x1C86 JUMP JUMPDEST PUSH2 0x1938 DUP2 DUP5 DUP5 PUSH2 0x1D21 JUMP JUMPDEST PUSH2 0x1942 DUP2 DUP5 PUSH2 0x1D97 JUMP JUMPDEST CALLER PUSH1 0x0 SWAP1 DUP2 MSTORE PUSH1 0x17 PUSH1 0x20 SWAP1 DUP2 MSTORE PUSH1 0x40 DUP1 DUP4 KECCAK256 SLOAD PUSH1 0x1 PUSH1 0x1 PUSH1 0xA0 SHL SUB DUP6 AND DUP5 MSTORE SWAP3 DUP2 SWAP1 KECCAK256 SLOAD SWAP1 MLOAD DUP6 DUP2 MSTORE PUSH1 0xFF DUP8 AND SWAP3 PUSH32 0xB970429B721AAB5042EFE513B75B71CD07615FDFF866744E3D07DFE5998FFC66 SWAP2 ADD PUSH1 0x40 MLOAD DUP1 SWAP2 SUB SWAP1 LOG4 PUSH2 0x19E1 JUMP JUMPDEST PUSH2 0x19BB PUSH2 0x19B5 PUSH1 0x1 SLOAD PUSH1 0x1 PUSH1 0x1 PUSH1 0xA0 SHL SUB AND SWAP1 JUMP JUMPDEST DUP4 PUSH2 0x1C86 JUMP JUMPDEST PUSH2 0x19D7 PUSH2 0x19D0 PUSH1 0x1 SLOAD PUSH1 0x1 PUSH1 0x1 PUSH1 0xA0 SHL SUB AND SWAP1 JUMP JUMPDEST DUP5 DUP5 PUSH2 0x1D21 JUMP JUMPDEST PUSH2 0x19E1 DUP2 DUP5 PUSH2 0x1D97 JUMP JUMPDEST PUSH1 0xFF DUP4 AND PUSH1 0x0 SWAP1 DUP2 MSTORE PUSH1 0x19 PUSH1 0x20 SWAP1 DUP2 MSTORE PUSH1 0x40 DUP1 DUP4 KECCAK256 PUSH1 0x1A SWAP1 SWAP3 MSTORE SWAP1 SWAP2 KECCAK256 SLOAD DUP2 SLOAD DUP2 LT PUSH2 0x1A0F JUMPI PUSH2 0x1A0F PUSH2 0x236A JUMP JUMPDEST PUSH1 0x0 SWAP2 DUP3 MSTORE PUSH1 0x20 DUP1 DUP4 KECCAK256 SWAP1 SWAP2 ADD DUP1 SLOAD PUSH1 0x1 PUSH1 0x1 PUSH1 0xA0 SHL SUB NOT AND SWAP1 SSTORE PUSH1 0xFF DUP6 AND DUP3 MSTORE PUSH1 0x1A SWAP1 MSTORE PUSH1 0x40 DUP2 KECCAK256 DUP1 SLOAD SWAP2 PUSH2 0x1A44 DUP4 PUSH2 0x25DE JUMP JUMPDEST SWAP2 SWAP1 POP SSTORE POP POP POP POP JUMP JUMPDEST PUSH1 0x0 PUSH2 0x1A5B PUSH1 0x64 CALLVALUE PUSH2 0x26C6 JUMP JUMPDEST SWAP1 POP PUSH1 0x1 JUMPDEST PUSH1 0x3 PUSH1 0xFF DUP3 AND GT PUSH2 0x16A6 JUMPI PUSH1 0x0 PUSH1 0x2 DUP3 PUSH1 0xFF AND PUSH1 0x4 DUP2 LT PUSH2 0x1A83 JUMPI PUSH2 0x1A83 PUSH2 0x236A JUMP JUMPDEST PUSH1 0x20 DUP2 DIV SWAP2 SWAP1 SWAP2 ADD SLOAD PUSH2 0x1AA2 SWAP2 PUSH1 0x1F AND PUSH2 0x100 EXP SWAP1 DIV PUSH1 0xFF AND DUP5 PUSH2 0x26AF JUMP JUMPDEST SWAP1 POP PUSH2 0x1AB0 CALLER DUP4 DUP7 DUP5 PUSH2 0x1F32 JUMP JUMPDEST POP DUP1 PUSH2 0x1ABB DUP2 PUSH2 0x2396 JUMP JUMPDEST SWAP2 POP POP PUSH2 0x1A60 JUMP JUMPDEST PUSH1 0x1 SLOAD PUSH1 0x1 PUSH1 0x1 PUSH1 0xA0 SHL SUB AND CALLER EQ PUSH2 0x8C8 JUMPI PUSH1 0x40 MLOAD PUSH4 0x118CDAA7 PUSH1 0xE0 SHL DUP2 MSTORE CALLER PUSH1 0x4 DUP3 ADD MSTORE PUSH1 0x24 ADD PUSH2 0x21E JUMP JUMPDEST PUSH2 0x1AF8 PUSH2 0x218C JUMP JUMPDEST PUSH1 0x1 DUP1 SLOAD PUSH1 0xFF PUSH1 0xA0 SHL NOT AND SWAP1 SSTORE PUSH32 0x5DB9EE0A495BF2E6FF9C91A7834C1BA4FDD244A5E8AA4E537BD38AEAE4B073AA CALLER JUMPDEST PUSH1 0x40 MLOAD PUSH1 0x1 PUSH1 0x1 PUSH1 0xA0 SHL SUB SWAP1 SWAP2 AND DUP2 MSTORE PUSH1 0x20 ADD PUSH1 0x40 MLOAD DUP1 SWAP2 SUB SWAP1 LOG1 JUMP JUMPDEST PUSH1 0x1 DUP1 SLOAD PUSH1 0x1 PUSH1 0x1 PUSH1 0xA0 SHL SUB DUP4 DUP2 AND PUSH1 0x1 PUSH1 0x1 PUSH1 0xA0 SHL SUB NOT DUP4 AND DUP2 OR SWAP1 SWAP4 SSTORE PUSH1 0x40 MLOAD SWAP2 AND SWAP2 SWAP1 DUP3 SWAP1 PUSH32 0x8BE0079C531659141344CD1FD0A4F28419497F9722A3DAAFE3B4186F6B6457E0 SWAP1 PUSH1 0x0 SWAP1 LOG3 POP POP JUMP JUMPDEST PUSH2 0x1B9F PUSH2 0x89D JUMP JUMPDEST PUSH1 0x1 DUP1 SLOAD PUSH1 0xFF PUSH1 0xA0 SHL NOT AND PUSH1 0x1 PUSH1 0xA0 SHL OR SWAP1 SSTORE PUSH32 0x62E78CEA01BEE320CD4E420270B5EA74000D11B0C9F74754EBDBFC544B05A258 PUSH2 0x1B28 CALLER SWAP1 JUMP JUMPDEST PUSH1 0x1 JUMPDEST DUP2 PUSH1 0xFF AND DUP2 PUSH1 0xFF AND LT ISZERO PUSH2 0x16A6 JUMPI PUSH1 0x1 PUSH1 0x1 PUSH1 0xA0 SHL SUB DUP4 AND PUSH1 0x0 SWAP1 DUP2 MSTORE PUSH1 0x17 PUSH1 0x20 SWAP1 DUP2 MSTORE PUSH1 0x40 DUP1 DUP4 KECCAK256 PUSH1 0xFF DUP1 DUP7 AND DUP6 MSTORE PUSH1 0x7 SWAP1 SWAP2 ADD SWAP1 SWAP3 MSTORE SWAP1 SWAP2 KECCAK256 SLOAD PUSH1 0x1 PUSH1 0x30 SHL SWAP1 DIV AND DUP1 ISZERO PUSH2 0x1C33 JUMPI POP PUSH2 0x1C33 DUP4 DUP3 DUP5 PUSH2 0x21B6 JUMP JUMPDEST ISZERO PUSH2 0x1C74 JUMPI PUSH1 0xFF DUP2 AND PUSH1 0x0 SWAP1 DUP2 MSTORE PUSH1 0x19 PUSH1 0x20 SWAP1 DUP2 MSTORE PUSH1 0x40 DUP3 KECCAK256 DUP1 SLOAD PUSH1 0x1 DUP2 ADD DUP3 SSTORE SWAP1 DUP4 MSTORE SWAP2 KECCAK256 ADD DUP1 SLOAD PUSH1 0x1 PUSH1 0x1 PUSH1 0xA0 SHL SUB NOT AND PUSH1 0x1 PUSH1 0x1 PUSH1 0xA0 SHL SUB DUP6 AND OR SWAP1 SSTORE JUMPDEST DUP1 PUSH2 0x1C7E DUP2 PUSH2 0x2396 JUMP JUMPDEST SWAP2 POP POP PUSH2 0x1BDD JUMP JUMPDEST PUSH1 0x0 DUP3 PUSH1 0x1 PUSH1 0x1 PUSH1 0xA0 SHL SUB AND DUP3 PUSH1 0x40 MLOAD PUSH1 0x0 PUSH1 0x40 MLOAD DUP1 DUP4 SUB DUP2 DUP6 DUP8 GAS CALL SWAP3 POP POP POP RETURNDATASIZE DUP1 PUSH1 0x0 DUP2 EQ PUSH2 0x1CD3 JUMPI PUSH1 0x40 MLOAD SWAP2 POP PUSH1 0x1F NOT PUSH1 0x3F RETURNDATASIZE ADD AND DUP3 ADD PUSH1 0x40 MSTORE RETURNDATASIZE DUP3 MSTORE RETURNDATASIZE PUSH1 0x0 PUSH1 0x20 DUP5 ADD RETURNDATACOPY PUSH2 0x1CD8 JUMP JUMPDEST PUSH1 0x60 SWAP2 POP JUMPDEST POP POP SWAP1 POP DUP1 PUSH2 0x16A6 JUMPI PUSH1 0x1 SLOAD PUSH1 0x40 MLOAD PUSH1 0x1 PUSH1 0x1 PUSH1 0xA0 SHL SUB SWAP1 SWAP2 AND SWAP1 DUP4 ISZERO PUSH2 0x8FC MUL SWAP1 DUP5 SWAP1 PUSH1 0x0 DUP2 DUP2 DUP2 DUP6 DUP9 DUP9 CALL SWAP4 POP POP POP POP ISZERO DUP1 ISZERO PUSH2 0x1D1B JUMPI RETURNDATASIZE PUSH1 0x0 DUP1 RETURNDATACOPY RETURNDATASIZE PUSH1 0x0 REVERT JUMPDEST POP POP POP POP JUMP JUMPDEST PUSH1 0x1 PUSH1 0x1 PUSH1 0xA0 SHL SUB DUP4 AND PUSH1 0x0 SWAP1 DUP2 MSTORE PUSH1 0x17 PUSH1 0x20 SWAP1 DUP2 MSTORE PUSH1 0x40 DUP1 DUP4 KECCAK256 PUSH1 0xFF DUP7 AND DUP5 MSTORE PUSH1 0x7 ADD SWAP1 SWAP2 MSTORE DUP2 KECCAK256 PUSH1 0x1 ADD DUP1 SLOAD DUP4 SWAP3 SWAP1 PUSH2 0x1D5D SWAP1 DUP5 SWAP1 PUSH2 0x261E JUMP JUMPDEST SWAP1 SWAP2 SSTORE POP POP PUSH1 0x1 PUSH1 0x1 PUSH1 0xA0 SHL SUB DUP4 AND PUSH1 0x0 SWAP1 DUP2 MSTORE PUSH1 0x17 PUSH1 0x20 MSTORE PUSH1 0x40 DUP2 KECCAK256 PUSH1 0x5 ADD DUP1 SLOAD DUP4 SWAP3 SWAP1 PUSH2 0x1D8D SWAP1 DUP5 SWAP1 PUSH2 0x261E JUMP JUMPDEST SWAP1 SWAP2 SSTORE POP POP POP POP POP JUMP JUMPDEST PUSH1 0x1 PUSH1 0x1 PUSH1 0xA0 SHL SUB DUP3 AND PUSH1 0x0 SWAP1 DUP2 MSTORE PUSH1 0x17 PUSH1 0x20 SWAP1 DUP2 MSTORE PUSH1 0x40 DUP1 DUP4 KECCAK256 PUSH1 0xFF DUP6 AND DUP5 MSTORE PUSH1 0x7 ADD SWAP1 SWAP2 MSTORE SWAP1 KECCAK256 DUP1 SLOAD PUSH5 0x100000000 SWAP1 DIV PUSH2 0xFFFF AND SWAP1 PUSH1 0x4 PUSH2 0x1DDA DUP4 PUSH2 0x2673 JUMP JUMPDEST DUP3 SLOAD PUSH2 0x100 SWAP3 SWAP1 SWAP3 EXP PUSH2 0xFFFF DUP2 DUP2 MUL NOT SWAP1 SWAP4 AND SWAP2 DUP4 AND MUL OR SWAP1 SWAP2 SSTORE PUSH1 0x1 PUSH1 0x1 PUSH1 0xA0 SHL SUB DUP5 AND PUSH1 0x0 SWAP1 DUP2 MSTORE PUSH1 0x17 PUSH1 0x20 SWAP1 DUP2 MSTORE PUSH1 0x40 DUP1 DUP4 KECCAK256 PUSH1 0xFF DUP8 AND DUP5 MSTORE PUSH1 0x7 ADD SWAP1 SWAP2 MSTORE DUP2 KECCAK256 SLOAD SWAP1 SWAP3 POP PUSH3 0x10000 DUP2 DIV DUP3 AND PUSH5 0x100000000 SWAP1 SWAP2 DIV SWAP1 SWAP2 AND LT ISZERO PUSH2 0x1E44 JUMPI POP PUSH1 0x1 PUSH2 0x1EA1 JUMP JUMPDEST PUSH1 0x10 PUSH1 0xFF DUP4 AND LT DUP1 ISZERO PUSH2 0x1E98 JUMPI POP PUSH1 0x1 PUSH1 0x1 PUSH1 0xA0 SHL SUB DUP4 AND PUSH1 0x0 SWAP1 DUP2 MSTORE PUSH1 0x17 PUSH1 0x20 MSTORE PUSH1 0x40 DUP2 KECCAK256 PUSH1 0x7 ADD SWAP1 PUSH2 0x1E79 DUP5 PUSH1 0x1 PUSH2 0x2631 JUMP JUMPDEST PUSH1 0xFF SWAP1 DUP2 AND DUP3 MSTORE PUSH1 0x20 DUP3 ADD SWAP3 SWAP1 SWAP3 MSTORE PUSH1 0x40 ADD PUSH1 0x0 KECCAK256 SLOAD PUSH1 0x1 PUSH1 0x30 SHL SWAP1 DIV AND JUMPDEST ISZERO PUSH2 0x1EA1 JUMPI POP PUSH1 0x1 JUMPDEST DUP1 ISZERO PUSH2 0x1EE9 JUMPI PUSH1 0xFF DUP3 AND PUSH1 0x0 SWAP1 DUP2 MSTORE PUSH1 0x19 PUSH1 0x20 SWAP1 DUP2 MSTORE PUSH1 0x40 DUP3 KECCAK256 DUP1 SLOAD PUSH1 0x1 DUP2 ADD DUP3 SSTORE SWAP1 DUP4 MSTORE SWAP2 KECCAK256 ADD DUP1 SLOAD PUSH1 0x1 PUSH1 0x1 PUSH1 0xA0 SHL SUB DUP6 AND PUSH1 0x1 PUSH1 0x1 PUSH1 0xA0 SHL SUB NOT SWAP1 SWAP2 AND OR SWAP1 SSTORE POP POP POP JUMP JUMPDEST PUSH1 0x1 PUSH1 0x1 PUSH1 0xA0 SHL SUB DUP4 AND PUSH1 0x0 SWAP1 DUP2 MSTORE PUSH1 0x17 PUSH1 0x20 MSTORE PUSH1 0x40 DUP1 DUP3 KECCAK256 SLOAD SWAP1 MLOAD PUSH1 0xFF DUP6 AND SWAP3 PUSH32 0xAE9C7CC1B10B0AA2E208296B682CC0000383F83093814233542A7C2EAF7E27D5 SWAP2 LOG3 POP POP POP JUMP JUMPDEST PUSH1 0x0 PUSH2 0x1F3E DUP6 DUP6 PUSH2 0x2257 JUMP JUMPDEST SWAP1 POP PUSH1 0x0 JUMPDEST PUSH1 0x1 PUSH1 0x1 PUSH1 0xA0 SHL SUB DUP3 AND PUSH1 0x0 SWAP1 DUP2 MSTORE PUSH1 0x17 PUSH1 0x20 SWAP1 DUP2 MSTORE PUSH1 0x40 DUP1 DUP4 KECCAK256 PUSH1 0xFF DUP1 DUP10 AND DUP6 MSTORE PUSH1 0x7 SWAP1 SWAP2 ADD SWAP1 SWAP3 MSTORE SWAP1 SWAP2 KECCAK256 SLOAD PUSH1 0x1 PUSH1 0x30 SHL SWAP1 DIV AND ISZERO DUP1 ISZERO PUSH2 0x1F94 JUMPI POP PUSH1 0x1 SLOAD PUSH1 0x1 PUSH1 0x1 PUSH1 0xA0 SHL SUB DUP4 DUP2 AND SWAP2 AND EQ ISZERO JUMPDEST DUP1 ISZERO PUSH2 0x1FA8 JUMPI POP PUSH1 0x1 PUSH1 0x1 PUSH1 0xA0 SHL SUB DUP3 AND ISZERO ISZERO JUMPDEST DUP1 ISZERO PUSH2 0x1FB7 JUMPI POP PUSH1 0x3 PUSH1 0xFF DUP3 AND LT JUMPDEST ISZERO PUSH2 0x207D JUMPI PUSH1 0x1 PUSH1 0x1 PUSH1 0xA0 SHL SUB DUP3 AND PUSH1 0x0 SWAP1 DUP2 MSTORE PUSH1 0x17 PUSH1 0x20 MSTORE PUSH1 0x40 DUP2 KECCAK256 PUSH1 0x6 ADD DUP1 SLOAD DUP6 SWAP3 SWAP1 PUSH2 0x1FE7 SWAP1 DUP5 SWAP1 PUSH2 0x261E JUMP JUMPDEST SWAP1 SWAP2 SSTORE POP POP PUSH1 0x1 PUSH1 0x1 PUSH1 0xA0 SHL SUB DUP7 DUP2 AND PUSH1 0x0 SWAP1 DUP2 MSTORE PUSH1 0x17 PUSH1 0x20 SWAP1 DUP2 MSTORE PUSH1 0x40 DUP1 DUP4 KECCAK256 SLOAD SWAP4 DUP7 AND DUP4 MSTORE SWAP2 DUP3 SWAP1 KECCAK256 SLOAD SWAP2 MLOAD DUP7 DUP2 MSTORE PUSH1 0xFF DUP9 AND SWAP4 SWAP3 SWAP2 PUSH32 0xE9D5DFC09351E7B04248ED26514EA34CF12373D57D5206D9D46CD2AD5E487055 SWAP2 ADD PUSH1 0x40 MLOAD DUP1 SWAP2 SUB SWAP1 LOG4 PUSH1 0x1 PUSH1 0x1 PUSH1 0xA0 SHL SUB SWAP2 DUP3 AND PUSH1 0x0 SWAP1 DUP2 MSTORE PUSH1 0x17 PUSH1 0x20 MSTORE PUSH1 0x40 SWAP1 KECCAK256 PUSH1 0x2 ADD SLOAD SWAP1 SWAP2 AND SWAP1 DUP1 PUSH2 0x2075 DUP2 PUSH2 0x2396 JUMP JUMPDEST SWAP2 POP POP PUSH2 0x1F43 JUMP JUMPDEST PUSH1 0x1 PUSH1 0x1 PUSH1 0xA0 SHL SUB DUP3 AND ISZERO DUP1 PUSH2 0x2097 JUMPI POP PUSH1 0x3 PUSH1 0xFF DUP3 AND LT ISZERO JUMPDEST ISZERO PUSH2 0x20AB JUMPI PUSH1 0x1 SLOAD PUSH1 0x1 PUSH1 0x1 PUSH1 0xA0 SHL SUB AND SWAP2 POP JUMPDEST PUSH2 0x20B5 DUP3 DUP5 PUSH2 0x1C86 JUMP JUMPDEST PUSH1 0x1 PUSH1 0x1 PUSH1 0xA0 SHL SUB DUP3 AND PUSH1 0x0 SWAP1 DUP2 MSTORE PUSH1 0x17 PUSH1 0x20 SWAP1 DUP2 MSTORE PUSH1 0x40 DUP1 DUP4 KECCAK256 PUSH1 0xFF DUP9 AND DUP5 MSTORE PUSH1 0x7 ADD SWAP1 SWAP2 MSTORE DUP2 KECCAK256 PUSH1 0x2 ADD DUP1 SLOAD DUP6 SWAP3 SWAP1 PUSH2 0x20F1 SWAP1 DUP5 SWAP1 PUSH2 0x261E JUMP JUMPDEST SWAP1 SWAP2 SSTORE POP POP PUSH1 0x1 PUSH1 0x1 PUSH1 0xA0 SHL SUB DUP3 AND PUSH1 0x0 SWAP1 DUP2 MSTORE PUSH1 0x17 PUSH1 0x20 MSTORE PUSH1 0x40 DUP2 KECCAK256 PUSH1 0x4 ADD DUP1 SLOAD DUP6 SWAP3 SWAP1 PUSH2 0x2121 SWAP1 DUP5 SWAP1 PUSH2 0x261E JUMP JUMPDEST SWAP1 SWAP2 SSTORE POP POP PUSH1 0x1 PUSH1 0x1 PUSH1 0xA0 SHL SUB DUP7 DUP2 AND PUSH1 0x0 SWAP1 DUP2 MSTORE PUSH1 0x17 PUSH1 0x20 SWAP1 DUP2 MSTORE PUSH1 0x40 DUP1 DUP4 KECCAK256 SLOAD SWAP4 DUP7 AND DUP4 MSTORE SWAP2 DUP3 SWAP1 KECCAK256 SLOAD SWAP2 MLOAD DUP7 DUP2 MSTORE PUSH1 0xFF DUP9 AND SWAP4 SWAP3 SWAP2 PUSH32 0x6D8172DA503639A6DAA587046B28564AFBEE4369ECA5D54E7551A07A591DB533 SWAP2 ADD PUSH1 0x40 MLOAD DUP1 SWAP2 SUB SWAP1 LOG4 POP POP POP POP POP POP JUMP JUMPDEST PUSH1 0x1 SLOAD PUSH1 0x1 PUSH1 0xA0 SHL SWAP1 DIV PUSH1 0xFF AND PUSH2 0x8C8 JUMPI PUSH1 0x40 MLOAD PUSH4 0x8DFC202B PUSH1 0xE0 SHL DUP2 MSTORE PUSH1 0x4 ADD PUSH1 0x40 MLOAD DUP1 SWAP2 SUB SWAP1 REVERT JUMPDEST PUSH1 0x1 PUSH1 0x1 PUSH1 0xA0 SHL SUB DUP4 AND PUSH1 0x0 SWAP1 DUP2 MSTORE PUSH1 0x17 PUSH1 0x20 SWAP1 DUP2 MSTORE PUSH1 0x40 DUP1 DUP4 KECCAK256 PUSH1 0xFF DUP1 DUP8 AND DUP6 MSTORE PUSH1 0x7 SWAP1 SWAP2 ADD SWAP1 SWAP3 MSTORE DUP3 KECCAK256 DUP1 SLOAD SWAP1 SWAP2 PUSH1 0x1 PUSH1 0x30 SHL SWAP1 SWAP2 DIV AND PUSH2 0x21FD JUMPI PUSH1 0x0 SWAP2 POP POP PUSH2 0x2250 JUMP JUMPDEST DUP1 SLOAD PUSH2 0xFFFF PUSH3 0x10000 DUP3 DIV DUP2 AND PUSH5 0x100000000 SWAP1 SWAP3 DIV AND LT ISZERO PUSH2 0x2224 JUMPI PUSH1 0x0 SWAP2 POP POP PUSH2 0x2250 JUMP JUMPDEST PUSH1 0x10 PUSH1 0xFF DUP6 AND LT PUSH2 0x2239 JUMPI PUSH1 0x1 SWAP2 POP POP PUSH2 0x2250 JUMP JUMPDEST PUSH1 0xFF DUP4 AND PUSH2 0x2248 DUP6 PUSH1 0x1 PUSH2 0x2631 JUMP JUMPDEST PUSH1 0xFF AND EQ SWAP2 POP POP JUMPDEST SWAP4 SWAP3 POP POP POP JUMP JUMPDEST PUSH1 0x1 PUSH1 0x1 PUSH1 0xA0 SHL SUB DUP1 DUP4 AND PUSH1 0x0 SWAP1 DUP2 MSTORE PUSH1 0x17 PUSH1 0x20 MSTORE PUSH1 0x40 DUP2 KECCAK256 PUSH1 0x2 ADD SLOAD SWAP1 SWAP2 AND PUSH1 0x1 JUMPDEST DUP4 PUSH1 0xFF AND DUP2 PUSH1 0xFF AND LT DUP1 ISZERO PUSH2 0x229D JUMPI POP PUSH1 0x1 SLOAD PUSH1 0x1 PUSH1 0x1 PUSH1 0xA0 SHL SUB DUP4 DUP2 AND SWAP2 AND EQ ISZERO JUMPDEST DUP1 ISZERO PUSH2 0x22B1 JUMPI POP PUSH1 0x1 PUSH1 0x1 PUSH1 0xA0 SHL SUB DUP3 AND ISZERO ISZERO JUMPDEST ISZERO PUSH2 0x22EF JUMPI PUSH1 0x1 PUSH1 0x1 PUSH1 0xA0 SHL SUB SWAP2 DUP3 AND PUSH1 0x0 SWAP1 DUP2 MSTORE PUSH1 0x17 PUSH1 0x20 MSTORE PUSH1 0x40 SWAP1 KECCAK256 PUSH1 0x2 ADD SLOAD SWAP1 SWAP2 AND SWAP1 DUP2 ISZERO PUSH2 0x22EF JUMPI DUP1 PUSH2 0x22E7 DUP2 PUSH2 0x2396 JUMP JUMPDEST SWAP2 POP POP PUSH2 0x227A JUMP JUMPDEST POP PUSH1 0x1 PUSH1 0x1 PUSH1 0xA0 SHL SUB DUP2 AND ISZERO PUSH2 0x2305 JUMPI DUP1 PUSH2 0x2312 JUMP JUMPDEST PUSH1 0x1 SLOAD PUSH1 0x1 PUSH1 0x1 PUSH1 0xA0 SHL SUB AND JUMPDEST SWAP2 POP POP JUMPDEST SWAP3 SWAP2 POP POP JUMP JUMPDEST PUSH1 0x40 MLOAD DUP1 PUSH2 0x220 ADD PUSH1 0x40 MSTORE DUP1 PUSH1 0x11 SWAP1 PUSH1 0x20 DUP3 MUL DUP1 CALLDATASIZE DUP4 CALLDATACOPY POP SWAP2 SWAP3 SWAP2 POP POP JUMP JUMPDEST PUSH1 0x20 DUP1 DUP3 MSTORE PUSH1 0x15 SWAP1 DUP3 ADD MSTORE PUSH21 0x10DBDB9D1C9858DD1CC81B9BDD08185B1B1BDDD959 PUSH1 0x5A SHL PUSH1 0x40 DUP3 ADD MSTORE PUSH1 0x60 ADD SWAP1 JUMP JUMPDEST PUSH4 0x4E487B71 PUSH1 0xE0 SHL PUSH1 0x0 MSTORE PUSH1 0x32 PUSH1 0x4 MSTORE PUSH1 0x24 PUSH1 0x0 REVERT JUMPDEST PUSH4 0x4E487B71 PUSH1 0xE0 SHL PUSH1 0x0 MSTORE PUSH1 0x11 PUSH1 0x4 MSTORE PUSH1 0x24 PUSH1 0x0 REVERT JUMPDEST PUSH1 0x0 PUSH1 0xFF DUP3 AND PUSH1 0xFF DUP2 SUB PUSH2 0x23AC JUMPI PUSH2 0x23AC PUSH2 0x2380 JUMP JUMPDEST PUSH1 0x1 ADD SWAP3 SWAP2 POP POP JUMP JUMPDEST DUP1 CALLDATALOAD PUSH1 0xFF DUP2 AND DUP2 EQ PUSH2 0x23C6 JUMPI PUSH1 0x0 DUP1 REVERT JUMPDEST SWAP2 SWAP1 POP JUMP JUMPDEST PUSH1 0x0 PUSH1 0x20 DUP3 DUP5 SUB SLT ISZERO PUSH2 0x23DD JUMPI PUSH1 0x0 DUP1 REVERT JUMPDEST PUSH2 0x2250 DUP3 PUSH2 0x23B5 JUMP JUMPDEST PUSH1 0x1 PUSH1 0x1 PUSH1 0xA0 SHL SUB DUP2 AND DUP2 EQ PUSH2 0xCC3 JUMPI PUSH1 0x0 DUP1 REVERT JUMPDEST PUSH1 0x0 DUP1 PUSH1 0x40 DUP4 DUP6 SUB SLT ISZERO PUSH2 0x240E JUMPI PUSH1 0x0 DUP1 REVERT JUMPDEST DUP3 CALLDATALOAD PUSH2 0x2419 DUP2 PUSH2 0x23E6 JUMP JUMPDEST SWAP2 POP PUSH2 0x2427 PUSH1 0x20 DUP5 ADD PUSH2 0x23B5 JUMP JUMPDEST SWAP1 POP SWAP3 POP SWAP3 SWAP1 POP JUMP JUMPDEST PUSH1 0x0 PUSH1 0x20 DUP3 DUP5 SUB SLT ISZERO PUSH2 0x2442 JUMPI PUSH1 0x0 DUP1 REVERT JUMPDEST DUP2 CALLDATALOAD PUSH2 0x2250 DUP2 PUSH2 0x23E6 JUMP JUMPDEST PUSH2 0x220 DUP2 ADD DUP2 DUP4 PUSH1 0x0 JUMPDEST PUSH1 0x11 DUP2 LT ISZERO PUSH2 0x2476 JUMPI DUP2 MLOAD DUP4 MSTORE PUSH1 0x20 SWAP3 DUP4 ADD SWAP3 SWAP1 SWAP2 ADD SWAP1 PUSH1 0x1 ADD PUSH2 0x2457 JUMP JUMPDEST POP POP POP SWAP3 SWAP2 POP POP JUMP JUMPDEST PUSH1 0x0 PUSH1 0x20 DUP3 DUP5 SUB SLT ISZERO PUSH2 0x2491 JUMPI PUSH1 0x0 DUP1 REVERT JUMPDEST POP CALLDATALOAD SWAP2 SWAP1 POP JUMP JUMPDEST PUSH1 0x0 DUP1 PUSH1 0x40 DUP4 DUP6 SUB SLT ISZERO PUSH2 0x24AB JUMPI PUSH1 0x0 DUP1 REVERT JUMPDEST PUSH2 0x24B4 DUP4 PUSH2 0x23B5 JUMP JUMPDEST SWAP5 PUSH1 0x20 SWAP4 SWAP1 SWAP4 ADD CALLDATALOAD SWAP4 POP POP POP JUMP JUMPDEST PUSH1 0x0 DUP2 MLOAD DUP1 DUP5 MSTORE PUSH1 0x20 DUP1 DUP6 ADD SWAP5 POP DUP1 DUP5 ADD PUSH1 0x0 JUMPDEST DUP4 DUP2 LT ISZERO PUSH2 0x24F6 JUMPI DUP2 MLOAD PUSH2 0xFFFF AND DUP8 MSTORE SWAP6 DUP3 ADD SWAP6 SWAP1 DUP3 ADD SWAP1 PUSH1 0x1 ADD PUSH2 0x24D6 JUMP JUMPDEST POP SWAP5 SWAP6 SWAP5 POP POP POP POP POP JUMP JUMPDEST PUSH1 0x0 DUP2 MLOAD DUP1 DUP5 MSTORE PUSH1 0x20 DUP1 DUP6 ADD SWAP5 POP DUP1 DUP5 ADD PUSH1 0x0 JUMPDEST DUP4 DUP2 LT ISZERO PUSH2 0x24F6 JUMPI DUP2 MLOAD DUP8 MSTORE SWAP6 DUP3 ADD SWAP6 SWAP1 DUP3 ADD SWAP1 PUSH1 0x1 ADD PUSH2 0x2515 JUMP JUMPDEST PUSH1 0xC0 DUP1 DUP3 MSTORE DUP8 MLOAD SWAP1 DUP3 ADD DUP2 SWAP1 MSTORE PUSH1 0x0 SWAP1 PUSH1 0x20 SWAP1 PUSH1 0xE0 DUP5 ADD SWAP1 DUP3 DUP12 ADD DUP5 JUMPDEST DUP3 DUP2 LT ISZERO PUSH2 0x256C JUMPI DUP2 MLOAD ISZERO ISZERO DUP5 MSTORE SWAP3 DUP5 ADD SWAP3 SWAP1 DUP5 ADD SWAP1 PUSH1 0x1 ADD PUSH2 0x254E JUMP JUMPDEST POP POP POP DUP4 DUP2 SUB DUP3 DUP6 ADD MSTORE PUSH2 0x2580 DUP2 DUP11 PUSH2 0x24C2 JUMP JUMPDEST SWAP2 POP POP DUP3 DUP2 SUB PUSH1 0x40 DUP5 ADD MSTORE PUSH2 0x2595 DUP2 DUP9 PUSH2 0x24C2 JUMP JUMPDEST SWAP1 POP DUP3 DUP2 SUB PUSH1 0x60 DUP5 ADD MSTORE PUSH2 0x25A9 DUP2 DUP8 PUSH2 0x24C2 JUMP JUMPDEST SWAP1 POP DUP3 DUP2 SUB PUSH1 0x80 DUP5 ADD MSTORE PUSH2 0x25BD DUP2 DUP7 PUSH2 0x2501 JUMP JUMPDEST SWAP1 POP DUP3 DUP2 SUB PUSH1 0xA0 DUP5 ADD MSTORE PUSH2 0x25D1 DUP2 DUP6 PUSH2 0x2501 JUMP JUMPDEST SWAP10 SWAP9 POP POP POP POP POP POP POP POP POP JUMP JUMPDEST PUSH1 0x0 PUSH1 0x1 DUP3 ADD PUSH2 0x25F0 JUMPI PUSH2 0x25F0 PUSH2 0x2380 JUMP JUMPDEST POP PUSH1 0x1 ADD SWAP1 JUMP JUMPDEST PUSH1 0x20 DUP1 DUP3 MSTORE PUSH1 0xD SWAP1 DUP3 ADD MSTORE PUSH13 0x125B9D985B1A59081B195D995B PUSH1 0x9A SHL PUSH1 0x40 DUP3 ADD MSTORE PUSH1 0x60 ADD SWAP1 JUMP JUMPDEST DUP1 DUP3 ADD DUP1 DUP3 GT ISZERO PUSH2 0x2316 JUMPI PUSH2 0x2316 PUSH2 0x2380 JUMP JUMPDEST PUSH1 0xFF DUP2 DUP2 AND DUP4 DUP3 AND ADD SWAP1 DUP2 GT ISZERO PUSH2 0x2316 JUMPI PUSH2 0x2316 PUSH2 0x2380 JUMP JUMPDEST PUSH4 0x4E487B71 PUSH1 0xE0 SHL PUSH1 0x0 MSTORE PUSH1 0x41 PUSH1 0x4 MSTORE PUSH1 0x24 PUSH1 0x0 REVERT JUMPDEST DUP2 DUP2 SUB DUP2 DUP2 GT ISZERO PUSH2 0x2316 JUMPI PUSH2 0x2316 PUSH2 0x2380 JUMP JUMPDEST PUSH1 0x0 PUSH2 0xFFFF DUP1 DUP4 AND DUP2 DUP2 SUB PUSH2 0x268A JUMPI PUSH2 0x268A PUSH2 0x2380 JUMP JUMPDEST PUSH1 0x1 ADD SWAP4 SWAP3 POP POP POP JUMP JUMPDEST PUSH2 0xFFFF DUP2 DUP2 AND DUP4 DUP3 AND ADD SWAP1 DUP1 DUP3 GT ISZERO PUSH2 0xDEA JUMPI PUSH2 0xDEA PUSH2 0x2380 JUMP JUMPDEST DUP1 DUP3 MUL DUP2 ISZERO DUP3 DUP3 DIV DUP5 EQ OR PUSH2 0x2316 JUMPI PUSH2 0x2316 PUSH2 0x2380 JUMP JUMPDEST PUSH1 0x0 DUP3 PUSH2 0x26E3 JUMPI PUSH4 0x4E487B71 PUSH1 0xE0 SHL PUSH1 0x0 MSTORE PUSH1 0x12 PUSH1 0x4 MSTORE PUSH1 0x24 PUSH1 0x0 REVERT JUMPDEST POP DIV SWAP1 JUMP INVALID LOG2 PUSH5 0x6970667358 0x22 SLT KECCAK256 PUSH11 0x484D1580D0038CD1FE6EA3 0xB7 DUP13 0xF8 0xE6 MUL REVERT 0x1E PUSH2 0x5E3 JUMPDEST 0xB4 LOG1 0xA6 0x4D LOG3 SWAP1 0x1F 0xC1 0xB4 PUSH5 0x736F6C6343 STOP ADDMOD EQ STOP CALLER "},"methodIdentifiers":{"MAX_LEVELS()":"6702c7bf","MAX_REFERRAL_LINES()":"23994d9c","REGISTRATION_PRICE()":"2663e0b5","REWARD_PAYOUTS()":"8f1fcd7a","REWARD_PERCENT()":"06fbedbe","buyLevel(uint8)":"8d17a4d0","emergencyWithdraw()":"db2e21bc","getAllLevelPrices()":"37e3c789","getContractBalance()":"6f9fb98a","getGlobalStats()":"6b4169c3","getPlaceInQueue(address,uint8)":"cfce5044","getUser(address)":"6f77926b","getUserLevels(address)":"b0566497","globalStat()":"60891fe4","headIndex(uint8)":"091b430a","isLevelFrozen(address,uint8)":"0e475efd","isUserRegistered(address)":"163f7522","levelPrices(uint256)":"48135df0","levelQueue(uint8,uint256)":"4debc14f","minUsersForLevel(uint8)":"03b56a03","owner()":"8da5cb5b","pause()":"8456cb59","paused()":"5c975abb","referralRewardPercents(uint256)":"bd4616f4","register()":"1aa3a008","registerWithReferrer(address)":"968763a0","renounceOwnership()":"715018a6","setTokenBurner(address)":"b0af768b","tokenBurner()":"2996f972","transferOwnership(address)":"f2fde38b","unpause()":"3f4ba83a","users(address)":"a87430ba","usersAddressById(uint256)":"dea64dc5"}}}}}