{
  "_format": "hh-sol-artifact-1",
  "contractName": "ImprovedMLM_BSC",
  "sourceName": "contracts/ImprovedMLM_BSC.sol",
  "abi": [
    {
      "inputs": [
        {
          "internalType": "address payable",
          "name": "_tokenBurner",
          "type": "address"
        }
      ],
      "stateMutability": "nonpayable",
      "type": "constructor"
    },
    {
      "inputs": [],
      "name": "EnforcedPause",
      "type": "error"
    },
    {
      "inputs": [],
      "name": "ExpectedPause",
      "type": "error"
    },
    {
      "inputs": [
        {
          "internalType": "address",
          "name": "owner",
          "type": "address"
        }
      ],
      "name": "OwnableInvalidOwner",
      "type": "error"
    },
    {
      "inputs": [
        {
          "internalType": "address",
          "name": "account",
          "type": "address"
        }
      ],
      "name": "OwnableUnauthorizedAccount",
      "type": "error"
    },
    {
      "inputs": [],
      "name": "ReentrancyGuardReentrantCall",
      "type": "error"
    },
    {
      "anonymous": false,
      "inputs": [
        {
          "indexed": true,
          "internalType": "uint256",
          "name": "userId",
          "type": "uint256"
        },
        {
          "indexed": true,
          "internalType": "uint8",
          "name": "level",
          "type": "uint8"
        },
        {
          "indexed": false,
          "internalType": "uint256",
          "name": "value",
          "type": "uint256"
        }
      ],
      "name": "BuyLevel",
      "type": "event"
    },
    {
      "anonymous": false,
      "inputs": [
        {
          "indexed": true,
          "internalType": "uint256",
          "name": "userId",
          "type": "uint256"
        },
        {
          "indexed": true,
          "internalType": "uint8",
          "name": "level",
          "type": "uint8"
        },
        {
          "indexed": false,
          "internalType": "uint16",
          "name": "newMaxPayouts",
          "type": "uint16"
        }
      ],
      "name": "IncreaseLevelMaxPayouts",
      "type": "event"
    },
    {
      "anonymous": false,
      "inputs": [
        {
          "indexed": true,
          "internalType": "uint256",
          "name": "userId",
          "type": "uint256"
        },
        {
          "indexed": true,
          "internalType": "uint8",
          "name": "level",
          "type": "uint8"
        }
      ],
      "name": "LevelDeactivation",
      "type": "event"
    },
    {
      "anonymous": false,
      "inputs": [
        {
          "indexed": true,
          "internalType": "uint256",
          "name": "userId",
          "type": "uint256"
        },
        {
          "indexed": true,
          "internalType": "uint8",
          "name": "level",
          "type": "uint8"
        },
        {
          "indexed": false,
          "internalType": "uint256",
          "name": "rewardValue",
          "type": "uint256"
        },
        {
          "indexed": true,
          "internalType": "uint256",
          "name": "fromUserId",
          "type": "uint256"
        }
      ],
      "name": "LevelPayout",
      "type": "event"
    },
    {
      "anonymous": false,
      "inputs": [
        {
          "indexed": true,
          "internalType": "uint256",
          "name": "referrerId",
          "type": "uint256"
        },
        {
          "indexed": true,
          "internalType": "uint256",
          "name": "referralId",
          "type": "uint256"
        },
        {
          "indexed": true,
          "internalType": "uint8",
          "name": "level",
          "type": "uint8"
        },
        {
          "indexed": false,
          "internalType": "uint256",
          "name": "rewardValue",
          "type": "uint256"
        }
      ],
      "name": "MissedReferralPayout",
      "type": "event"
    },
    {
      "anonymous": false,
      "inputs": [
        {
          "indexed": true,
          "internalType": "address",
          "name": "previousOwner",
          "type": "address"
        },
        {
          "indexed": true,
          "internalType": "address",
          "name": "newOwner",
          "type": "address"
        }
      ],
      "name": "OwnershipTransferred",
      "type": "event"
    },
    {
      "anonymous": false,
      "inputs": [
        {
          "indexed": false,
          "internalType": "address",
          "name": "account",
          "type": "address"
        }
      ],
      "name": "Paused",
      "type": "event"
    },
    {
      "anonymous": false,
      "inputs": [
        {
          "indexed": true,
          "internalType": "uint256",
          "name": "referrerId",
          "type": "uint256"
        },
        {
          "indexed": true,
          "internalType": "uint256",
          "name": "referralId",
          "type": "uint256"
        },
        {
          "indexed": true,
          "internalType": "uint8",
          "name": "level",
          "type": "uint8"
        },
        {
          "indexed": false,
          "internalType": "uint256",
          "name": "rewardValue",
          "type": "uint256"
        }
      ],
      "name": "ReferralPayout",
      "type": "event"
    },
    {
      "anonymous": false,
      "inputs": [
        {
          "indexed": true,
          "internalType": "address",
          "name": "oldBurner",
          "type": "address"
        },
        {
          "indexed": true,
          "internalType": "address",
          "name": "newBurner",
          "type": "address"
        }
      ],
      "name": "TokenBurnerUpdated",
      "type": "event"
    },
    {
      "anonymous": false,
      "inputs": [
        {
          "indexed": false,
          "internalType": "address",
          "name": "account",
          "type": "address"
        }
      ],
      "name": "Unpaused",
      "type": "event"
    },
    {
      "anonymous": false,
      "inputs": [
        {
          "indexed": true,
          "internalType": "uint256",
          "name": "userId",
          "type": "uint256"
        },
        {
          "indexed": true,
          "internalType": "uint256",
          "name": "referrerId",
          "type": "uint256"
        },
        {
          "indexed": true,
          "internalType": "address",
          "name": "userAddress",
          "type": "address"
        }
      ],
      "name": "UserRegistration",
      "type": "event"
    },
    {
      "inputs": [],
      "name": "MAX_LEVELS",
      "outputs": [
        {
          "internalType": "uint8",
          "name": "",
          "type": "uint8"
        }
      ],
      "stateMutability": "view",
      "type": "function"
    },
    {
      "inputs": [],
      "name": "MAX_REFERRAL_LINES",
      "outputs": [
        {
          "internalType": "uint8",
          "name": "",
          "type": "uint8"
        }
      ],
      "stateMutability": "view",
      "type": "function"
    },
    {
      "inputs": [],
      "name": "REGISTRATION_PRICE",
      "outputs": [
        {
          "internalType": "uint256",
          "name": "",
          "type": "uint256"
        }
      ],
      "stateMutability": "view",
      "type": "function"
    },
    {
      "inputs": [],
      "name": "REWARD_PAYOUTS",
      "outputs": [
        {
          "internalType": "uint8",
          "name": "",
          "type": "uint8"
        }
      ],
      "stateMutability": "view",
      "type": "function"
    },
    {
      "inputs": [],
      "name": "REWARD_PERCENT",
      "outputs": [
        {
          "internalType": "uint8",
          "name": "",
          "type": "uint8"
        }
      ],
      "stateMutability": "view",
      "type": "function"
    },
    {
      "inputs": [
        {
          "internalType": "uint8",
          "name": "level",
          "type": "uint8"
        }
      ],
      "name": "buyLevel",
      "outputs": [],
      "stateMutability": "payable",
      "type": "function"
    },
    {
      "inputs": [],
      "name": "emergencyWithdraw",
      "outputs": [],
      "stateMutability": "nonpayable",
      "type": "function"
    },
    {
      "inputs": [],
      "name": "getAllLevelPrices",
      "outputs": [
        {
          "internalType": "uint256[17]",
          "name": "",
          "type": "uint256[17]"
        }
      ],
      "stateMutability": "view",
      "type": "function"
    },
    {
      "inputs": [],
      "name": "getContractBalance",
      "outputs": [
        {
          "internalType": "uint256",
          "name": "",
          "type": "uint256"
        }
      ],
      "stateMutability": "view",
      "type": "function"
    },
    {
      "inputs": [],
      "name": "getGlobalStats",
      "outputs": [
        {
          "internalType": "uint256",
          "name": "members",
          "type": "uint256"
        },
        {
          "internalType": "uint256",
          "name": "transactions",
          "type": "uint256"
        },
        {
          "internalType": "uint256",
          "name": "turnover",
          "type": "uint256"
        }
      ],
      "stateMutability": "view",
      "type": "function"
    },
    {
      "inputs": [
        {
          "internalType": "address",
          "name": "userAddress",
          "type": "address"
        },
        {
          "internalType": "uint8",
          "name": "level",
          "type": "uint8"
        }
      ],
      "name": "getPlaceInQueue",
      "outputs": [
        {
          "internalType": "uint256",
          "name": "place",
          "type": "uint256"
        },
        {
          "internalType": "uint256",
          "name": "totalInQueue",
          "type": "uint256"
        }
      ],
      "stateMutability": "view",
      "type": "function"
    },
    {
      "inputs": [
        {
          "internalType": "address",
          "name": "userAddress",
          "type": "address"
        }
      ],
      "name": "getUser",
      "outputs": [
        {
          "internalType": "uint256",
          "name": "id",
          "type": "uint256"
        },
        {
          "internalType": "uint256",
          "name": "registrationTimestamp",
          "type": "uint256"
        },
        {
          "internalType": "uint256",
          "name": "referrerId",
          "type": "uint256"
        },
        {
          "internalType": "address",
          "name": "referrer",
          "type": "address"
        },
        {
          "internalType": "uint256",
          "name": "referrals",
          "type": "uint256"
        },
        {
          "internalType": "uint256",
          "name": "referralPayoutSum",
          "type": "uint256"
        },
        {
          "internalType": "uint256",
          "name": "levelsRewardSum",
          "type": "uint256"
        },
        {
          "internalType": "uint256",
          "name": "missedReferralPayoutSum",
          "type": "uint256"
        }
      ],
      "stateMutability": "view",
      "type": "function"
    },
    {
      "inputs": [
        {
          "internalType": "address",
          "name": "userAddress",
          "type": "address"
        }
      ],
      "name": "getUserLevels",
      "outputs": [
        {
          "internalType": "bool[]",
          "name": "active",
          "type": "bool[]"
        },
        {
          "internalType": "uint16[]",
          "name": "payouts",
          "type": "uint16[]"
        },
        {
          "internalType": "uint16[]",
          "name": "maxPayouts",
          "type": "uint16[]"
        },
        {
          "internalType": "uint16[]",
          "name": "activationTimes",
          "type": "uint16[]"
        },
        {
          "internalType": "uint256[]",
          "name": "rewardSum",
          "type": "uint256[]"
        },
        {
          "internalType": "uint256[]",
          "name": "referralPayoutSum",
          "type": "uint256[]"
        }
      ],
      "stateMutability": "view",
      "type": "function"
    },
    {
      "inputs": [],
      "name": "globalStat",
      "outputs": [
        {
          "internalType": "uint256",
          "name": "members",
          "type": "uint256"
        },
        {
          "internalType": "uint256",
          "name": "transactions",
          "type": "uint256"
        },
        {
          "internalType": "uint256",
          "name": "turnover",
          "type": "uint256"
        }
      ],
      "stateMutability": "view",
      "type": "function"
    },
    {
      "inputs": [
        {
          "internalType": "uint8",
          "name": "",
          "type": "uint8"
        }
      ],
      "name": "headIndex",
      "outputs": [
        {
          "internalType": "uint256",
          "name": "",
          "type": "uint256"
        }
      ],
      "stateMutability": "view",
      "type": "function"
    },
    {
      "inputs": [
        {
          "internalType": "address",
          "name": "userAddress",
          "type": "address"
        }
      ],
      "name": "isUserRegistered",
      "outputs": [
        {
          "internalType": "bool",
          "name": "",
          "type": "bool"
        }
      ],
      "stateMutability": "view",
      "type": "function"
    },
    {
      "inputs": [
        {
          "internalType": "uint256",
          "name": "",
          "type": "uint256"
        }
      ],
      "name": "levelPrices",
      "outputs": [
        {
          "internalType": "uint256",
          "name": "",
          "type": "uint256"
        }
      ],
      "stateMutability": "view",
      "type": "function"
    },
    {
      "inputs": [
        {
          "internalType": "uint8",
          "name": "",
          "type": "uint8"
        },
        {
          "internalType": "uint256",
          "name": "",
          "type": "uint256"
        }
      ],
      "name": "levelQueue",
      "outputs": [
        {
          "internalType": "address",
          "name": "",
          "type": "address"
        }
      ],
      "stateMutability": "view",
      "type": "function"
    },
    {
      "inputs": [
        {
          "internalType": "uint8",
          "name": "",
          "type": "uint8"
        }
      ],
      "name": "minUsersForLevel",
      "outputs": [
        {
          "internalType": "uint256",
          "name": "",
          "type": "uint256"
        }
      ],
      "stateMutability": "view",
      "type": "function"
    },
    {
      "inputs": [],
      "name": "owner",
      "outputs": [
        {
          "internalType": "address",
          "name": "",
          "type": "address"
        }
      ],
      "stateMutability": "view",
      "type": "function"
    },
    {
      "inputs": [],
      "name": "pause",
      "outputs": [],
      "stateMutability": "nonpayable",
      "type": "function"
    },
    {
      "inputs": [],
      "name": "paused",
      "outputs": [
        {
          "internalType": "bool",
          "name": "",
          "type": "bool"
        }
      ],
      "stateMutability": "view",
      "type": "function"
    },
    {
      "inputs": [
        {
          "internalType": "uint256",
          "name": "",
          "type": "uint256"
        }
      ],
      "name": "referralRewardPercents",
      "outputs": [
        {
          "internalType": "uint8",
          "name": "",
          "type": "uint8"
        }
      ],
      "stateMutability": "view",
      "type": "function"
    },
    {
      "inputs": [],
      "name": "register",
      "outputs": [],
      "stateMutability": "payable",
      "type": "function"
    },
    {
      "inputs": [
        {
          "internalType": "address",
          "name": "referrer",
          "type": "address"
        }
      ],
      "name": "registerWithReferrer",
      "outputs": [],
      "stateMutability": "payable",
      "type": "function"
    },
    {
      "inputs": [],
      "name": "renounceOwnership",
      "outputs": [],
      "stateMutability": "nonpayable",
      "type": "function"
    },
    {
      "inputs": [
        {
          "internalType": "address payable",
          "name": "_tokenBurner",
          "type": "address"
        }
      ],
      "name": "setTokenBurner",
      "outputs": [],
      "stateMutability": "nonpayable",
      "type": "function"
    },
    {
      "inputs": [],
      "name": "tokenBurner",
      "outputs": [
        {
          "internalType": "address payable",
          "name": "",
          "type": "address"
        }
      ],
      "stateMutability": "view",
      "type": "function"
    },
    {
      "inputs": [
        {
          "internalType": "address",
          "name": "newOwner",
          "type": "address"
        }
      ],
      "name": "transferOwnership",
      "outputs": [],
      "stateMutability": "nonpayable",
      "type": "function"
    },
    {
      "inputs": [],
      "name": "unpause",
      "outputs": [],
      "stateMutability": "nonpayable",
      "type": "function"
    },
    {
      "inputs": [
        {
          "internalType": "address",
          "name": "",
          "type": "address"
        }
      ],
      "name": "users",
      "outputs": [
        {
          "internalType": "uint256",
          "name": "id",
          "type": "uint256"
        },
        {
          "internalType": "uint256",
          "name": "registrationTimestamp",
          "type": "uint256"
        },
        {
          "internalType": "address",
          "name": "referrer",
          "type": "address"
        },
        {
          "internalType": "uint256",
          "name": "referrals",
          "type": "uint256"
        },
        {
          "internalType": "uint256",
          "name": "referralPayoutSum",
          "type": "uint256"
        },
        {
          "internalType": "uint256",
          "name": "levelsRewardSum",
          "type": "uint256"
        },
        {
          "internalType": "uint256",
          "name": "missedReferralPayoutSum",
          "type": "uint256"
        }
      ],
      "stateMutability": "view",
      "type": "function"
    },
    {
      "inputs": [
        {
          "internalType": "uint256",
          "name": "",
          "type": "uint256"
        }
      ],
      "name": "usersAddressById",
      "outputs": [
        {
          "internalType": "address",
          "name": "",
          "type": "address"
        }
      ],
      "stateMutability": "view",
      "type": "function"
    },
    {
      "stateMutability": "payable",
      "type": "receive"
    }
  ],
  "bytecode": "0x61010060405260006080908152600d60a052600860c052600560e0526200002b90600290600462000547565b5060408051610220810182526000815266b1a2bc2ec50000602082015266f8b0a10e4700009181019190915267016345785d8a000060608201526701f161421c8e000060808201526702c68af0bb14000060a08201526703e2c284391c000060c082015267058d15e17628000060e08201526707a1fe1602770000610100820152670b1a2bc2ec500000610120820152670f43fc2c04ee00006101408201526716345785d8a00000610160820152671e87f85809dc0000610180820152672c68af0bb14000006101a0820152673d0ff0b013b800006101c0820152675a34a38fc00a00006101e0820152676f05b59d3b20000061020082015262000134906004906011620005e1565b5060026016553480156200014757600080fd5b5060405162002a4338038062002a438339810160408190526200016a9162000634565b600160005533806200019757604051631e4fbdf760e01b8152600060048201526024015b60405180910390fd5b620001a28162000298565b506001600160a01b038116620001fb5760405162461bcd60e51b815260206004820152601c60248201527f496e76616c696420746f6b656e206275726e657220616464726573730000000060448201526064016200018e565b600380546001600160a01b0319166001600160a01b03831617905560045b601060ff821611620002505760ff811660009081526015602052604090206001905580620002478162000666565b91505062000219565b506200025b620002ea565b6040516001600160a01b038216906000907ff1f34e0fc899850dc916e4128492f6cb73a06c53bae553fb09883f5dadf061d8908290a35062000694565b600180546001600160a01b038381166001600160a01b0319831681179093556040519116919082907f8be0079c531659141344cd1fd0a4f28419497f9722a3daafe3b4186f6b6457e090600090a35050565b600160176000620003036001546001600160a01b031690565b6001600160a01b03168152602081019190915260400160009081209190915542906017906200033a6001546001600160a01b031690565b6001600160a01b031681526020810191909152604001600090812060010191909155601781620003726001546001600160a01b031690565b6001600160a01b039081168252602082019290925260400160002060020180546001600160a01b03191692909116919091179055620003b96001546001600160a01b031690565b6001600081905260186020527ff3794665d3af9b6fb6f858b70185898134f96768ef31c325d52e04f0ac195a4d80546001600160a01b0319166001600160a01b039390931692909217909155601b819055601c8190555b601060ff8216116200054457600160176000620004356001546001600160a01b031690565b6001600160a01b031681526020808201929092526040908101600090812060ff861682526007019092528120805492151566010000000000000260ff60301b199093169290921790915561dd5a90601790620004996001546001600160a01b031690565b6001600160a01b031681526020808201929092526040908101600090812060ff861682526007018352818120805461ffff95909516620100000263ffff0000199095169490941790935560199091529020620004fd6001546001600160a01b031690565b81546001810183556000928352602090922090910180546001600160a01b0319166001600160a01b03909216919091179055806200053b8162000666565b91505062000410565b50565b600183019183908215620005cf5791602002820160005b838211156200059e57835183826101000a81548160ff021916908360ff16021790555092602001926001016020816000010492830192600103026200055e565b8015620005cd5782816101000a81549060ff02191690556001016020816000010492830192600103026200059e565b505b50620005dd9291506200061d565b5090565b8260118101928215620005cf579160200282015b82811115620005cf57825182906001600160401b0316905591602001919060010190620005f5565b5b80821115620005dd57600081556001016200061e565b6000602082840312156200064757600080fd5b81516001600160a01b03811681146200065f57600080fd5b9392505050565b600060ff821660ff81036200068b57634e487b7160e01b600052601160045260246000fd5b60010192915050565b61239f80620006a46000396000f3fe6080604052600436106101e75760003560e01c80636f77926b11610102578063a87430ba11610095578063cfce504411610064578063cfce5044146107d2578063db2e21bc14610807578063dea64dc51461081c578063f2fde38b1461085257600080fd5b8063a87430ba146106bb578063b056649714610760578063b0af768b14610792578063bd4616f4146107b257600080fd5b80638d17a4d0116100d15780638d17a4d0146106625780638da5cb5b146106755780638f1fcd7a14610693578063968763a0146106a857600080fd5b80636f77926b146105745780636f9fb98a14610625578063715018a6146106385780638456cb591461064d57600080fd5b806337e3c7891161017a5780635c975abb116101495780635c975abb146104eb57806360891fe41461050a5780636702c7bf146105445780636b4169c31461055957600080fd5b806337e3c789146104745780633f4ba83a1461049657806348135df0146104ab5780634debc14f146104cb57600080fd5b80631aa3a008116101b65780631aa3a0081461040457806323994d9c1461040c5780632663e0b5146104215780632996f9721461043c57600080fd5b806303b56a031461032857806306fbedbe14610368578063091b430a1461038f578063163f7522146103bc57600080fd5b36610323576101f4610872565b333b1561021c5760405162461bcd60e51b815260040161021390611fd5565b60405180910390fd5b3360009081526017602052604090205461029a576658d15e17628000340361025a576102586102536001546001600160a01b031690565b61089f565b005b60405162461bcd60e51b8152602060048201526015602482015274149959da5cdd1c985d1a5bdb881c995c5d5a5c9959605a1b6044820152606401610213565b60015b601060ff8216116102e1573460048260ff16601181106102bf576102bf612004565b0154036102cf5761025881610a30565b806102d981612030565b91505061029d565b5060405162461bcd60e51b8152602060048201526016602482015275125b9d985b1a59081c185e5b595b9d08185b5bdd5b9d60521b6044820152606401610213565b600080fd5b34801561033457600080fd5b50610355610343366004612065565b60156020526000908152604090205481565b6040519081526020015b60405180910390f35b34801561037457600080fd5b5061037d604a81565b60405160ff909116815260200161035f565b34801561039b57600080fd5b506103556103aa366004612065565b601a6020526000908152604090205481565b3480156103c857600080fd5b506103f46103d736600461209c565b6001600160a01b0316600090815260176020526040902054151590565b604051901515815260200161035f565b610258610cbb565b34801561041857600080fd5b5061037d600381565b34801561042d57600080fd5b506103556658d15e1762800081565b34801561044857600080fd5b5060035461045c906001600160a01b031681565b6040516001600160a01b03909116815260200161035f565b34801561048057600080fd5b50610489610cd8565b60405161035f91906120b9565b3480156104a257600080fd5b50610258610d14565b3480156104b757600080fd5b506103556104c63660046120eb565b610d24565b3480156104d757600080fd5b5061045c6104e6366004612104565b610d3b565b3480156104f757600080fd5b50600154600160a01b900460ff166103f4565b34801561051657600080fd5b50601b54601c54601d5461052992919083565b6040805193845260208401929092529082015260600161035f565b34801561055057600080fd5b5061037d601081565b34801561056557600080fd5b50601b54601c54601d54610529565b34801561058057600080fd5b506105e261058f36600461209c565b6001600160a01b0390811660009081526017602052604080822080546001820154600283015490951680855292909320546003820154600483015460058401546006909401549597929591939092909190565b604080519889526020890197909752958701949094526001600160a01b039092166060860152608085015260a084015260c083015260e08201526101000161035f565b34801561063157600080fd5b5047610355565b34801561064457600080fd5b50610258610d73565b34801561065957600080fd5b50610258610d85565b610258610670366004612065565b610a30565b34801561068157600080fd5b506001546001600160a01b031661045c565b34801561069f57600080fd5b5061037d600281565b6102586106b636600461209c565b610d95565b3480156106c757600080fd5b5061071d6106d636600461209c565b6017602052600090815260409020805460018201546002830154600384015460048501546005860154600690960154949593946001600160a01b0390931693919290919087565b6040805197885260208801969096526001600160a01b03909416948601949094526060850191909152608084015260a083019190915260c082015260e00161035f565b34801561076c57600080fd5b5061078061077b36600461209c565b610ee2565b60405161035f9695949392919061219d565b34801561079e57600080fd5b506102586107ad36600461209c565b611252565b3480156107be57600080fd5b5061037d6107cd3660046120eb565b6112f4565b3480156107de57600080fd5b506107f26107ed36600461224a565b61131e565b6040805192835260208301919091520161035f565b34801561081357600080fd5b50610258611493565b34801561082857600080fd5b5061045c6108373660046120eb565b6018602052600090815260409020546001600160a01b031681565b34801561085e57600080fd5b5061025861086d36600461209c565b6114d4565b600154600160a01b900460ff161561089d5760405163d93c066560e01b815260040160405180910390fd5b565b60168054600091826108b08361227f565b9091555033600081815260176020908152604080832085815542600182015560020180546001600160a01b0389166001600160a01b031991821617909155858452601890925290912080549091169091179055905061090e8261150f565b6003546040516000916001600160a01b03169034908381818185875af1925050503d806000811461095b576040519150601f19603f3d011682016040523d82523d6000602084013e610960565b606091505b50509050806109bd5760405162461bcd60e51b815260206004820152602360248201527f424e42207472616e7366657220746f20746f6b656e206275726e6572206661696044820152621b195960ea1b6064820152608401610213565b601b80549060006109cd8361227f565b9091555050601c80549060006109e28361227f565b90915550506001600160a01b038316600090815260176020526040808220549051339285917fd16b9e23ebcbb63125b93bae9f6ab7816d405e981078401e617b7c0af255806c9190a4505050565b610a38611595565b33600090815260176020526040902054610a8a5760405162461bcd60e51b8152602060048201526013602482015272155cd95c881b9bdd081c9959da5cdd195c9959606a1b6044820152606401610213565b8060008160ff16118015610aa25750601060ff821611155b610ade5760405162461bcd60e51b815260206004820152600d60248201526c125b9d985b1a59081b195d995b609a1b6044820152606401610213565b610ae6610872565b333b15610b055760405162461bcd60e51b815260040161021390611fd5565b3460048360ff1660118110610b1c57610b1c612004565b015414610b6b5760405162461bcd60e51b815260206004820152601c60248201527f496e76616c696420424e4220616d6f756e7420666f72206c6576656c000000006044820152606401610213565b60ff8216600090815260156020526040902054601b541015610bc55760405162461bcd60e51b81526020600482015260136024820152724c6576656c206e6f7420617661696c61626c6560681b6044820152606401610213565b60015b8260ff168160ff161015610c615733600090815260176020908152604080832060ff8086168552600790910190925290912054600160301b900416610c4f5760405162461bcd60e51b815260206004820152601e60248201527f50726576696f7573206c6576656c73206d7573742062652061637469766500006044820152606401610213565b80610c5981612030565b915050610bc8565b50601c8054906000610c728361227f565b919050555034601b6002016000828254610c8c9190612298565b90915550610c9b9050826115bf565b610ca482611792565b610cad8261191f565b50610cb86001600055565b50565b610cc3610872565b61089d6106b66001546001600160a01b031690565b610ce0611fb6565b604080516102208101918290529060049060119082845b815481526020019060010190808311610cf7575050505050905090565b610d1c611994565b61089d6119c1565b60048160118110610d3457600080fd5b0154905081565b60196020528160005260406000208181548110610d5757600080fd5b6000918252602090912001546001600160a01b03169150829050565b610d7b611994565b61089d6000611a16565b610d8d611994565b61089d611a68565b610d9d610872565b333b15610dbc5760405162461bcd60e51b815260040161021390611fd5565b6658d15e176280003414610e225760405162461bcd60e51b815260206004820152602760248201527f53656e642065786163746c7920302e30323520424e4220666f722072656769736044820152663a3930ba34b7b760c91b6064820152608401610213565b6001600160a01b038116600090815260176020526040902054610e875760405162461bcd60e51b815260206004820152601760248201527f5265666572726572206e6f7420726567697374657265640000000000000000006044820152606401610213565b3360009081526017602052604090205415610ed95760405162461bcd60e51b8152602060048201526012602482015271105b1c9958591e481c9959da5cdd195c995960721b6044820152606401610213565b610cb88161089f565b60608080808080610ef5601060016122ab565b60ff1667ffffffffffffffff811115610f1057610f106122c4565b604051908082528060200260200182016040528015610f39578160200160208202803683370190505b509550610f48601060016122ab565b60ff1667ffffffffffffffff811115610f6357610f636122c4565b604051908082528060200260200182016040528015610f8c578160200160208202803683370190505b509450610f9b601060016122ab565b60ff1667ffffffffffffffff811115610fb657610fb66122c4565b604051908082528060200260200182016040528015610fdf578160200160208202803683370190505b509350610fee601060016122ab565b60ff1667ffffffffffffffff811115611009576110096122c4565b604051908082528060200260200182016040528015611032578160200160208202803683370190505b509250611041601060016122ab565b60ff1667ffffffffffffffff81111561105c5761105c6122c4565b604051908082528060200260200182016040528015611085578160200160208202803683370190505b509150611094601060016122ab565b60ff1667ffffffffffffffff8111156110af576110af6122c4565b6040519080825280602002602001820160405280156110d8578160200160208202803683370190505b50905060015b601060ff821611611248576001600160a01b038816600090815260176020908152604080832060ff8086168086526007909201909352922080548a519193600160301b909104909216918a91811061113857611138612004565b6020026020010190151590811515815250508060000160049054906101000a900461ffff16878360ff168151811061117257611172612004565b61ffff9283166020918202929092010152815487516201000090910490911690879060ff85169081106111a7576111a7612004565b61ffff928316602091820292909201015281548651911690869060ff85169081106111d4576111d4612004565b602002602001019061ffff16908161ffff16815250508060010154848360ff168151811061120457611204612004565b6020026020010181815250508060020154838360ff168151811061122a5761122a612004565b6020908102919091010152508061124081612030565b9150506110de565b5091939550919395565b61125a611994565b6001600160a01b0381166112a25760405162461bcd60e51b815260206004820152600f60248201526e496e76616c6964206164647265737360881b6044820152606401610213565b600380546001600160a01b038381166001600160a01b0319831681179093556040519116919082907ff1f34e0fc899850dc916e4128492f6cb73a06c53bae553fb09883f5dadf061d890600090a35050565b6002816004811061130457600080fd5b60209182820401919006915054906101000a900460ff1681565b6000808260008160ff161180156113395750601060ff821611155b6113755760405162461bcd60e51b815260206004820152600d60248201526c125b9d985b1a59081b195d995b609a1b6044820152606401610213565b6001600160a01b038516600090815260176020908152604080832060ff8089168552600790910190925290912054600160301b9004166113bb576000809250925061148b565b60ff84166000908152601a60209081526040808320546019909252909120546113e491906122da565b60ff85166000908152601a60205260409020549092505b60ff8516600090815260196020526040902054811015611485578361141f8161227f565b60ff8716600090815260196020526040902080549196506001600160a01b0389169250908390811061145357611453612004565b6000918252602090912001546001600160a01b031603611473575061148b565b8061147d8161227f565b9150506113fb565b50600092505b509250929050565b61149b611994565b6001546040516001600160a01b03909116904780156108fc02916000818181858888f19350505050158015610cb8573d6000803e3d6000fd5b6114dc611994565b6001600160a01b03811661150657604051631e4fbdf760e01b815260006004820152602401610213565b610cb881611a16565b6001815b600360ff83161180159061152f57506001600160a01b03811615155b15611590576001600160a01b038116600090815260176020526040812060030180549161155b8361227f565b90915550506001600160a01b03908116600090815260176020526040902060020154168161158881612030565b925050611513565b505050565b6002600054036115b857604051633ee5aeb560e01b815260040160405180910390fd5b6002600055565b33600090815260176020908152604080832060ff8086168552600790910190925290912054600160301b90041661168e5733600081815260176020818152604080842060ff8716808652600782018452828620805466ff0000ffffffff191666010000000200011790556019845282862080546001810182559087528487200180546001600160a01b03191688179055959094529181529154905134815290917fb3ee66175caa7eb8cc743a754465090c36c078d31e7b31a0057133127e6087f591015b60405180910390a350565b33600090815260176020908152604080832060ff851684526007019091528120805461ffff16916116be836122ed565b82546101009290920a61ffff81810219909316918316021790915533600090815260176020908152604080832060ff871684526007019091529020805460029350909183916117159183916201000090041661230e565b82546101009290920a61ffff818102199093169183160217909155336000908152601760209081526040808320805460ff8816808652600790920184529382902054915162010000909204909416815292935090917ff164f79ccc8f5723ef68f84771de9a921c6ba456d540317ea133df467e3f8e6a9101611683565b600060646117a1604a34612330565b6117ab9190612347565b60ff83166000908152601960209081526040808320601a9092528220548154939450919290919081106117e0576117e0612004565b6000918252602090912001546001600160a01b0316905033811461187b576118088183611aab565b611813818484611b46565b61181d8184611bbc565b336000908152601760209081526040808320546001600160a01b03851684529281902054905185815260ff8716927fb970429b721aab5042efe513b75b71cd07615fdff866744e3d07dfe5998ffc66910160405180910390a46118b2565b6118966118906001546001600160a01b031690565b83611aab565b6118b26118ab6001546001600160a01b031690565b8484611b46565b60ff83166000908152601960209081526040808320601a90925290912054815481106118e0576118e0612004565b6000918252602080832090910180546001600160a01b031916905560ff85168252601a9052604081208054916119158361227f565b9190505550505050565b600061192c606434612347565b905060015b600360ff82161161159057600060028260ff166004811061195457611954612004565b60208104919091015461197391601f166101000a900460ff1684612330565b905061198133838684611d0e565b508061198c81612030565b915050611931565b6001546001600160a01b0316331461089d5760405163118cdaa760e01b8152336004820152602401610213565b6119c9611f04565b6001805460ff60a01b191690557f5db9ee0a495bf2e6ff9c91a7834c1ba4fdd244a5e8aa4e537bd38aeae4b073aa335b6040516001600160a01b03909116815260200160405180910390a1565b600180546001600160a01b038381166001600160a01b0319831681179093556040519116919082907f8be0079c531659141344cd1fd0a4f28419497f9722a3daafe3b4186f6b6457e090600090a35050565b611a70610872565b6001805460ff60a01b1916600160a01b1790557f62e78cea01bee320cd4e420270b5ea74000d11b0c9f74754ebdbfc544b05a2586119f93390565b6000826001600160a01b03168260405160006040518083038185875af1925050503d8060008114611af8576040519150601f19603f3d011682016040523d82523d6000602084013e611afd565b606091505b5050905080611590576001546040516001600160a01b039091169083156108fc029084906000818181858888f19350505050158015611b40573d6000803e3d6000fd5b50505050565b6001600160a01b038316600090815260176020908152604080832060ff8616845260070190915281206001018054839290611b82908490612298565b90915550506001600160a01b03831660009081526017602052604081206005018054839290611bb2908490612298565b9091555050505050565b6001600160a01b038216600090815260176020908152604080832060ff8516845260070190915290208054640100000000900461ffff16906004611bff836122ed565b82546101009290920a61ffff8181021990931691831602179091556001600160a01b038416600090815260176020908152604080832060ff87168452600701909152902054620100008104821664010000000090910490911610159050611ca15760ff811660009081526019602090815260408220805460018101825590835291200180546001600160a01b0384166001600160a01b03199091161790555050565b6001600160a01b038216600081815260176020818152604080842060ff8716808652600782018452828620805466ff00000000000019169055958552929091529054905190917fae9c7cc1b10b0aa2e208296b682cc0000383f83093814233542a7c2eaf7e27d591a35050565b6000611d1a8585611f2e565b90505b6001600160a01b038116600090815260176020908152604080832060ff8088168552600790910190925290912054600160301b900416158015611d6e57506001546001600160a01b03828116911614155b15611e24576001600160a01b03811660009081526017602052604081206006018054849290611d9e908490612298565b90915550506001600160a01b0385811660009081526017602090815260408083205493851683529182902054915185815260ff87169392917fe9d5dfc09351e7b04248ed26514ea34cf12373d57d5206d9d46cd2ad5e487055910160405180910390a46001600160a01b0390811660009081526017602052604090206002015416611d1d565b611e2e8183611aab565b6001600160a01b038116600090815260176020908152604080832060ff8716845260070190915281206002018054849290611e6a908490612298565b90915550506001600160a01b03811660009081526017602052604081206004018054849290611e9a908490612298565b90915550506001600160a01b0385811660009081526017602090815260408083205493851683529182902054915185815260ff87169392917f6d8172da503639a6daa587046b28564afbee4369eca5d54e7551a07a591db533910160405180910390a45050505050565b600154600160a01b900460ff1661089d57604051638dfc202b60e01b815260040160405180910390fd5b6001600160a01b0380831660009081526017602052604081206002015490911660015b8360ff168160ff16108015611f7457506001546001600160a01b03838116911614155b15611fac576001600160a01b039182166000908152601760205260409020600201549091169080611fa481612030565b915050611f51565b5090505b92915050565b6040518061022001604052806011906020820280368337509192915050565b60208082526015908201527410dbdb9d1c9858dd1cc81b9bdd08185b1b1bddd959605a1b604082015260600190565b634e487b7160e01b600052603260045260246000fd5b634e487b7160e01b600052601160045260246000fd5b600060ff821660ff81036120465761204661201a565b60010192915050565b803560ff8116811461206057600080fd5b919050565b60006020828403121561207757600080fd5b6120808261204f565b9392505050565b6001600160a01b0381168114610cb857600080fd5b6000602082840312156120ae57600080fd5b813561208081612087565b6102208101818360005b60118110156120e25781518352602092830192909101906001016120c3565b50505092915050565b6000602082840312156120fd57600080fd5b5035919050565b6000806040838503121561211757600080fd5b6121208361204f565b946020939093013593505050565b600081518084526020808501945080840160005b8381101561216257815161ffff1687529582019590820190600101612142565b509495945050505050565b600081518084526020808501945080840160005b8381101561216257815187529582019590820190600101612181565b60c0808252875190820181905260009060209060e0840190828b01845b828110156121d85781511515845292840192908401906001016121ba565b505050838103828501526121ec818a61212e565b9150508281036040840152612201818861212e565b90508281036060840152612215818761212e565b90508281036080840152612229818661216d565b905082810360a084015261223d818561216d565b9998505050505050505050565b6000806040838503121561225d57600080fd5b823561226881612087565b91506122766020840161204f565b90509250929050565b6000600182016122915761229161201a565b5060010190565b80820180821115611fb057611fb061201a565b60ff8181168382160190811115611fb057611fb061201a565b634e487b7160e01b600052604160045260246000fd5b81810381811115611fb057611fb061201a565b600061ffff8083168181036123045761230461201a565b6001019392505050565b61ffff8181168382160190808211156123295761232961201a565b5092915050565b8082028115828204841417611fb057611fb061201a565b60008261236457634e487b7160e01b600052601260045260246000fd5b50049056fea2646970667358221220fd4d36d2278dfca3dbea5d9f6ef0a77efbecb9e547b72ab6792ed2ddc74bb37164736f6c63430008140033",
  "linkReferences": {},
  "deployedLinkReferences": {}
}